{
  "_format": "hh-sol-artifact-1",
  "contractName": "LiquidityPool",
  "sourceName": "contracts/LiquiditySwap.sol",
  "abi": [
    {
      "inputs": [
        {
          "internalType": "address",
          "name": "_token1",
          "type": "address"
        },
        {
          "internalType": "address",
          "name": "_token2",
          "type": "address"
        }
      ],
      "stateMutability": "nonpayable",
      "type": "constructor"
    },
    {
      "anonymous": false,
      "inputs": [
        {
          "indexed": true,
          "internalType": "address",
          "name": "provider",
          "type": "address"
        },
        {
          "indexed": false,
          "internalType": "uint256",
          "name": "amount1",
          "type": "uint256"
        },
        {
          "indexed": false,
          "internalType": "uint256",
          "name": "amount2",
          "type": "uint256"
        },
        {
          "indexed": false,
          "internalType": "uint256",
          "name": "shares",
          "type": "uint256"
        }
      ],
      "name": "LiquidityAdded",
      "type": "event"
    },
    {
      "anonymous": false,
      "inputs": [
        {
          "indexed": true,
          "internalType": "address",
          "name": "provider",
          "type": "address"
        },
        {
          "indexed": false,
          "internalType": "uint256",
          "name": "amount1",
          "type": "uint256"
        },
        {
          "indexed": false,
          "internalType": "uint256",
          "name": "amount2",
          "type": "uint256"
        },
        {
          "indexed": false,
          "internalType": "uint256",
          "name": "shares",
          "type": "uint256"
        }
      ],
      "name": "LiquidityRemoved",
      "type": "event"
    },
    {
      "anonymous": false,
      "inputs": [
        {
          "indexed": true,
          "internalType": "address",
          "name": "user",
          "type": "address"
        },
        {
          "indexed": false,
          "internalType": "uint256",
          "name": "amountIn",
          "type": "uint256"
        },
        {
          "indexed": false,
          "internalType": "uint256",
          "name": "amountOut",
          "type": "uint256"
        },
        {
          "indexed": false,
          "internalType": "bool",
          "name": "token1ToToken2",
          "type": "bool"
        }
      ],
      "name": "Swap",
      "type": "event"
    },
    {
      "inputs": [
        {
          "internalType": "uint256",
          "name": "amount1",
          "type": "uint256"
        },
        {
          "internalType": "uint256",
          "name": "amount2",
          "type": "uint256"
        }
      ],
      "name": "addLiquidity",
      "outputs": [
        {
          "internalType": "uint256",
          "name": "share",
          "type": "uint256"
        }
      ],
      "stateMutability": "nonpayable",
      "type": "function"
    },
    {
      "inputs": [],
      "name": "getReserves",
      "outputs": [
        {
          "internalType": "uint256",
          "name": "reserve1",
          "type": "uint256"
        },
        {
          "internalType": "uint256",
          "name": "reserve2",
          "type": "uint256"
        }
      ],
      "stateMutability": "view",
      "type": "function"
    },
    {
      "inputs": [
        {
          "internalType": "uint256",
          "name": "share",
          "type": "uint256"
        }
      ],
      "name": "removeLiquidity",
      "outputs": [
        {
          "internalType": "uint256",
          "name": "amount1",
          "type": "uint256"
        },
        {
          "internalType": "uint256",
          "name": "amount2",
          "type": "uint256"
        }
      ],
      "stateMutability": "nonpayable",
      "type": "function"
    },
    {
      "inputs": [
        {
          "internalType": "address",
          "name": "",
          "type": "address"
        }
      ],
      "name": "shares",
      "outputs": [
        {
          "internalType": "uint256",
          "name": "",
          "type": "uint256"
        }
      ],
      "stateMutability": "view",
      "type": "function"
    },
    {
      "inputs": [
        {
          "internalType": "uint256",
          "name": "amountIn",
          "type": "uint256"
        },
        {
          "internalType": "bool",
          "name": "token1ToToken2",
          "type": "bool"
        }
      ],
      "name": "swap",
      "outputs": [
        {
          "internalType": "uint256",
          "name": "amountOut",
          "type": "uint256"
        }
      ],
      "stateMutability": "nonpayable",
      "type": "function"
    },
    {
      "inputs": [],
      "name": "token1",
      "outputs": [
        {
          "internalType": "contract IERC20",
          "name": "",
          "type": "address"
        }
      ],
      "stateMutability": "view",
      "type": "function"
    },
    {
      "inputs": [],
      "name": "token2",
      "outputs": [
        {
          "internalType": "contract IERC20",
          "name": "",
          "type": "address"
        }
      ],
      "stateMutability": "view",
      "type": "function"
    },
    {
      "inputs": [],
      "name": "totalShares",
      "outputs": [
        {
          "internalType": "uint256",
          "name": "",
          "type": "uint256"
        }
      ],
      "stateMutability": "view",
      "type": "function"
    }
  ],
  "bytecode": "0x60806040523480156200001157600080fd5b5060405162001a5b38038062001a5b8339818101604052810190620000379190620001e0565b6001600081905550600073ffffffffffffffffffffffffffffffffffffffff168273ffffffffffffffffffffffffffffffffffffffff1614158015620000aa5750600073ffffffffffffffffffffffffffffffffffffffff168173ffffffffffffffffffffffffffffffffffffffff1614155b620000ec576040517f08c379a0000000000000000000000000000000000000000000000000000000008152600401620000e39062000288565b60405180910390fd5b81600160006101000a81548173ffffffffffffffffffffffffffffffffffffffff021916908373ffffffffffffffffffffffffffffffffffffffff16021790555080600260006101000a81548173ffffffffffffffffffffffffffffffffffffffff021916908373ffffffffffffffffffffffffffffffffffffffff1602179055505050620002aa565b600080fd5b600073ffffffffffffffffffffffffffffffffffffffff82169050919050565b6000620001a8826200017b565b9050919050565b620001ba816200019b565b8114620001c657600080fd5b50565b600081519050620001da81620001af565b92915050565b60008060408385031215620001fa57620001f962000176565b5b60006200020a85828601620001c9565b92505060206200021d85828601620001c9565b9150509250929050565b600082825260208201905092915050565b7f496e76616c696420746f6b656e20616464726573736573000000000000000000600082015250565b60006200027060178362000227565b91506200027d8262000238565b602082019050919050565b60006020820190508181036000830152620002a38162000261565b9050919050565b6117a180620002ba6000396000f3fe608060405234801561001057600080fd5b50600436106100885760003560e01c80639c8f9f231161005b5780639c8f9f23146101185780639cd441da14610149578063ce7c2ac214610179578063d21220a7146101a957610088565b80630902f1ac1461008d57806325be124e146100ac5780632aea6605146100ca5780633a98ef39146100fa575b600080fd5b6100956101c7565b6040516100a3929190610f43565b60405180910390f35b6100b461030a565b6040516100c19190610feb565b60405180910390f35b6100e460048036038101906100df919061106f565b610330565b6040516100f191906110af565b60405180910390f35b610102610790565b60405161010f91906110af565b60405180910390f35b610132600480360381019061012d91906110ca565b610796565b604051610140929190610f43565b60405180910390f35b610163600480360381019061015e91906110f7565b610ad5565b60405161017091906110af565b60405180910390f35b610193600480360381019061018e9190611175565b610e00565b6040516101a091906110af565b60405180910390f35b6101b1610e18565b6040516101be9190610feb565b60405180910390f35b600080600160009054906101000a900473ffffffffffffffffffffffffffffffffffffffff1673ffffffffffffffffffffffffffffffffffffffff166370a08231306040518263ffffffff1660e01b815260040161022591906111b1565b602060405180830381865afa158015610242573d6000803e3d6000fd5b505050506040513d601f19601f8201168201806040525081019061026691906111e1565b9150600260009054906101000a900473ffffffffffffffffffffffffffffffffffffffff1673ffffffffffffffffffffffffffffffffffffffff166370a08231306040518263ffffffff1660e01b81526004016102c391906111b1565b602060405180830381865afa1580156102e0573d6000803e3d6000fd5b505050506040513d601f19601f8201168201806040525081019061030491906111e1565b90509091565b600260009054906101000a900473ffffffffffffffffffffffffffffffffffffffff1681565b600061033a610e3e565b6000831161037d576040517f08c379a00000000000000000000000000000000000000000000000000000000081526004016103749061126b565b60405180910390fd5b6000806103886101c7565b91509150831561056257600160009054906101000a900473ffffffffffffffffffffffffffffffffffffffff1673ffffffffffffffffffffffffffffffffffffffff166323b872dd3330886040518463ffffffff1660e01b81526004016103f19392919061128b565b6020604051808303816000875af1158015610410573d6000803e3d6000fd5b505050506040513d601f19601f8201168201806040525081019061043491906112d7565b5060006103e86103e5876104489190611333565b61045291906113a4565b9050808361046091906113d5565b828261046c9190611333565b61047691906113a4565b9350600084116104bb576040517f08c379a00000000000000000000000000000000000000000000000000000000081526004016104b290611455565b60405180910390fd5b600260009054906101000a900473ffffffffffffffffffffffffffffffffffffffff1673ffffffffffffffffffffffffffffffffffffffff1663a9059cbb33866040518363ffffffff1660e01b8152600401610518929190611475565b6020604051808303816000875af1158015610537573d6000803e3d6000fd5b505050506040513d601f19601f8201168201806040525081019061055b91906112d7565b505061072e565b600260009054906101000a900473ffffffffffffffffffffffffffffffffffffffff1673ffffffffffffffffffffffffffffffffffffffff166323b872dd3330886040518463ffffffff1660e01b81526004016105c19392919061128b565b6020604051808303816000875af11580156105e0573d6000803e3d6000fd5b505050506040513d601f19601f8201168201806040525081019061060491906112d7565b5060006103e86103e5876106189190611333565b61062291906113a4565b9050808261063091906113d5565b838261063c9190611333565b61064691906113a4565b93506000841161068b576040517f08c379a000000000000000000000000000000000000000000000000000000000815260040161068290611455565b60405180910390fd5b600160009054906101000a900473ffffffffffffffffffffffffffffffffffffffff1673ffffffffffffffffffffffffffffffffffffffff1663a9059cbb33866040518363ffffffff1660e01b81526004016106e8929190611475565b6020604051808303816000875af1158015610707573d6000803e3d6000fd5b505050506040513d601f19601f8201168201806040525081019061072b91906112d7565b50505b3373ffffffffffffffffffffffffffffffffffffffff167fcc65e4d9060ece2ecf63011ac580550b04c8daeba63fac4dfe8669353cd88859868587604051610778939291906114ad565b60405180910390a2505061078a610e8d565b92915050565b60035481565b6000806107a1610e3e565b6000831180156107f0575082600460003373ffffffffffffffffffffffffffffffffffffffff1673ffffffffffffffffffffffffffffffffffffffff1681526020019081526020016000205410155b61082f576040517f08c379a000000000000000000000000000000000000000000000000000000000815260040161082690611530565b60405180910390fd5b60008061083a6101c7565b91509150600354828661084d9190611333565b61085791906113a4565b935060035481866108689190611333565b61087291906113a4565b92506000841180156108845750600083115b6108c3576040517f08c379a00000000000000000000000000000000000000000000000000000000081526004016108ba9061159c565b60405180910390fd5b84600460003373ffffffffffffffffffffffffffffffffffffffff1673ffffffffffffffffffffffffffffffffffffffff168152602001908152602001600020600082825461091291906115bc565b92505081905550846003600082825461092b91906115bc565b92505081905550600160009054906101000a900473ffffffffffffffffffffffffffffffffffffffff1673ffffffffffffffffffffffffffffffffffffffff1663a9059cbb33866040518363ffffffff1660e01b815260040161098f929190611475565b6020604051808303816000875af11580156109ae573d6000803e3d6000fd5b505050506040513d601f19601f820116820180604052508101906109d291906112d7565b50600260009054906101000a900473ffffffffffffffffffffffffffffffffffffffff1673ffffffffffffffffffffffffffffffffffffffff1663a9059cbb33856040518363ffffffff1660e01b8152600401610a30929190611475565b6020604051808303816000875af1158015610a4f573d6000803e3d6000fd5b505050506040513d601f19601f82011682018060405250810190610a7391906112d7565b503373ffffffffffffffffffffffffffffffffffffffff167f1dc8bb69df2b8e91fbdcbfcf93d951b3f0000f085a95fe3f7946d6161439245d858588604051610abe939291906115f0565b60405180910390a25050610ad0610e8d565b915091565b6000610adf610e3e565b600083118015610aef5750600082115b610b2e576040517f08c379a0000000000000000000000000000000000000000000000000000000008152600401610b2590611673565b60405180910390fd5b600160009054906101000a900473ffffffffffffffffffffffffffffffffffffffff1673ffffffffffffffffffffffffffffffffffffffff166323b872dd3330866040518463ffffffff1660e01b8152600401610b8d9392919061128b565b6020604051808303816000875af1158015610bac573d6000803e3d6000fd5b505050506040513d601f19601f82011682018060405250810190610bd091906112d7565b50600260009054906101000a900473ffffffffffffffffffffffffffffffffffffffff1673ffffffffffffffffffffffffffffffffffffffff166323b872dd3330856040518463ffffffff1660e01b8152600401610c309392919061128b565b6020604051808303816000875af1158015610c4f573d6000803e3d6000fd5b505050506040513d601f19601f82011682018060405250810190610c7391906112d7565b50600060035403610ca057610c928284610c8d9190611333565b610e97565b905080600381905550610cee565b600080610cab6101c7565b91509150610ce98260035487610cc19190611333565b610ccb91906113a4565b8260035487610cda9190611333565b610ce491906113a4565b610f11565b925050505b60008111610d31576040517f08c379a0000000000000000000000000000000000000000000000000000000008152600401610d28906116df565b60405180910390fd5b80600460003373ffffffffffffffffffffffffffffffffffffffff1673ffffffffffffffffffffffffffffffffffffffff1681526020019081526020016000206000828254610d8091906113d5565b925050819055508060036000828254610d9991906113d5565b925050819055503373ffffffffffffffffffffffffffffffffffffffff167f64b83944e79c3ce8d4c297411de637c3e102d064677aac0c163976ebdcd6f50e848484604051610dea939291906115f0565b60405180910390a2610dfa610e8d565b92915050565b60046020528060005260406000206000915090505481565b600160009054906101000a900473ffffffffffffffffffffffffffffffffffffffff1681565b600260005403610e83576040517f08c379a0000000000000000000000000000000000000000000000000000000008152600401610e7a9061174b565b60405180910390fd5b6002600081905550565b6001600081905550565b60006003821115610efe5781905060006001600284610eb691906113a4565b610ec091906113d5565b90505b81811015610ef8578091506002818285610edd91906113a4565b610ee791906113d5565b610ef191906113a4565b9050610ec3565b50610f0c565b60008214610f0b57600190505b5b919050565b6000818310610f205781610f22565b825b905092915050565b6000819050919050565b610f3d81610f2a565b82525050565b6000604082019050610f586000830185610f34565b610f656020830184610f34565b9392505050565b600073ffffffffffffffffffffffffffffffffffffffff82169050919050565b6000819050919050565b6000610fb1610fac610fa784610f6c565b610f8c565b610f6c565b9050919050565b6000610fc382610f96565b9050919050565b6000610fd582610fb8565b9050919050565b610fe581610fca565b82525050565b60006020820190506110006000830184610fdc565b92915050565b600080fd5b61101481610f2a565b811461101f57600080fd5b50565b6000813590506110318161100b565b92915050565b60008115159050919050565b61104c81611037565b811461105757600080fd5b50565b60008135905061106981611043565b92915050565b6000806040838503121561108657611085611006565b5b600061109485828601611022565b92505060206110a58582860161105a565b9150509250929050565b60006020820190506110c46000830184610f34565b92915050565b6000602082840312156110e0576110df611006565b5b60006110ee84828501611022565b91505092915050565b6000806040838503121561110e5761110d611006565b5b600061111c85828601611022565b925050602061112d85828601611022565b9150509250929050565b600061114282610f6c565b9050919050565b61115281611137565b811461115d57600080fd5b50565b60008135905061116f81611149565b92915050565b60006020828403121561118b5761118a611006565b5b600061119984828501611160565b91505092915050565b6111ab81611137565b82525050565b60006020820190506111c660008301846111a2565b92915050565b6000815190506111db8161100b565b92915050565b6000602082840312156111f7576111f6611006565b5b6000611205848285016111cc565b91505092915050565b600082825260208201905092915050565b7f496e76616c696420696e70757420616d6f756e74000000000000000000000000600082015250565b600061125560148361120e565b91506112608261121f565b602082019050919050565b6000602082019050818103600083015261128481611248565b9050919050565b60006060820190506112a060008301866111a2565b6112ad60208301856111a2565b6112ba6040830184610f34565b949350505050565b6000815190506112d181611043565b92915050565b6000602082840312156112ed576112ec611006565b5b60006112fb848285016112c2565b91505092915050565b7f4e487b7100000000000000000000000000000000000000000000000000000000600052601160045260246000fd5b600061133e82610f2a565b915061134983610f2a565b925082820261135781610f2a565b9150828204841483151761136e5761136d611304565b5b5092915050565b7f4e487b7100000000000000000000000000000000000000000000000000000000600052601260045260246000fd5b60006113af82610f2a565b91506113ba83610f2a565b9250826113ca576113c9611375565b5b828204905092915050565b60006113e082610f2a565b91506113eb83610f2a565b925082820190508082111561140357611402611304565b5b92915050565b7f496e73756666696369656e74206f757470757420616d6f756e74000000000000600082015250565b600061143f601a8361120e565b915061144a82611409565b602082019050919050565b6000602082019050818103600083015261146e81611432565b9050919050565b600060408201905061148a60008301856111a2565b6114976020830184610f34565b9392505050565b6114a781611037565b82525050565b60006060820190506114c26000830186610f34565b6114cf6020830185610f34565b6114dc604083018461149e565b949350505050565b7f496e76616c696420736861726520616d6f756e74000000000000000000000000600082015250565b600061151a60148361120e565b9150611525826114e4565b602082019050919050565b600060208201905081810360008301526115498161150d565b9050919050565b7f496e73756666696369656e74206c69717569646974792072656d6f7665640000600082015250565b6000611586601e8361120e565b915061159182611550565b602082019050919050565b600060208201905081810360008301526115b581611579565b9050919050565b60006115c782610f2a565b91506115d283610f2a565b92508282039050818111156115ea576115e9611304565b5b92915050565b60006060820190506116056000830186610f34565b6116126020830185610f34565b61161f6040830184610f34565b949350505050565b7f416d6f756e7473206d7573742062652067726561746572207468616e20300000600082015250565b600061165d601e8361120e565b915061166882611627565b602082019050919050565b6000602082019050818103600083015261168c81611650565b9050919050565b7f496e73756666696369656e74206c697175696469747920616464656400000000600082015250565b60006116c9601c8361120e565b91506116d482611693565b602082019050919050565b600060208201905081810360008301526116f8816116bc565b9050919050565b7f5265656e7472616e637947756172643a207265656e7472616e742063616c6c00600082015250565b6000611735601f8361120e565b9150611740826116ff565b602082019050919050565b6000602082019050818103600083015261176481611728565b905091905056fea26469706673582212204399785f1cb800725a6c0fcb8ab1dba538d5c26d680249bf2fe43fcb156afc8664736f6c63430008140033",
  "linkReferences": {},
  "deployedLinkReferences": {}
}