{
  "_format": "hh-sol-artifact-1",
  "contractName": "LiquidityPool",
  "sourceName": "contracts/Liquidity.sol",
  "abi": [
    {
      "inputs": [
        {
          "internalType": "address",
          "name": "_token1",
          "type": "address"
        },
        {
          "internalType": "address",
          "name": "_token2",
          "type": "address"
        }
      ],
      "stateMutability": "nonpayable",
      "type": "constructor"
    },
    {
      "anonymous": false,
      "inputs": [
        {
          "indexed": true,
          "internalType": "address",
          "name": "user",
          "type": "address"
        },
        {
          "indexed": false,
          "internalType": "uint256",
          "name": "amount1",
          "type": "uint256"
        },
        {
          "indexed": false,
          "internalType": "uint256",
          "name": "amount2",
          "type": "uint256"
        },
        {
          "indexed": false,
          "internalType": "uint256",
          "name": "shares",
          "type": "uint256"
        },
        {
          "indexed": false,
          "internalType": "uint256",
          "name": "reserve1",
          "type": "uint256"
        },
        {
          "indexed": false,
          "internalType": "uint256",
          "name": "reserve2",
          "type": "uint256"
        },
        {
          "indexed": false,
          "internalType": "uint256",
          "name": "totalShares",
          "type": "uint256"
        }
      ],
      "name": "LiquidityAdded",
      "type": "event"
    },
    {
      "anonymous": false,
      "inputs": [
        {
          "indexed": true,
          "internalType": "address",
          "name": "user",
          "type": "address"
        },
        {
          "indexed": false,
          "internalType": "uint256",
          "name": "amount1",
          "type": "uint256"
        },
        {
          "indexed": false,
          "internalType": "uint256",
          "name": "amount2",
          "type": "uint256"
        },
        {
          "indexed": false,
          "internalType": "uint256",
          "name": "reserve1",
          "type": "uint256"
        },
        {
          "indexed": false,
          "internalType": "uint256",
          "name": "reserve2",
          "type": "uint256"
        },
        {
          "indexed": false,
          "internalType": "uint256",
          "name": "totalShares",
          "type": "uint256"
        }
      ],
      "name": "LiquidityRemoved",
      "type": "event"
    },
    {
      "anonymous": false,
      "inputs": [
        {
          "indexed": true,
          "internalType": "address",
          "name": "user",
          "type": "address"
        },
        {
          "indexed": false,
          "internalType": "address",
          "name": "fromToken",
          "type": "address"
        },
        {
          "indexed": false,
          "internalType": "uint256",
          "name": "amountIn",
          "type": "uint256"
        },
        {
          "indexed": false,
          "internalType": "uint256",
          "name": "amountOut",
          "type": "uint256"
        },
        {
          "indexed": false,
          "internalType": "uint256",
          "name": "reserve1",
          "type": "uint256"
        },
        {
          "indexed": false,
          "internalType": "uint256",
          "name": "reserve2",
          "type": "uint256"
        }
      ],
      "name": "Swapped",
      "type": "event"
    },
    {
      "inputs": [],
      "name": "FEE",
      "outputs": [
        {
          "internalType": "uint256",
          "name": "",
          "type": "uint256"
        }
      ],
      "stateMutability": "view",
      "type": "function"
    },
    {
      "inputs": [
        {
          "internalType": "uint256",
          "name": "amount1",
          "type": "uint256"
        },
        {
          "internalType": "uint256",
          "name": "amount2",
          "type": "uint256"
        }
      ],
      "name": "addLiquidity",
      "outputs": [],
      "stateMutability": "nonpayable",
      "type": "function"
    },
    {
      "inputs": [
        {
          "internalType": "uint256",
          "name": "share",
          "type": "uint256"
        }
      ],
      "name": "removeLiquidity",
      "outputs": [],
      "stateMutability": "nonpayable",
      "type": "function"
    },
    {
      "inputs": [],
      "name": "reserve1",
      "outputs": [
        {
          "internalType": "uint256",
          "name": "",
          "type": "uint256"
        }
      ],
      "stateMutability": "view",
      "type": "function"
    },
    {
      "inputs": [],
      "name": "reserve2",
      "outputs": [
        {
          "internalType": "uint256",
          "name": "",
          "type": "uint256"
        }
      ],
      "stateMutability": "view",
      "type": "function"
    },
    {
      "inputs": [
        {
          "internalType": "address",
          "name": "",
          "type": "address"
        }
      ],
      "name": "shares",
      "outputs": [
        {
          "internalType": "uint256",
          "name": "",
          "type": "uint256"
        }
      ],
      "stateMutability": "view",
      "type": "function"
    },
    {
      "inputs": [
        {
          "internalType": "address",
          "name": "fromToken",
          "type": "address"
        },
        {
          "internalType": "uint256",
          "name": "amountIn",
          "type": "uint256"
        }
      ],
      "name": "swap",
      "outputs": [],
      "stateMutability": "nonpayable",
      "type": "function"
    },
    {
      "inputs": [],
      "name": "token1",
      "outputs": [
        {
          "internalType": "contract IERC20",
          "name": "",
          "type": "address"
        }
      ],
      "stateMutability": "view",
      "type": "function"
    },
    {
      "inputs": [],
      "name": "token2",
      "outputs": [
        {
          "internalType": "contract IERC20",
          "name": "",
          "type": "address"
        }
      ],
      "stateMutability": "view",
      "type": "function"
    },
    {
      "inputs": [],
      "name": "totalShares",
      "outputs": [
        {
          "internalType": "uint256",
          "name": "",
          "type": "uint256"
        }
      ],
      "stateMutability": "view",
      "type": "function"
    }
  ],
  "bytecode": "0x60806040523480156200001157600080fd5b50604051620016ff380380620016ff83398181016040528101906200003791906200012a565b816000806101000a81548173ffffffffffffffffffffffffffffffffffffffff021916908373ffffffffffffffffffffffffffffffffffffffff16021790555080600160006101000a81548173ffffffffffffffffffffffffffffffffffffffff021916908373ffffffffffffffffffffffffffffffffffffffff160217905550505062000171565b600080fd5b600073ffffffffffffffffffffffffffffffffffffffff82169050919050565b6000620000f282620000c5565b9050919050565b6200010481620000e5565b81146200011057600080fd5b50565b6000815190506200012481620000f9565b92915050565b60008060408385031215620001445762000143620000c0565b5b6000620001548582860162000113565b9250506020620001678582860162000113565b9150509250929050565b61157e80620001816000396000f3fe608060405234801561001057600080fd5b506004361061009e5760003560e01c80639cd441da116100665780639cd441da14610137578063c57981b514610153578063ce7c2ac214610171578063d004f0f7146101a1578063d21220a7146101bd5761009e565b806325be124e146100a35780633a98ef39146100c15780635a76f25e146100df5780635c0b9a2b146100fd5780639c8f9f231461011b575b600080fd5b6100ab6101db565b6040516100b89190610e6f565b60405180910390f35b6100c9610201565b6040516100d69190610ea3565b60405180910390f35b6100e7610207565b6040516100f49190610ea3565b60405180910390f35b61010561020d565b6040516101129190610ea3565b60405180910390f35b61013560048036038101906101309190610eef565b610213565b005b610151600480360381019061014c9190610f1c565b610521565b005b61015b6108ea565b6040516101689190610ea3565b60405180910390f35b61018b60048036038101906101869190610f9a565b6108ef565b6040516101989190610ea3565b60405180910390f35b6101bb60048036038101906101b69190610fc7565b610907565b005b6101c5610d6f565b6040516101d29190610e6f565b60405180910390f35b600160009054906101000a900473ffffffffffffffffffffffffffffffffffffffff1681565b60045481565b60025481565b60035481565b600081118015610262575080600560003373ffffffffffffffffffffffffffffffffffffffff1673ffffffffffffffffffffffffffffffffffffffff1681526020019081526020016000205410155b6102a1576040517f08c379a000000000000000000000000000000000000000000000000000000000815260040161029890611064565b60405180910390fd5b6000600454600254836102b491906110b3565b6102be9190611124565b90506000600454600354846102d391906110b3565b6102dd9190611124565b905082600560003373ffffffffffffffffffffffffffffffffffffffff1673ffffffffffffffffffffffffffffffffffffffff168152602001908152602001600020600082825461032e9190611155565b9250508190555082600460008282546103479190611155565b9250508190555081600260008282546103609190611155565b9250508190555080600360008282546103799190611155565b9250508190555060008054906101000a900473ffffffffffffffffffffffffffffffffffffffff1673ffffffffffffffffffffffffffffffffffffffff1663a9059cbb33846040518363ffffffff1660e01b81526004016103db929190611198565b6020604051808303816000875af11580156103fa573d6000803e3d6000fd5b505050506040513d601f19601f8201168201806040525081019061041e91906111f9565b50600160009054906101000a900473ffffffffffffffffffffffffffffffffffffffff1673ffffffffffffffffffffffffffffffffffffffff1663a9059cbb33836040518363ffffffff1660e01b815260040161047c929190611198565b6020604051808303816000875af115801561049b573d6000803e3d6000fd5b505050506040513d601f19601f820116820180604052508101906104bf91906111f9565b503373ffffffffffffffffffffffffffffffffffffffff167f04f7e4f53152cb2cd0e424b2fc990199f0ed4255c7a97a848131f1eeff165f7b8383600254600354600454604051610514959493929190611226565b60405180910390a2505050565b6000821180156105315750600081115b610570576040517f08c379a0000000000000000000000000000000000000000000000000000000008152600401610567906112c5565b60405180910390fd5b6000600454036105d65761058e818361058991906110b3565b610d93565b600560003373ffffffffffffffffffffffffffffffffffffffff1673ffffffffffffffffffffffffffffffffffffffff1681526020019081526020016000208190555061067b565b6000600254600454846105e991906110b3565b6105f39190611124565b905060006003546004548461060891906110b3565b6106129190611124565b90508082106106215780610623565b815b600560003373ffffffffffffffffffffffffffffffffffffffff1673ffffffffffffffffffffffffffffffffffffffff168152602001908152602001600020600082825461067191906112e5565b9250508190555050505b600560003373ffffffffffffffffffffffffffffffffffffffff1673ffffffffffffffffffffffffffffffffffffffff16815260200190815260200160002054600460008282546106cc91906112e5565b9250508190555081600260008282546106e591906112e5565b9250508190555080600360008282546106fe91906112e5565b9250508190555060008054906101000a900473ffffffffffffffffffffffffffffffffffffffff1673ffffffffffffffffffffffffffffffffffffffff166323b872dd3330856040518463ffffffff1660e01b815260040161076293929190611319565b6020604051808303816000875af1158015610781573d6000803e3d6000fd5b505050506040513d601f19601f820116820180604052508101906107a591906111f9565b50600160009054906101000a900473ffffffffffffffffffffffffffffffffffffffff1673ffffffffffffffffffffffffffffffffffffffff166323b872dd3330846040518463ffffffff1660e01b815260040161080593929190611319565b6020604051808303816000875af1158015610824573d6000803e3d6000fd5b505050506040513d601f19601f8201168201806040525081019061084891906111f9565b503373ffffffffffffffffffffffffffffffffffffffff167fc7453e3ef562c31977302710e5ff58ae67ad8fa521dcdd8c76f877c4c0d913688383600560003373ffffffffffffffffffffffffffffffffffffffff1673ffffffffffffffffffffffffffffffffffffffff168152602001908152602001600020546002546003546004546040516108de96959493929190611350565b60405180910390a25050565b600381565b60056020528060005260406000206000915090505481565b6000811161094a576040517f08c379a0000000000000000000000000000000000000000000000000000000008152600401610941906113fd565b60405180910390fd5b60008060009054906101000a900473ffffffffffffffffffffffffffffffffffffffff1673ffffffffffffffffffffffffffffffffffffffff168373ffffffffffffffffffffffffffffffffffffffff1614905080806109f75750600160009054906101000a900473ffffffffffffffffffffffffffffffffffffffff1673ffffffffffffffffffffffffffffffffffffffff168373ffffffffffffffffffffffffffffffffffffffff16145b610a36576040517f08c379a0000000000000000000000000000000000000000000000000000000008152600401610a2d90611469565b60405180910390fd5b600081610a6557600160009054906101000a900473ffffffffffffffffffffffffffffffffffffffff16610a87565b60008054906101000a900473ffffffffffffffffffffffffffffffffffffffff165b9050600082610ab65760008054906101000a900473ffffffffffffffffffffffffffffffffffffffff16610ada565b600160009054906101000a900473ffffffffffffffffffffffffffffffffffffffff165b9050600083610aeb57600354610aef565b6002545b9050600084610b0057600254610b04565b6003545b905060006103e860036103e8610b1a9190611155565b88610b2591906110b3565b610b2f9190611124565b905060008184610b3f91906112e5565b8383610b4b91906110b3565b610b559190611124565b905060008111610b9a576040517f08c379a0000000000000000000000000000000000000000000000000000000008152600401610b91906114d5565b60405180910390fd5b8573ffffffffffffffffffffffffffffffffffffffff166323b872dd33308b6040518463ffffffff1660e01b8152600401610bd793929190611319565b6020604051808303816000875af1158015610bf6573d6000803e3d6000fd5b505050506040513d601f19601f82011682018060405250810190610c1a91906111f9565b508473ffffffffffffffffffffffffffffffffffffffff1663a9059cbb33836040518363ffffffff1660e01b8152600401610c56929190611198565b6020604051808303816000875af1158015610c75573d6000803e3d6000fd5b505050506040513d601f19601f82011682018060405250810190610c9991906111f9565b508615610cd7578760026000828254610cb291906112e5565b925050819055508060036000828254610ccb9190611155565b92505081905550610d0a565b8760036000828254610ce991906112e5565b925050819055508060026000828254610d029190611155565b925050819055505b3373ffffffffffffffffffffffffffffffffffffffff167fd8066379a11f110d1eb579110571ce47b1557c623d7ae29f423d92cd6dd953be8a8a84600254600354604051610d5c9594939291906114f5565b60405180910390a2505050505050505050565b60008054906101000a900473ffffffffffffffffffffffffffffffffffffffff1681565b6000806002600184610da591906112e5565b610daf9190611124565b90508291505b81811015610dea578091506002818285610dcf9190611124565b610dd991906112e5565b610de39190611124565b9050610db5565b50919050565b600073ffffffffffffffffffffffffffffffffffffffff82169050919050565b6000819050919050565b6000610e35610e30610e2b84610df0565b610e10565b610df0565b9050919050565b6000610e4782610e1a565b9050919050565b6000610e5982610e3c565b9050919050565b610e6981610e4e565b82525050565b6000602082019050610e846000830184610e60565b92915050565b6000819050919050565b610e9d81610e8a565b82525050565b6000602082019050610eb86000830184610e94565b92915050565b600080fd5b610ecc81610e8a565b8114610ed757600080fd5b50565b600081359050610ee981610ec3565b92915050565b600060208284031215610f0557610f04610ebe565b5b6000610f1384828501610eda565b91505092915050565b60008060408385031215610f3357610f32610ebe565b5b6000610f4185828601610eda565b9250506020610f5285828601610eda565b9150509250929050565b6000610f6782610df0565b9050919050565b610f7781610f5c565b8114610f8257600080fd5b50565b600081359050610f9481610f6e565b92915050565b600060208284031215610fb057610faf610ebe565b5b6000610fbe84828501610f85565b91505092915050565b60008060408385031215610fde57610fdd610ebe565b5b6000610fec85828601610f85565b9250506020610ffd85828601610eda565b9150509250929050565b600082825260208201905092915050565b7f496e76616c696420736861726500000000000000000000000000000000000000600082015250565b600061104e600d83611007565b915061105982611018565b602082019050919050565b6000602082019050818103600083015261107d81611041565b9050919050565b7f4e487b7100000000000000000000000000000000000000000000000000000000600052601160045260246000fd5b60006110be82610e8a565b91506110c983610e8a565b92508282026110d781610e8a565b915082820484148315176110ee576110ed611084565b5b5092915050565b7f4e487b7100000000000000000000000000000000000000000000000000000000600052601260045260246000fd5b600061112f82610e8a565b915061113a83610e8a565b92508261114a576111496110f5565b5b828204905092915050565b600061116082610e8a565b915061116b83610e8a565b925082820390508181111561118357611182611084565b5b92915050565b61119281610f5c565b82525050565b60006040820190506111ad6000830185611189565b6111ba6020830184610e94565b9392505050565b60008115159050919050565b6111d6816111c1565b81146111e157600080fd5b50565b6000815190506111f3816111cd565b92915050565b60006020828403121561120f5761120e610ebe565b5b600061121d848285016111e4565b91505092915050565b600060a08201905061123b6000830188610e94565b6112486020830187610e94565b6112556040830186610e94565b6112626060830185610e94565b61126f6080830184610e94565b9695505050505050565b7f496e76616c696420616d6f756e74730000000000000000000000000000000000600082015250565b60006112af600f83611007565b91506112ba82611279565b602082019050919050565b600060208201905081810360008301526112de816112a2565b9050919050565b60006112f082610e8a565b91506112fb83610e8a565b925082820190508082111561131357611312611084565b5b92915050565b600060608201905061132e6000830186611189565b61133b6020830185611189565b6113486040830184610e94565b949350505050565b600060c0820190506113656000830189610e94565b6113726020830188610e94565b61137f6040830187610e94565b61138c6060830186610e94565b6113996080830185610e94565b6113a660a0830184610e94565b979650505050505050565b7f496e76616c696420616d6f756e74000000000000000000000000000000000000600082015250565b60006113e7600e83611007565b91506113f2826113b1565b602082019050919050565b60006020820190508181036000830152611416816113da565b9050919050565b7f496e76616c696420746f6b656e00000000000000000000000000000000000000600082015250565b6000611453600d83611007565b915061145e8261141d565b602082019050919050565b6000602082019050818103600083015261148281611446565b9050919050565b7f496e73756666696369656e74206f757470757400000000000000000000000000600082015250565b60006114bf601383611007565b91506114ca82611489565b602082019050919050565b600060208201905081810360008301526114ee816114b2565b9050919050565b600060a08201905061150a6000830188611189565b6115176020830187610e94565b6115246040830186610e94565b6115316060830185610e94565b61153e6080830184610e94565b969550505050505056fea2646970667358221220556a30f4c37c3a180461678ebfcef29d8dab1102a3dd7c7d0dc7fc608379dcc364736f6c63430008140033",
  "linkReferences": {},
  "deployedLinkReferences": {}
}