{
  "_format": "hh-sol-artifact-1",
  "contractName": "LiquidityPool",
  "sourceName": "contracts/Liquidity.sol",
  "abi": [
    {
      "inputs": [
        {
          "internalType": "address",
          "name": "_token1",
          "type": "address"
        },
        {
          "internalType": "address",
          "name": "_token2",
          "type": "address"
        }
      ],
      "stateMutability": "nonpayable",
      "type": "constructor"
    },
    {
      "anonymous": false,
      "inputs": [
        {
          "indexed": true,
          "internalType": "address",
          "name": "provider",
          "type": "address"
        },
        {
          "indexed": false,
          "internalType": "uint256",
          "name": "amount1",
          "type": "uint256"
        },
        {
          "indexed": false,
          "internalType": "uint256",
          "name": "amount2",
          "type": "uint256"
        },
        {
          "indexed": false,
          "internalType": "uint256",
          "name": "shares",
          "type": "uint256"
        }
      ],
      "name": "LiquidityAdded",
      "type": "event"
    },
    {
      "anonymous": false,
      "inputs": [
        {
          "indexed": true,
          "internalType": "address",
          "name": "provider",
          "type": "address"
        },
        {
          "indexed": false,
          "internalType": "uint256",
          "name": "amount1",
          "type": "uint256"
        },
        {
          "indexed": false,
          "internalType": "uint256",
          "name": "amount2",
          "type": "uint256"
        },
        {
          "indexed": false,
          "internalType": "uint256",
          "name": "shares",
          "type": "uint256"
        }
      ],
      "name": "LiquidityRemoved",
      "type": "event"
    },
    {
      "inputs": [
        {
          "internalType": "uint256",
          "name": "amount1",
          "type": "uint256"
        },
        {
          "internalType": "uint256",
          "name": "amount2",
          "type": "uint256"
        }
      ],
      "name": "addLiquidity",
      "outputs": [
        {
          "internalType": "uint256",
          "name": "share",
          "type": "uint256"
        }
      ],
      "stateMutability": "nonpayable",
      "type": "function"
    },
    {
      "inputs": [],
      "name": "getReserves",
      "outputs": [
        {
          "internalType": "uint256",
          "name": "reserve1",
          "type": "uint256"
        },
        {
          "internalType": "uint256",
          "name": "reserve2",
          "type": "uint256"
        }
      ],
      "stateMutability": "view",
      "type": "function"
    },
    {
      "inputs": [
        {
          "internalType": "uint256",
          "name": "share",
          "type": "uint256"
        }
      ],
      "name": "removeLiquidity",
      "outputs": [
        {
          "internalType": "uint256",
          "name": "amount1",
          "type": "uint256"
        },
        {
          "internalType": "uint256",
          "name": "amount2",
          "type": "uint256"
        }
      ],
      "stateMutability": "nonpayable",
      "type": "function"
    },
    {
      "inputs": [
        {
          "internalType": "address",
          "name": "",
          "type": "address"
        }
      ],
      "name": "shares",
      "outputs": [
        {
          "internalType": "uint256",
          "name": "",
          "type": "uint256"
        }
      ],
      "stateMutability": "view",
      "type": "function"
    },
    {
      "inputs": [],
      "name": "token1",
      "outputs": [
        {
          "internalType": "contract IERC20",
          "name": "",
          "type": "address"
        }
      ],
      "stateMutability": "view",
      "type": "function"
    },
    {
      "inputs": [],
      "name": "token2",
      "outputs": [
        {
          "internalType": "contract IERC20",
          "name": "",
          "type": "address"
        }
      ],
      "stateMutability": "view",
      "type": "function"
    },
    {
      "inputs": [],
      "name": "totalShares",
      "outputs": [
        {
          "internalType": "uint256",
          "name": "",
          "type": "uint256"
        }
      ],
      "stateMutability": "view",
      "type": "function"
    }
  ],
  "bytecode": "0x60806040523480156200001157600080fd5b506040516200161e3803806200161e8339818101604052810190620000379190620001e0565b6001600081905550600073ffffffffffffffffffffffffffffffffffffffff168273ffffffffffffffffffffffffffffffffffffffff1614158015620000aa5750600073ffffffffffffffffffffffffffffffffffffffff168173ffffffffffffffffffffffffffffffffffffffff1614155b620000ec576040517f08c379a0000000000000000000000000000000000000000000000000000000008152600401620000e39062000288565b60405180910390fd5b81600160006101000a81548173ffffffffffffffffffffffffffffffffffffffff021916908373ffffffffffffffffffffffffffffffffffffffff16021790555080600260006101000a81548173ffffffffffffffffffffffffffffffffffffffff021916908373ffffffffffffffffffffffffffffffffffffffff1602179055505050620002aa565b600080fd5b600073ffffffffffffffffffffffffffffffffffffffff82169050919050565b6000620001a8826200017b565b9050919050565b620001ba816200019b565b8114620001c657600080fd5b50565b600081519050620001da81620001af565b92915050565b60008060408385031215620001fa57620001f962000176565b5b60006200020a85828601620001c9565b92505060206200021d85828601620001c9565b9150509250929050565b600082825260208201905092915050565b7f496e76616c696420746f6b656e20616464726573736573000000000000000000600082015250565b60006200027060178362000227565b91506200027d8262000238565b602082019050919050565b60006020820190508181036000830152620002a38162000261565b9050919050565b61136480620002ba6000396000f3fe608060405234801561001057600080fd5b506004361061007d5760003560e01c80639c8f9f231161005b5780639c8f9f23146100dd5780639cd441da1461010e578063ce7c2ac21461013e578063d21220a71461016e5761007d565b80630902f1ac1461008257806325be124e146100a15780633a98ef39146100bf575b600080fd5b61008a61018c565b604051610098929190610ba1565b60405180910390f35b6100a96102cf565b6040516100b69190610c49565b60405180910390f35b6100c76102f5565b6040516100d49190610c64565b60405180910390f35b6100f760048036038101906100f29190610cb0565b6102fb565b604051610105929190610ba1565b60405180910390f35b61012860048036038101906101239190610cdd565b6106b6565b6040516101359190610c64565b60405180910390f35b61015860048036038101906101539190610d5b565b610a5e565b6040516101659190610c64565b60405180910390f35b610176610a76565b6040516101839190610c49565b60405180910390f35b600080600160009054906101000a900473ffffffffffffffffffffffffffffffffffffffff1673ffffffffffffffffffffffffffffffffffffffff166370a08231306040518263ffffffff1660e01b81526004016101ea9190610d97565b602060405180830381865afa158015610207573d6000803e3d6000fd5b505050506040513d601f19601f8201168201806040525081019061022b9190610dc7565b9150600260009054906101000a900473ffffffffffffffffffffffffffffffffffffffff1673ffffffffffffffffffffffffffffffffffffffff166370a08231306040518263ffffffff1660e01b81526004016102889190610d97565b602060405180830381865afa1580156102a5573d6000803e3d6000fd5b505050506040513d601f19601f820116820180604052508101906102c99190610dc7565b90509091565b600260009054906101000a900473ffffffffffffffffffffffffffffffffffffffff1681565b60035481565b600080610306610a9c565b600083118015610355575082600460003373ffffffffffffffffffffffffffffffffffffffff1673ffffffffffffffffffffffffffffffffffffffff1681526020019081526020016000205410155b610394576040517f08c379a000000000000000000000000000000000000000000000000000000000815260040161038b90610e51565b60405180910390fd5b60008061039f61018c565b9150915060035482866103b29190610ea0565b6103bc9190610f11565b935060035481866103cd9190610ea0565b6103d79190610f11565b92506000841180156103e95750600083115b610428576040517f08c379a000000000000000000000000000000000000000000000000000000000815260040161041f90610f8e565b60405180910390fd5b84600460003373ffffffffffffffffffffffffffffffffffffffff1673ffffffffffffffffffffffffffffffffffffffff16815260200190815260200160002060008282546104779190610fae565b9250508190555084600360008282546104909190610fae565b92505081905550600160009054906101000a900473ffffffffffffffffffffffffffffffffffffffff1673ffffffffffffffffffffffffffffffffffffffff1663a9059cbb33866040518363ffffffff1660e01b81526004016104f4929190610fe2565b6020604051808303816000875af1158015610513573d6000803e3d6000fd5b505050506040513d601f19601f820116820180604052508101906105379190611043565b610576576040517f08c379a000000000000000000000000000000000000000000000000000000000815260040161056d906110bc565b60405180910390fd5b600260009054906101000a900473ffffffffffffffffffffffffffffffffffffffff1673ffffffffffffffffffffffffffffffffffffffff1663a9059cbb33856040518363ffffffff1660e01b81526004016105d3929190610fe2565b6020604051808303816000875af11580156105f2573d6000803e3d6000fd5b505050506040513d601f19601f820116820180604052508101906106169190611043565b610655576040517f08c379a000000000000000000000000000000000000000000000000000000000815260040161064c90611128565b60405180910390fd5b3373ffffffffffffffffffffffffffffffffffffffff167f1dc8bb69df2b8e91fbdcbfcf93d951b3f0000f085a95fe3f7946d6161439245d85858860405161069f93929190611148565b60405180910390a250506106b1610aeb565b915091565b60006106c0610a9c565b6000831180156106d05750600082115b61070f576040517f08c379a0000000000000000000000000000000000000000000000000000000008152600401610706906111cb565b60405180910390fd5b600160009054906101000a900473ffffffffffffffffffffffffffffffffffffffff1673ffffffffffffffffffffffffffffffffffffffff166323b872dd3330866040518463ffffffff1660e01b815260040161076e939291906111eb565b6020604051808303816000875af115801561078d573d6000803e3d6000fd5b505050506040513d601f19601f820116820180604052508101906107b19190611043565b6107f0576040517f08c379a00000000000000000000000000000000000000000000000000000000081526004016107e7906110bc565b60405180910390fd5b600260009054906101000a900473ffffffffffffffffffffffffffffffffffffffff1673ffffffffffffffffffffffffffffffffffffffff166323b872dd3330856040518463ffffffff1660e01b815260040161084f939291906111eb565b6020604051808303816000875af115801561086e573d6000803e3d6000fd5b505050506040513d601f19601f820116820180604052508101906108929190611043565b6108d1576040517f08c379a00000000000000000000000000000000000000000000000000000000081526004016108c890611128565b60405180910390fd5b600060035403610917576103e86108f283856108ed9190610ea0565b610af5565b6108fc9190610fae565b90506103e88161090c9190611222565b600381905550610965565b60008061092261018c565b9150915061096082600354876109389190610ea0565b6109429190610f11565b82600354876109519190610ea0565b61095b9190610f11565b610b6f565b925050505b600081116109a8576040517f08c379a000000000000000000000000000000000000000000000000000000000815260040161099f906112a2565b60405180910390fd5b80600460003373ffffffffffffffffffffffffffffffffffffffff1673ffffffffffffffffffffffffffffffffffffffff16815260200190815260200160002060008282546109f79190611222565b925050819055503373ffffffffffffffffffffffffffffffffffffffff167f64b83944e79c3ce8d4c297411de637c3e102d064677aac0c163976ebdcd6f50e848484604051610a4893929190611148565b60405180910390a2610a58610aeb565b92915050565b60046020528060005260406000206000915090505481565b600160009054906101000a900473ffffffffffffffffffffffffffffffffffffffff1681565b600260005403610ae1576040517f08c379a0000000000000000000000000000000000000000000000000000000008152600401610ad89061130e565b60405180910390fd5b6002600081905550565b6001600081905550565b60006003821115610b5c5781905060006001600284610b149190610f11565b610b1e9190611222565b90505b81811015610b56578091506002818285610b3b9190610f11565b610b459190611222565b610b4f9190610f11565b9050610b21565b50610b6a565b60008214610b6957600190505b5b919050565b6000818310610b7e5781610b80565b825b905092915050565b6000819050919050565b610b9b81610b88565b82525050565b6000604082019050610bb66000830185610b92565b610bc36020830184610b92565b9392505050565b600073ffffffffffffffffffffffffffffffffffffffff82169050919050565b6000819050919050565b6000610c0f610c0a610c0584610bca565b610bea565b610bca565b9050919050565b6000610c2182610bf4565b9050919050565b6000610c3382610c16565b9050919050565b610c4381610c28565b82525050565b6000602082019050610c5e6000830184610c3a565b92915050565b6000602082019050610c796000830184610b92565b92915050565b600080fd5b610c8d81610b88565b8114610c9857600080fd5b50565b600081359050610caa81610c84565b92915050565b600060208284031215610cc657610cc5610c7f565b5b6000610cd484828501610c9b565b91505092915050565b60008060408385031215610cf457610cf3610c7f565b5b6000610d0285828601610c9b565b9250506020610d1385828601610c9b565b9150509250929050565b6000610d2882610bca565b9050919050565b610d3881610d1d565b8114610d4357600080fd5b50565b600081359050610d5581610d2f565b92915050565b600060208284031215610d7157610d70610c7f565b5b6000610d7f84828501610d46565b91505092915050565b610d9181610d1d565b82525050565b6000602082019050610dac6000830184610d88565b92915050565b600081519050610dc181610c84565b92915050565b600060208284031215610ddd57610ddc610c7f565b5b6000610deb84828501610db2565b91505092915050565b600082825260208201905092915050565b7f496e73756666696369656e742073686172657300000000000000000000000000600082015250565b6000610e3b601383610df4565b9150610e4682610e05565b602082019050919050565b60006020820190508181036000830152610e6a81610e2e565b9050919050565b7f4e487b7100000000000000000000000000000000000000000000000000000000600052601160045260246000fd5b6000610eab82610b88565b9150610eb683610b88565b9250828202610ec481610b88565b91508282048414831517610edb57610eda610e71565b5b5092915050565b7f4e487b7100000000000000000000000000000000000000000000000000000000600052601260045260246000fd5b6000610f1c82610b88565b9150610f2783610b88565b925082610f3757610f36610ee2565b5b828204905092915050565b7f496e73756666696369656e74206c6971756964697479206275726e6564000000600082015250565b6000610f78601d83610df4565b9150610f8382610f42565b602082019050919050565b60006020820190508181036000830152610fa781610f6b565b9050919050565b6000610fb982610b88565b9150610fc483610b88565b9250828203905081811115610fdc57610fdb610e71565b5b92915050565b6000604082019050610ff76000830185610d88565b6110046020830184610b92565b9392505050565b60008115159050919050565b6110208161100b565b811461102b57600080fd5b50565b60008151905061103d81611017565b92915050565b60006020828403121561105957611058610c7f565b5b60006110678482850161102e565b91505092915050565b7f5472616e73666572206f6620746f6b656e31206661696c656400000000000000600082015250565b60006110a6601983610df4565b91506110b182611070565b602082019050919050565b600060208201905081810360008301526110d581611099565b9050919050565b7f5472616e73666572206f6620746f6b656e32206661696c656400000000000000600082015250565b6000611112601983610df4565b915061111d826110dc565b602082019050919050565b6000602082019050818103600083015261114181611105565b9050919050565b600060608201905061115d6000830186610b92565b61116a6020830185610b92565b6111776040830184610b92565b949350505050565b7f416d6f756e7473206d7573742062652067726561746572207468616e20300000600082015250565b60006111b5601e83610df4565b91506111c08261117f565b602082019050919050565b600060208201905081810360008301526111e4816111a8565b9050919050565b60006060820190506112006000830186610d88565b61120d6020830185610d88565b61121a6040830184610b92565b949350505050565b600061122d82610b88565b915061123883610b88565b92508282019050808211156112505761124f610e71565b5b92915050565b7f496e73756666696369656e74206c6971756964697479206d696e746564000000600082015250565b600061128c601d83610df4565b915061129782611256565b602082019050919050565b600060208201905081810360008301526112bb8161127f565b9050919050565b7f5265656e7472616e637947756172643a207265656e7472616e742063616c6c00600082015250565b60006112f8601f83610df4565b9150611303826112c2565b602082019050919050565b60006020820190508181036000830152611327816112eb565b905091905056fea264697066735822122031861ff7171d54ced2b8a53b728d012a3644b0a6371b6a3706a1898c7076737464736f6c63430008140033",
  "linkReferences": {},
  "deployedLinkReferences": {}
}