{
  "_format": "hh-sol-artifact-1",
  "contractName": "TokenSwap",
  "sourceName": "contracts/Swap.sol",
  "abi": [
    {
      "inputs": [
        {
          "internalType": "address",
          "name": "_tokena",
          "type": "address"
        },
        {
          "internalType": "address",
          "name": "_tokenb",
          "type": "address"
        }
      ],
      "stateMutability": "nonpayable",
      "type": "constructor"
    },
    {
      "anonymous": false,
      "inputs": [
        {
          "indexed": true,
          "internalType": "address",
          "name": "user",
          "type": "address"
        },
        {
          "indexed": false,
          "internalType": "uint256",
          "name": "amountIn",
          "type": "uint256"
        },
        {
          "indexed": false,
          "internalType": "uint256",
          "name": "amountOut",
          "type": "uint256"
        },
        {
          "indexed": false,
          "internalType": "bool",
          "name": "tokenaToTokenB",
          "type": "bool"
        }
      ],
      "name": "Swap",
      "type": "event"
    },
    {
      "inputs": [],
      "name": "getReserves",
      "outputs": [
        {
          "internalType": "uint256",
          "name": "reserve1",
          "type": "uint256"
        },
        {
          "internalType": "uint256",
          "name": "reserve2",
          "type": "uint256"
        }
      ],
      "stateMutability": "view",
      "type": "function"
    },
    {
      "inputs": [
        {
          "internalType": "uint256",
          "name": "amountIn",
          "type": "uint256"
        },
        {
          "internalType": "bool",
          "name": "tokenaToTokenB",
          "type": "bool"
        }
      ],
      "name": "swap",
      "outputs": [
        {
          "internalType": "uint256",
          "name": "amountOut",
          "type": "uint256"
        }
      ],
      "stateMutability": "nonpayable",
      "type": "function"
    },
    {
      "inputs": [],
      "name": "tokena",
      "outputs": [
        {
          "internalType": "contract IERC20",
          "name": "",
          "type": "address"
        }
      ],
      "stateMutability": "view",
      "type": "function"
    },
    {
      "inputs": [],
      "name": "tokenb",
      "outputs": [
        {
          "internalType": "contract IERC20",
          "name": "",
          "type": "address"
        }
      ],
      "stateMutability": "view",
      "type": "function"
    }
  ],
  "bytecode": "0x60806040523480156200001157600080fd5b5060405162001052380380620010528339818101604052810190620000379190620001e0565b6001600081905550600073ffffffffffffffffffffffffffffffffffffffff168273ffffffffffffffffffffffffffffffffffffffff1614158015620000aa5750600073ffffffffffffffffffffffffffffffffffffffff168173ffffffffffffffffffffffffffffffffffffffff1614155b620000ec576040517f08c379a0000000000000000000000000000000000000000000000000000000008152600401620000e39062000288565b60405180910390fd5b81600160006101000a81548173ffffffffffffffffffffffffffffffffffffffff021916908373ffffffffffffffffffffffffffffffffffffffff16021790555080600260006101000a81548173ffffffffffffffffffffffffffffffffffffffff021916908373ffffffffffffffffffffffffffffffffffffffff1602179055505050620002aa565b600080fd5b600073ffffffffffffffffffffffffffffffffffffffff82169050919050565b6000620001a8826200017b565b9050919050565b620001ba816200019b565b8114620001c657600080fd5b50565b600081519050620001da81620001af565b92915050565b60008060408385031215620001fa57620001f962000176565b5b60006200020a85828601620001c9565b92505060206200021d85828601620001c9565b9150509250929050565b600082825260208201905092915050565b7f496e76616c696420746f6b656e20616464726573736573000000000000000000600082015250565b60006200027060178362000227565b91506200027d8262000238565b602082019050919050565b60006020820190508181036000830152620002a38162000261565b9050919050565b610d9880620002ba6000396000f3fe608060405234801561001057600080fd5b506004361061004c5760003560e01c80630902f1ac146100515780632aea6605146100705780634ecef7ed146100a0578063c747294f146100be575b600080fd5b6100596100dc565b6040516100679291906107af565b60405180910390f35b61008a60048036038101906100859190610841565b61021f565b6040516100979190610881565b60405180910390f35b6100a86106f1565b6040516100b5919061091b565b60405180910390f35b6100c6610717565b6040516100d3919061091b565b60405180910390f35b600080600160009054906101000a900473ffffffffffffffffffffffffffffffffffffffff1673ffffffffffffffffffffffffffffffffffffffff166370a08231306040518263ffffffff1660e01b815260040161013a9190610957565b602060405180830381865afa158015610157573d6000803e3d6000fd5b505050506040513d601f19601f8201168201806040525081019061017b9190610987565b9150600260009054906101000a900473ffffffffffffffffffffffffffffffffffffffff1673ffffffffffffffffffffffffffffffffffffffff166370a08231306040518263ffffffff1660e01b81526004016101d89190610957565b602060405180830381865afa1580156101f5573d6000803e3d6000fd5b505050506040513d601f19601f820116820180604052508101906102199190610987565b90509091565b600061022961073d565b6000831161026c576040517f08c379a000000000000000000000000000000000000000000000000000000000815260040161026390610a11565b60405180910390fd5b6000806102776100dc565b91509150831561048a57600160009054906101000a900473ffffffffffffffffffffffffffffffffffffffff1673ffffffffffffffffffffffffffffffffffffffff166323b872dd3330886040518463ffffffff1660e01b81526004016102e093929190610a31565b6020604051808303816000875af11580156102ff573d6000803e3d6000fd5b505050506040513d601f19601f820116820180604052508101906103239190610a7d565b610362576040517f08c379a000000000000000000000000000000000000000000000000000000000815260040161035990610af6565b60405180910390fd5b60006103e5866103729190610b45565b9050806103e8846103839190610b45565b61038d9190610b87565b82826103999190610b45565b6103a39190610bea565b9350600260009054906101000a900473ffffffffffffffffffffffffffffffffffffffff1673ffffffffffffffffffffffffffffffffffffffff1663a9059cbb33866040518363ffffffff1660e01b8152600401610402929190610c1b565b6020604051808303816000875af1158015610421573d6000803e3d6000fd5b505050506040513d601f19601f820116820180604052508101906104459190610a7d565b610484576040517f08c379a000000000000000000000000000000000000000000000000000000000815260040161047b90610c90565b60405180910390fd5b5061068f565b600260009054906101000a900473ffffffffffffffffffffffffffffffffffffffff1673ffffffffffffffffffffffffffffffffffffffff166323b872dd3330886040518463ffffffff1660e01b81526004016104e993929190610a31565b6020604051808303816000875af1158015610508573d6000803e3d6000fd5b505050506040513d601f19601f8201168201806040525081019061052c9190610a7d565b61056b576040517f08c379a000000000000000000000000000000000000000000000000000000000815260040161056290610c90565b60405180910390fd5b60006103e58661057b9190610b45565b9050806103e88361058c9190610b45565b6105969190610b87565b83826105a29190610b45565b6105ac9190610bea565b9350600160009054906101000a900473ffffffffffffffffffffffffffffffffffffffff1673ffffffffffffffffffffffffffffffffffffffff1663a9059cbb33866040518363ffffffff1660e01b815260040161060b929190610c1b565b6020604051808303816000875af115801561062a573d6000803e3d6000fd5b505050506040513d601f19601f8201168201806040525081019061064e9190610a7d565b61068d576040517f08c379a000000000000000000000000000000000000000000000000000000000815260040161068490610af6565b60405180910390fd5b505b3373ffffffffffffffffffffffffffffffffffffffff167fcc65e4d9060ece2ecf63011ac580550b04c8daeba63fac4dfe8669353cd888598685876040516106d993929190610cbf565b60405180910390a250506106eb61078c565b92915050565b600260009054906101000a900473ffffffffffffffffffffffffffffffffffffffff1681565b600160009054906101000a900473ffffffffffffffffffffffffffffffffffffffff1681565b600260005403610782576040517f08c379a000000000000000000000000000000000000000000000000000000000815260040161077990610d42565b60405180910390fd5b6002600081905550565b6001600081905550565b6000819050919050565b6107a981610796565b82525050565b60006040820190506107c460008301856107a0565b6107d160208301846107a0565b9392505050565b600080fd5b6107e681610796565b81146107f157600080fd5b50565b600081359050610803816107dd565b92915050565b60008115159050919050565b61081e81610809565b811461082957600080fd5b50565b60008135905061083b81610815565b92915050565b60008060408385031215610858576108576107d8565b5b6000610866858286016107f4565b92505060206108778582860161082c565b9150509250929050565b600060208201905061089660008301846107a0565b92915050565b600073ffffffffffffffffffffffffffffffffffffffff82169050919050565b6000819050919050565b60006108e16108dc6108d78461089c565b6108bc565b61089c565b9050919050565b60006108f3826108c6565b9050919050565b6000610905826108e8565b9050919050565b610915816108fa565b82525050565b6000602082019050610930600083018461090c565b92915050565b60006109418261089c565b9050919050565b61095181610936565b82525050565b600060208201905061096c6000830184610948565b92915050565b600081519050610981816107dd565b92915050565b60006020828403121561099d5761099c6107d8565b5b60006109ab84828501610972565b91505092915050565b600082825260208201905092915050565b7f416d6f756e74206d7573742062652067726561746572207468616e2030000000600082015250565b60006109fb601d836109b4565b9150610a06826109c5565b602082019050919050565b60006020820190508181036000830152610a2a816109ee565b9050919050565b6000606082019050610a466000830186610948565b610a536020830185610948565b610a6060408301846107a0565b949350505050565b600081519050610a7781610815565b92915050565b600060208284031215610a9357610a926107d8565b5b6000610aa184828501610a68565b91505092915050565b7f5472616e73666572206f6620746f6b656e61206661696c656400000000000000600082015250565b6000610ae06019836109b4565b9150610aeb82610aaa565b602082019050919050565b60006020820190508181036000830152610b0f81610ad3565b9050919050565b7f4e487b7100000000000000000000000000000000000000000000000000000000600052601160045260246000fd5b6000610b5082610796565b9150610b5b83610796565b9250828202610b6981610796565b91508282048414831517610b8057610b7f610b16565b5b5092915050565b6000610b9282610796565b9150610b9d83610796565b9250828201905080821115610bb557610bb4610b16565b5b92915050565b7f4e487b7100000000000000000000000000000000000000000000000000000000600052601260045260246000fd5b6000610bf582610796565b9150610c0083610796565b925082610c1057610c0f610bbb565b5b828204905092915050565b6000604082019050610c306000830185610948565b610c3d60208301846107a0565b9392505050565b7f5472616e73666572206f6620746f6b656e62206661696c656400000000000000600082015250565b6000610c7a6019836109b4565b9150610c8582610c44565b602082019050919050565b60006020820190508181036000830152610ca981610c6d565b9050919050565b610cb981610809565b82525050565b6000606082019050610cd460008301866107a0565b610ce160208301856107a0565b610cee6040830184610cb0565b949350505050565b7f5265656e7472616e637947756172643a207265656e7472616e742063616c6c00600082015250565b6000610d2c601f836109b4565b9150610d3782610cf6565b602082019050919050565b60006020820190508181036000830152610d5b81610d1f565b905091905056fea2646970667358221220b56ab43f34f59c04b8ffae0c7dffe2d117cf6d3d009f24892698f60dbabcfbcb64736f6c63430008140033",
  "linkReferences": {},
  "deployedLinkReferences": {}
}