{
    "_format": "hh-sol-artifact-1",
    "contractName": "LiquidityPool",
    "sourceName": "contracts/LiquiditySwap.sol",
    "abi": [
        {
            "inputs": [
                {
                    "internalType": "address",
                    "name": "_token1",
                    "type": "address"
                },
                {
                    "internalType": "address",
                    "name": "_token2",
                    "type": "address"
                }
            ],
            "stateMutability": "nonpayable",
            "type": "constructor"
        },
        {
            "anonymous": false,
            "inputs": [
                {
                    "indexed": true,
                    "internalType": "address",
                    "name": "provider",
                    "type": "address"
                },
                {
                    "indexed": false,
                    "internalType": "uint256",
                    "name": "amount1",
                    "type": "uint256"
                },
                {
                    "indexed": false,
                    "internalType": "uint256",
                    "name": "amount2",
                    "type": "uint256"
                },
                {
                    "indexed": false,
                    "internalType": "uint256",
                    "name": "shares",
                    "type": "uint256"
                }
            ],
            "name": "LiquidityAdded",
            "type": "event"
        },
        {
            "anonymous": false,
            "inputs": [
                {
                    "indexed": true,
                    "internalType": "address",
                    "name": "provider",
                    "type": "address"
                },
                {
                    "indexed": false,
                    "internalType": "uint256",
                    "name": "amount1",
                    "type": "uint256"
                },
                {
                    "indexed": false,
                    "internalType": "uint256",
                    "name": "amount2",
                    "type": "uint256"
                },
                {
                    "indexed": false,
                    "internalType": "uint256",
                    "name": "shares",
                    "type": "uint256"
                }
            ],
            "name": "LiquidityRemoved",
            "type": "event"
        },
        {
            "anonymous": false,
            "inputs": [
                {
                    "indexed": true,
                    "internalType": "address",
                    "name": "user",
                    "type": "address"
                },
                {
                    "indexed": false,
                    "internalType": "uint256",
                    "name": "amountIn",
                    "type": "uint256"
                },
                {
                    "indexed": false,
                    "internalType": "uint256",
                    "name": "amountOut",
                    "type": "uint256"
                },
                {
                    "indexed": false,
                    "internalType": "bool",
                    "name": "token1ToToken2",
                    "type": "bool"
                }
            ],
            "name": "Swap",
            "type": "event"
        },
        {
            "inputs": [
                {
                    "internalType": "uint256",
                    "name": "amount1",
                    "type": "uint256"
                },
                {
                    "internalType": "uint256",
                    "name": "amount2",
                    "type": "uint256"
                }
            ],
            "name": "addLiquidity",
            "outputs": [
                {
                    "internalType": "uint256",
                    "name": "share",
                    "type": "uint256"
                }
            ],
            "stateMutability": "nonpayable",
            "type": "function"
        },
        {
            "inputs": [
                {
                    "internalType": "uint256",
                    "name": "amountIn",
                    "type": "uint256"
                },
                {
                    "internalType": "uint256",
                    "name": "reserveIn",
                    "type": "uint256"
                },
                {
                    "internalType": "uint256",
                    "name": "reserveOut",
                    "type": "uint256"
                }
            ],
            "name": "getAmountOut",
            "outputs": [
                {
                    "internalType": "uint256",
                    "name": "",
                    "type": "uint256"
                }
            ],
            "stateMutability": "pure",
            "type": "function"
        },
        {
            "inputs": [],
            "name": "getReserves",
            "outputs": [
                {
                    "internalType": "uint256",
                    "name": "reserve1",
                    "type": "uint256"
                },
                {
                    "internalType": "uint256",
                    "name": "reserve2",
                    "type": "uint256"
                }
            ],
            "stateMutability": "view",
            "type": "function"
        },
        {
            "inputs": [
                {
                    "internalType": "uint256",
                    "name": "share",
                    "type": "uint256"
                }
            ],
            "name": "removeLiquidity",
            "outputs": [
                {
                    "internalType": "uint256",
                    "name": "amount1",
                    "type": "uint256"
                },
                {
                    "internalType": "uint256",
                    "name": "amount2",
                    "type": "uint256"
                }
            ],
            "stateMutability": "nonpayable",
            "type": "function"
        },
        {
            "inputs": [
                {
                    "internalType": "address",
                    "name": "",
                    "type": "address"
                }
            ],
            "name": "shares",
            "outputs": [
                {
                    "internalType": "uint256",
                    "name": "",
                    "type": "uint256"
                }
            ],
            "stateMutability": "view",
            "type": "function"
        },
        {
            "inputs": [
                {
                    "internalType": "uint256",
                    "name": "amountIn",
                    "type": "uint256"
                },
                {
                    "internalType": "bool",
                    "name": "token1ToToken2",
                    "type": "bool"
                }
            ],
            "name": "swap",
            "outputs": [],
            "stateMutability": "nonpayable",
            "type": "function"
        },
        {
            "inputs": [],
            "name": "token1",
            "outputs": [
                {
                    "internalType": "contract IERC20",
                    "name": "",
                    "type": "address"
                }
            ],
            "stateMutability": "view",
            "type": "function"
        },
        {
            "inputs": [],
            "name": "token2",
            "outputs": [
                {
                    "internalType": "contract IERC20",
                    "name": "",
                    "type": "address"
                }
            ],
            "stateMutability": "view",
            "type": "function"
        },
        {
            "inputs": [],
            "name": "totalShares",
            "outputs": [
                {
                    "internalType": "uint256",
                    "name": "",
                    "type": "uint256"
                }
            ],
            "stateMutability": "view",
            "type": "function"
        }
    ],
    "bytecode": "0x60806040523480156200001157600080fd5b5060405162001c5738038062001c578339818101604052810190620000379190620001e0565b6001600081905550600073ffffffffffffffffffffffffffffffffffffffff168273ffffffffffffffffffffffffffffffffffffffff1614158015620000aa5750600073ffffffffffffffffffffffffffffffffffffffff168173ffffffffffffffffffffffffffffffffffffffff1614155b620000ec576040517f08c379a0000000000000000000000000000000000000000000000000000000008152600401620000e39062000288565b60405180910390fd5b81600160006101000a81548173ffffffffffffffffffffffffffffffffffffffff021916908373ffffffffffffffffffffffffffffffffffffffff16021790555080600260006101000a81548173ffffffffffffffffffffffffffffffffffffffff021916908373ffffffffffffffffffffffffffffffffffffffff1602179055505050620002aa565b600080fd5b600073ffffffffffffffffffffffffffffffffffffffff82169050919050565b6000620001a8826200017b565b9050919050565b620001ba816200019b565b8114620001c657600080fd5b50565b600081519050620001da81620001af565b92915050565b60008060408385031215620001fa57620001f962000176565b5b60006200020a85828601620001c9565b92505060206200021d85828601620001c9565b9150509250929050565b600082825260208201905092915050565b7f496e76616c696420746f6b656e20616464726573736573000000000000000000600082015250565b60006200027060178362000227565b91506200027d8262000238565b602082019050919050565b60006020820190508181036000830152620002a38162000261565b9050919050565b61199d80620002ba6000396000f3fe608060405234801561001057600080fd5b50600436106100935760003560e01c80633a98ef39116100665780633a98ef39146101215780639c8f9f231461013f5780639cd441da14610170578063ce7c2ac2146101a0578063d21220a7146101d057610093565b8063054d50d4146100985780630902f1ac146100c857806325be124e146100e75780632aea660514610105575b600080fd5b6100b260048036038101906100ad91906111e6565b6101ee565b6040516100bf9190611248565b60405180910390f35b6100d0610246565b6040516100de929190611263565b60405180910390f35b6100ef610389565b6040516100fc919061130b565b60405180910390f35b61011f600480360381019061011a919061135e565b6103af565b005b61012961087f565b6040516101369190611248565b60405180910390f35b6101596004803603810190610154919061139e565b610885565b604051610167929190611263565b60405180910390f35b61018a600480360381019061018591906113cb565b610c8e565b6040516101979190611248565b60405180910390f35b6101ba60048036038101906101b59190611449565b6110a5565b6040516101c79190611248565b60405180910390f35b6101d86110bd565b6040516101e5919061130b565b60405180910390f35b6000806103e5856101ff91906114a5565b90506000838261020f91906114a5565b90506000826103e88761022291906114a5565b61022c91906114e7565b9050808261023a919061154a565b93505050509392505050565b600080600160009054906101000a900473ffffffffffffffffffffffffffffffffffffffff1673ffffffffffffffffffffffffffffffffffffffff166370a08231306040518263ffffffff1660e01b81526004016102a4919061158a565b602060405180830381865afa1580156102c1573d6000803e3d6000fd5b505050506040513d601f19601f820116820180604052508101906102e591906115ba565b9150600260009054906101000a900473ffffffffffffffffffffffffffffffffffffffff1673ffffffffffffffffffffffffffffffffffffffff166370a08231306040518263ffffffff1660e01b8152600401610342919061158a565b602060405180830381865afa15801561035f573d6000803e3d6000fd5b505050506040513d601f19601f8201168201806040525081019061038391906115ba565b90509091565b600260009054906101000a900473ffffffffffffffffffffffffffffffffffffffff1681565b6103b76110e3565b600082116103fa576040517f08c379a00000000000000000000000000000000000000000000000000000000081526004016103f190611644565b60405180910390fd5b600080610405610246565b809250819350505082156106445781841115610456576040517f08c379a000000000000000000000000000000000000000000000000000000000815260040161044d906116b0565b60405180910390fd5b60006104638584846101ee565b9050818111156104a8576040517f08c379a000000000000000000000000000000000000000000000000000000000815260040161049f906116b0565b60405180910390fd5b600160009054906101000a900473ffffffffffffffffffffffffffffffffffffffff1673ffffffffffffffffffffffffffffffffffffffff166323b872dd3330886040518463ffffffff1660e01b8152600401610507939291906116d0565b6020604051808303816000875af1158015610526573d6000803e3d6000fd5b505050506040513d601f19601f8201168201806040525081019061054a919061171c565b50600260009054906101000a900473ffffffffffffffffffffffffffffffffffffffff1673ffffffffffffffffffffffffffffffffffffffff1663a9059cbb33836040518363ffffffff1660e01b81526004016105a8929190611749565b6020604051808303816000875af11580156105c7573d6000803e3d6000fd5b505050506040513d601f19601f820116820180604052508101906105eb919061171c565b503373ffffffffffffffffffffffffffffffffffffffff167fcc65e4d9060ece2ecf63011ac580550b04c8daeba63fac4dfe8669353cd8885986838760405161063693929190611781565b60405180910390a250610871565b80841115610687576040517f08c379a000000000000000000000000000000000000000000000000000000000815260040161067e906116b0565b60405180910390fd5b60006106948583856101ee565b9050828111156106d9576040517f08c379a00000000000000000000000000000000000000000000000000000000081526004016106d0906116b0565b60405180910390fd5b600260009054906101000a900473ffffffffffffffffffffffffffffffffffffffff1673ffffffffffffffffffffffffffffffffffffffff166323b872dd3330886040518463ffffffff1660e01b8152600401610738939291906116d0565b6020604051808303816000875af1158015610757573d6000803e3d6000fd5b505050506040513d601f19601f8201168201806040525081019061077b919061171c565b50600160009054906101000a900473ffffffffffffffffffffffffffffffffffffffff1673ffffffffffffffffffffffffffffffffffffffff1663a9059cbb33836040518363ffffffff1660e01b81526004016107d9929190611749565b6020604051808303816000875af11580156107f8573d6000803e3d6000fd5b505050506040513d601f19601f8201168201806040525081019061081c919061171c565b503373ffffffffffffffffffffffffffffffffffffffff167fcc65e4d9060ece2ecf63011ac580550b04c8daeba63fac4dfe8669353cd8885986838760405161086793929190611781565b60405180910390a2505b505061087b611132565b5050565b60035481565b6000806108906110e3565b82600460003373ffffffffffffffffffffffffffffffffffffffff1673ffffffffffffffffffffffffffffffffffffffff168152602001908152602001600020541015610912576040517f08c379a000000000000000000000000000000000000000000000000000000000815260040161090990611804565b60405180910390fd5b60035483600160009054906101000a900473ffffffffffffffffffffffffffffffffffffffff1673ffffffffffffffffffffffffffffffffffffffff166370a08231306040518263ffffffff1660e01b8152600401610971919061158a565b602060405180830381865afa15801561098e573d6000803e3d6000fd5b505050506040513d601f19601f820116820180604052508101906109b291906115ba565b6109bc91906114a5565b6109c6919061154a565b915060035483600260009054906101000a900473ffffffffffffffffffffffffffffffffffffffff1673ffffffffffffffffffffffffffffffffffffffff166370a08231306040518263ffffffff1660e01b8152600401610a27919061158a565b602060405180830381865afa158015610a44573d6000803e3d6000fd5b505050506040513d601f19601f82011682018060405250810190610a6891906115ba565b610a7291906114a5565b610a7c919061154a565b905082600460003373ffffffffffffffffffffffffffffffffffffffff1673ffffffffffffffffffffffffffffffffffffffff1681526020019081526020016000206000828254610acd9190611824565b925050819055508260036000828254610ae69190611824565b92505081905550600160009054906101000a900473ffffffffffffffffffffffffffffffffffffffff1673ffffffffffffffffffffffffffffffffffffffff1663a9059cbb33846040518363ffffffff1660e01b8152600401610b4a929190611749565b6020604051808303816000875af1158015610b69573d6000803e3d6000fd5b505050506040513d601f19601f82011682018060405250810190610b8d919061171c565b50600260009054906101000a900473ffffffffffffffffffffffffffffffffffffffff1673ffffffffffffffffffffffffffffffffffffffff1663a9059cbb33836040518363ffffffff1660e01b8152600401610beb929190611749565b6020604051808303816000875af1158015610c0a573d6000803e3d6000fd5b505050506040513d601f19601f82011682018060405250810190610c2e919061171c565b503373ffffffffffffffffffffffffffffffffffffffff167f1dc8bb69df2b8e91fbdcbfcf93d951b3f0000f085a95fe3f7946d6161439245d838386604051610c7993929190611858565b60405180910390a2610c89611132565b915091565b6000610c986110e3565b600083118015610ca85750600082115b610ce7576040517f08c379a0000000000000000000000000000000000000000000000000000000008152600401610cde906118db565b60405180910390fd5b600160009054906101000a900473ffffffffffffffffffffffffffffffffffffffff1673ffffffffffffffffffffffffffffffffffffffff166323b872dd3330866040518463ffffffff1660e01b8152600401610d46939291906116d0565b6020604051808303816000875af1158015610d65573d6000803e3d6000fd5b505050506040513d601f19601f82011682018060405250810190610d89919061171c565b50600260009054906101000a900473ffffffffffffffffffffffffffffffffffffffff1673ffffffffffffffffffffffffffffffffffffffff166323b872dd3330856040518463ffffffff1660e01b8152600401610de9939291906116d0565b6020604051808303816000875af1158015610e08573d6000803e3d6000fd5b505050506040513d601f19601f82011682018060405250810190610e2c919061171c565b50600060035403610e5257610e4b8284610e4691906114a5565b61113c565b9050610fd6565b6000600160009054906101000a900473ffffffffffffffffffffffffffffffffffffffff1673ffffffffffffffffffffffffffffffffffffffff166370a08231306040518263ffffffff1660e01b8152600401610eaf919061158a565b602060405180830381865afa158015610ecc573d6000803e3d6000fd5b505050506040513d601f19601f82011682018060405250810190610ef091906115ba565b60035485610efe91906114a5565b610f08919061154a565b90506000600260009054906101000a900473ffffffffffffffffffffffffffffffffffffffff1673ffffffffffffffffffffffffffffffffffffffff166370a08231306040518263ffffffff1660e01b8152600401610f67919061158a565b602060405180830381865afa158015610f84573d6000803e3d6000fd5b505050506040513d601f19601f82011682018060405250810190610fa891906115ba565b60035485610fb691906114a5565b610fc0919061154a565b9050808210610fcf5780610fd1565b815b925050505b8060036000828254610fe891906114e7565b9250508190555080600460003373ffffffffffffffffffffffffffffffffffffffff1673ffffffffffffffffffffffffffffffffffffffff168152602001908152602001600020600082825461103e91906114e7565b925050819055503373ffffffffffffffffffffffffffffffffffffffff167f64b83944e79c3ce8d4c297411de637c3e102d064677aac0c163976ebdcd6f50e84848460405161108f93929190611858565b60405180910390a261109f611132565b92915050565b60046020528060005260406000206000915090505481565b600160009054906101000a900473ffffffffffffffffffffffffffffffffffffffff1681565b600260005403611128576040517f08c379a000000000000000000000000000000000000000000000000000000000815260040161111f90611947565b60405180910390fd5b6002600081905550565b6001600081905550565b600080820361114e57600090506111a6565b8190506000600260018461116291906114e7565b61116c919061154a565b90505b818110156111a4578091506002818285611189919061154a565b61119391906114e7565b61119d919061154a565b905061116f565b505b919050565b600080fd5b6000819050919050565b6111c3816111b0565b81146111ce57600080fd5b50565b6000813590506111e0816111ba565b92915050565b6000806000606084860312156111ff576111fe6111ab565b5b600061120d868287016111d1565b935050602061121e868287016111d1565b925050604061122f868287016111d1565b9150509250925092565b611242816111b0565b82525050565b600060208201905061125d6000830184611239565b92915050565b60006040820190506112786000830185611239565b6112856020830184611239565b9392505050565b600073ffffffffffffffffffffffffffffffffffffffff82169050919050565b6000819050919050565b60006112d16112cc6112c78461128c565b6112ac565b61128c565b9050919050565b60006112e3826112b6565b9050919050565b60006112f5826112d8565b9050919050565b611305816112ea565b82525050565b600060208201905061132060008301846112fc565b92915050565b60008115159050919050565b61133b81611326565b811461134657600080fd5b50565b60008135905061135881611332565b92915050565b60008060408385031215611375576113746111ab565b5b6000611383858286016111d1565b925050602061139485828601611349565b9150509250929050565b6000602082840312156113b4576113b36111ab565b5b60006113c2848285016111d1565b91505092915050565b600080604083850312156113e2576113e16111ab565b5b60006113f0858286016111d1565b9250506020611401858286016111d1565b9150509250929050565b60006114168261128c565b9050919050565b6114268161140b565b811461143157600080fd5b50565b6000813590506114438161141d565b92915050565b60006020828403121561145f5761145e6111ab565b5b600061146d84828501611434565b91505092915050565b7f4e487b7100000000000000000000000000000000000000000000000000000000600052601160045260246000fd5b60006114b0826111b0565b91506114bb836111b0565b92508282026114c9816111b0565b915082820484148315176114e0576114df611476565b5b5092915050565b60006114f2826111b0565b91506114fd836111b0565b925082820190508082111561151557611514611476565b5b92915050565b7f4e487b7100000000000000000000000000000000000000000000000000000000600052601260045260246000fd5b6000611555826111b0565b9150611560836111b0565b9250826115705761156f61151b565b5b828204905092915050565b6115848161140b565b82525050565b600060208201905061159f600083018461157b565b92915050565b6000815190506115b4816111ba565b92915050565b6000602082840312156115d0576115cf6111ab565b5b60006115de848285016115a5565b91505092915050565b600082825260208201905092915050565b7f416d6f756e74206d7573742062652067726561746572207468616e2030000000600082015250565b600061162e601d836115e7565b9150611639826115f8565b602082019050919050565b6000602082019050818103600083015261165d81611621565b9050919050565b7f496e73756666696369656e74206c697175696469747920666f72207377617000600082015250565b600061169a601f836115e7565b91506116a582611664565b602082019050919050565b600060208201905081810360008301526116c98161168d565b9050919050565b60006060820190506116e5600083018661157b565b6116f2602083018561157b565b6116ff6040830184611239565b949350505050565b60008151905061171681611332565b92915050565b600060208284031215611732576117316111ab565b5b600061174084828501611707565b91505092915050565b600060408201905061175e600083018561157b565b61176b6020830184611239565b9392505050565b61177b81611326565b82525050565b60006060820190506117966000830186611239565b6117a36020830185611239565b6117b06040830184611772565b949350505050565b7f496e73756666696369656e742073686172657300000000000000000000000000600082015250565b60006117ee6013836115e7565b91506117f9826117b8565b602082019050919050565b6000602082019050818103600083015261181d816117e1565b9050919050565b600061182f826111b0565b915061183a836111b0565b925082820390508181111561185257611851611476565b5b92915050565b600060608201905061186d6000830186611239565b61187a6020830185611239565b6118876040830184611239565b949350505050565b7f416d6f756e7473206d7573742062652067726561746572207468616e20300000600082015250565b60006118c5601e836115e7565b91506118d08261188f565b602082019050919050565b600060208201905081810360008301526118f4816118b8565b9050919050565b7f5265656e7472616e637947756172643a207265656e7472616e742063616c6c00600082015250565b6000611931601f836115e7565b915061193c826118fb565b602082019050919050565b6000602082019050818103600083015261196081611924565b905091905056fea26469706673582212208648f17731c68b0f699fbd479be1950f9cb52e2dc3006b48fd1e724cae6f177464736f6c63430008140033",
    "linkReferences": {},
    "deployedLinkReferences": {}
}