{
  "contracts/Swap.sol": {
    "TokenSwap": {
      "abi": [
        {
          "inputs": [
            {
              "internalType": "address",
              "name": "_token1",
              "type": "address"
            },
            {
              "internalType": "address",
              "name": "_token2",
              "type": "address"
            }
          ],
          "stateMutability": "nonpayable",
          "type": "constructor"
        },
        {
          "anonymous": false,
          "inputs": [
            {
              "indexed": true,
              "internalType": "address",
              "name": "user",
              "type": "address"
            },
            {
              "indexed": false,
              "internalType": "uint256",
              "name": "amountIn",
              "type": "uint256"
            },
            {
              "indexed": false,
              "internalType": "uint256",
              "name": "amountOut",
              "type": "uint256"
            },
            {
              "indexed": false,
              "internalType": "bool",
              "name": "token1ToToken2",
              "type": "bool"
            }
          ],
          "name": "Swap",
          "type": "event"
        },
        {
          "inputs": [],
          "name": "getReserves",
          "outputs": [
            {
              "internalType": "uint256",
              "name": "reserve1",
              "type": "uint256"
            },
            {
              "internalType": "uint256",
              "name": "reserve2",
              "type": "uint256"
            }
          ],
          "stateMutability": "view",
          "type": "function"
        },
        {
          "inputs": [
            {
              "internalType": "uint256",
              "name": "amountIn",
              "type": "uint256"
            },
            {
              "internalType": "bool",
              "name": "token1ToToken2",
              "type": "bool"
            }
          ],
          "name": "swap",
          "outputs": [
            {
              "internalType": "uint256",
              "name": "amountOut",
              "type": "uint256"
            }
          ],
          "stateMutability": "nonpayable",
          "type": "function"
        },
        {
          "inputs": [],
          "name": "token1",
          "outputs": [
            {
              "internalType": "contract IERC20",
              "name": "",
              "type": "address"
            }
          ],
          "stateMutability": "view",
          "type": "function"
        },
        {
          "inputs": [],
          "name": "token2",
          "outputs": [
            {
              "internalType": "contract IERC20",
              "name": "",
              "type": "address"
            }
          ],
          "stateMutability": "view",
          "type": "function"
        }
      ],
      "evm": {
        "bytecode": {
          "linkReferences": {},
          "object": "60806040523480156200001157600080fd5b5060405162001052380380620010528339818101604052810190620000379190620001e0565b6001600081905550600073ffffffffffffffffffffffffffffffffffffffff168273ffffffffffffffffffffffffffffffffffffffff1614158015620000aa5750600073ffffffffffffffffffffffffffffffffffffffff168173ffffffffffffffffffffffffffffffffffffffff1614155b620000ec576040517f08c379a0000000000000000000000000000000000000000000000000000000008152600401620000e39062000288565b60405180910390fd5b81600160006101000a81548173ffffffffffffffffffffffffffffffffffffffff021916908373ffffffffffffffffffffffffffffffffffffffff16021790555080600260006101000a81548173ffffffffffffffffffffffffffffffffffffffff021916908373ffffffffffffffffffffffffffffffffffffffff1602179055505050620002aa565b600080fd5b600073ffffffffffffffffffffffffffffffffffffffff82169050919050565b6000620001a8826200017b565b9050919050565b620001ba816200019b565b8114620001c657600080fd5b50565b600081519050620001da81620001af565b92915050565b60008060408385031215620001fa57620001f962000176565b5b60006200020a85828601620001c9565b92505060206200021d85828601620001c9565b9150509250929050565b600082825260208201905092915050565b7f496e76616c696420746f6b656e20616464726573736573000000000000000000600082015250565b60006200027060178362000227565b91506200027d8262000238565b602082019050919050565b60006020820190508181036000830152620002a38162000261565b9050919050565b610d9880620002ba6000396000f3fe608060405234801561001057600080fd5b506004361061004c5760003560e01c80630902f1ac1461005157806325be124e146100705780632aea66051461008e578063d21220a7146100be575b600080fd5b6100596100dc565b6040516100679291906107af565b60405180910390f35b61007861021f565b6040516100859190610857565b60405180910390f35b6100a860048036038101906100a391906108db565b610245565b6040516100b5919061091b565b60405180910390f35b6100c6610717565b6040516100d39190610857565b60405180910390f35b600080600160009054906101000a900473ffffffffffffffffffffffffffffffffffffffff1673ffffffffffffffffffffffffffffffffffffffff166370a08231306040518263ffffffff1660e01b815260040161013a9190610957565b602060405180830381865afa158015610157573d6000803e3d6000fd5b505050506040513d601f19601f8201168201806040525081019061017b9190610987565b9150600260009054906101000a900473ffffffffffffffffffffffffffffffffffffffff1673ffffffffffffffffffffffffffffffffffffffff166370a08231306040518263ffffffff1660e01b81526004016101d89190610957565b602060405180830381865afa1580156101f5573d6000803e3d6000fd5b505050506040513d601f19601f820116820180604052508101906102199190610987565b90509091565b600260009054906101000a900473ffffffffffffffffffffffffffffffffffffffff1681565b600061024f61073d565b60008311610292576040517f08c379a000000000000000000000000000000000000000000000000000000000815260040161028990610a11565b60405180910390fd5b60008061029d6100dc565b9150915083156104b057600160009054906101000a900473ffffffffffffffffffffffffffffffffffffffff1673ffffffffffffffffffffffffffffffffffffffff166323b872dd3330886040518463ffffffff1660e01b815260040161030693929190610a31565b6020604051808303816000875af1158015610325573d6000803e3d6000fd5b505050506040513d601f19601f820116820180604052508101906103499190610a7d565b610388576040517f08c379a000000000000000000000000000000000000000000000000000000000815260040161037f90610af6565b60405180910390fd5b60006103e5866103989190610b45565b9050806103e8846103a99190610b45565b6103b39190610b87565b82826103bf9190610b45565b6103c99190610bea565b9350600260009054906101000a900473ffffffffffffffffffffffffffffffffffffffff1673ffffffffffffffffffffffffffffffffffffffff1663a9059cbb33866040518363ffffffff1660e01b8152600401610428929190610c1b565b6020604051808303816000875af1158015610447573d6000803e3d6000fd5b505050506040513d601f19601f8201168201806040525081019061046b9190610a7d565b6104aa576040517f08c379a00000000000000000000000000000000000000000000000000000000081526004016104a190610c90565b60405180910390fd5b506106b5565b600260009054906101000a900473ffffffffffffffffffffffffffffffffffffffff1673ffffffffffffffffffffffffffffffffffffffff166323b872dd3330886040518463ffffffff1660e01b815260040161050f93929190610a31565b6020604051808303816000875af115801561052e573d6000803e3d6000fd5b505050506040513d601f19601f820116820180604052508101906105529190610a7d565b610591576040517f08c379a000000000000000000000000000000000000000000000000000000000815260040161058890610c90565b60405180910390fd5b60006103e5866105a19190610b45565b9050806103e8836105b29190610b45565b6105bc9190610b87565b83826105c89190610b45565b6105d29190610bea565b9350600160009054906101000a900473ffffffffffffffffffffffffffffffffffffffff1673ffffffffffffffffffffffffffffffffffffffff1663a9059cbb33866040518363ffffffff1660e01b8152600401610631929190610c1b565b6020604051808303816000875af1158015610650573d6000803e3d6000fd5b505050506040513d601f19601f820116820180604052508101906106749190610a7d565b6106b3576040517f08c379a00000000000000000000000000000000000000000000000000000000081526004016106aa90610af6565b60405180910390fd5b505b3373ffffffffffffffffffffffffffffffffffffffff167fcc65e4d9060ece2ecf63011ac580550b04c8daeba63fac4dfe8669353cd888598685876040516106ff93929190610cbf565b60405180910390a2505061071161078c565b92915050565b600160009054906101000a900473ffffffffffffffffffffffffffffffffffffffff1681565b600260005403610782576040517f08c379a000000000000000000000000000000000000000000000000000000000815260040161077990610d42565b60405180910390fd5b6002600081905550565b6001600081905550565b6000819050919050565b6107a981610796565b82525050565b60006040820190506107c460008301856107a0565b6107d160208301846107a0565b9392505050565b600073ffffffffffffffffffffffffffffffffffffffff82169050919050565b6000819050919050565b600061081d610818610813846107d8565b6107f8565b6107d8565b9050919050565b600061082f82610802565b9050919050565b600061084182610824565b9050919050565b61085181610836565b82525050565b600060208201905061086c6000830184610848565b92915050565b600080fd5b61088081610796565b811461088b57600080fd5b50565b60008135905061089d81610877565b92915050565b60008115159050919050565b6108b8816108a3565b81146108c357600080fd5b50565b6000813590506108d5816108af565b92915050565b600080604083850312156108f2576108f1610872565b5b60006109008582860161088e565b9250506020610911858286016108c6565b9150509250929050565b600060208201905061093060008301846107a0565b92915050565b6000610941826107d8565b9050919050565b61095181610936565b82525050565b600060208201905061096c6000830184610948565b92915050565b60008151905061098181610877565b92915050565b60006020828403121561099d5761099c610872565b5b60006109ab84828501610972565b91505092915050565b600082825260208201905092915050565b7f416d6f756e74206d7573742062652067726561746572207468616e2030000000600082015250565b60006109fb601d836109b4565b9150610a06826109c5565b602082019050919050565b60006020820190508181036000830152610a2a816109ee565b9050919050565b6000606082019050610a466000830186610948565b610a536020830185610948565b610a6060408301846107a0565b949350505050565b600081519050610a77816108af565b92915050565b600060208284031215610a9357610a92610872565b5b6000610aa184828501610a68565b91505092915050565b7f5472616e73666572206f6620746f6b656e31206661696c656400000000000000600082015250565b6000610ae06019836109b4565b9150610aeb82610aaa565b602082019050919050565b60006020820190508181036000830152610b0f81610ad3565b9050919050565b7f4e487b7100000000000000000000000000000000000000000000000000000000600052601160045260246000fd5b6000610b5082610796565b9150610b5b83610796565b9250828202610b6981610796565b91508282048414831517610b8057610b7f610b16565b5b5092915050565b6000610b9282610796565b9150610b9d83610796565b9250828201905080821115610bb557610bb4610b16565b5b92915050565b7f4e487b7100000000000000000000000000000000000000000000000000000000600052601260045260246000fd5b6000610bf582610796565b9150610c0083610796565b925082610c1057610c0f610bbb565b5b828204905092915050565b6000604082019050610c306000830185610948565b610c3d60208301846107a0565b9392505050565b7f5472616e73666572206f6620746f6b656e32206661696c656400000000000000600082015250565b6000610c7a6019836109b4565b9150610c8582610c44565b602082019050919050565b60006020820190508181036000830152610ca981610c6d565b9050919050565b610cb9816108a3565b82525050565b6000606082019050610cd460008301866107a0565b610ce160208301856107a0565b610cee6040830184610cb0565b949350505050565b7f5265656e7472616e637947756172643a207265656e7472616e742063616c6c00600082015250565b6000610d2c601f836109b4565b9150610d3782610cf6565b602082019050919050565b60006020820190508181036000830152610d5b81610d1f565b905091905056fea26469706673582212209eed76d14c4dbfb654dbe772cb803baf438502889c688a11f525b2a44de28c6464736f6c63430008140033",
          "opcodes": "PUSH1 0x80 PUSH1 0x40 MSTORE CALLVALUE DUP1 ISZERO PUSH3 0x11 JUMPI PUSH1 0x0 DUP1 REVERT JUMPDEST POP PUSH1 0x40 MLOAD PUSH3 0x1052 CODESIZE SUB DUP1 PUSH3 0x1052 DUP4 CODECOPY DUP2 DUP2 ADD PUSH1 0x40 MSTORE DUP2 ADD SWAP1 PUSH3 0x37 SWAP2 SWAP1 PUSH3 0x1E0 JUMP JUMPDEST PUSH1 0x1 PUSH1 0x0 DUP2 SWAP1 SSTORE POP PUSH1 0x0 PUSH20 0xFFFFFFFFFFFFFFFFFFFFFFFFFFFFFFFFFFFFFFFF AND DUP3 PUSH20 0xFFFFFFFFFFFFFFFFFFFFFFFFFFFFFFFFFFFFFFFF AND EQ ISZERO DUP1 ISZERO PUSH3 0xAA JUMPI POP PUSH1 0x0 PUSH20 0xFFFFFFFFFFFFFFFFFFFFFFFFFFFFFFFFFFFFFFFF AND DUP2 PUSH20 0xFFFFFFFFFFFFFFFFFFFFFFFFFFFFFFFFFFFFFFFF AND EQ ISZERO JUMPDEST PUSH3 0xEC JUMPI PUSH1 0x40 MLOAD PUSH32 0x8C379A000000000000000000000000000000000000000000000000000000000 DUP2 MSTORE PUSH1 0x4 ADD PUSH3 0xE3 SWAP1 PUSH3 0x288 JUMP JUMPDEST PUSH1 0x40 MLOAD DUP1 SWAP2 SUB SWAP1 REVERT JUMPDEST DUP2 PUSH1 0x1 PUSH1 0x0 PUSH2 0x100 EXP DUP2 SLOAD DUP2 PUSH20 0xFFFFFFFFFFFFFFFFFFFFFFFFFFFFFFFFFFFFFFFF MUL NOT AND SWAP1 DUP4 PUSH20 0xFFFFFFFFFFFFFFFFFFFFFFFFFFFFFFFFFFFFFFFF AND MUL OR SWAP1 SSTORE POP DUP1 PUSH1 0x2 PUSH1 0x0 PUSH2 0x100 EXP DUP2 SLOAD DUP2 PUSH20 0xFFFFFFFFFFFFFFFFFFFFFFFFFFFFFFFFFFFFFFFF MUL NOT AND SWAP1 DUP4 PUSH20 0xFFFFFFFFFFFFFFFFFFFFFFFFFFFFFFFFFFFFFFFF AND MUL OR SWAP1 SSTORE POP POP POP PUSH3 0x2AA JUMP JUMPDEST PUSH1 0x0 DUP1 REVERT JUMPDEST PUSH1 0x0 PUSH20 0xFFFFFFFFFFFFFFFFFFFFFFFFFFFFFFFFFFFFFFFF DUP3 AND SWAP1 POP SWAP2 SWAP1 POP JUMP JUMPDEST PUSH1 0x0 PUSH3 0x1A8 DUP3 PUSH3 0x17B JUMP JUMPDEST SWAP1 POP SWAP2 SWAP1 POP JUMP JUMPDEST PUSH3 0x1BA DUP2 PUSH3 0x19B JUMP JUMPDEST DUP2 EQ PUSH3 0x1C6 JUMPI PUSH1 0x0 DUP1 REVERT JUMPDEST POP JUMP JUMPDEST PUSH1 0x0 DUP2 MLOAD SWAP1 POP PUSH3 0x1DA DUP2 PUSH3 0x1AF JUMP JUMPDEST SWAP3 SWAP2 POP POP JUMP JUMPDEST PUSH1 0x0 DUP1 PUSH1 0x40 DUP4 DUP6 SUB SLT ISZERO PUSH3 0x1FA JUMPI PUSH3 0x1F9 PUSH3 0x176 JUMP JUMPDEST JUMPDEST PUSH1 0x0 PUSH3 0x20A DUP6 DUP3 DUP7 ADD PUSH3 0x1C9 JUMP JUMPDEST SWAP3 POP POP PUSH1 0x20 PUSH3 0x21D DUP6 DUP3 DUP7 ADD PUSH3 0x1C9 JUMP JUMPDEST SWAP2 POP POP SWAP3 POP SWAP3 SWAP1 POP JUMP JUMPDEST PUSH1 0x0 DUP3 DUP3 MSTORE PUSH1 0x20 DUP3 ADD SWAP1 POP SWAP3 SWAP2 POP POP JUMP JUMPDEST PUSH32 0x496E76616C696420746F6B656E20616464726573736573000000000000000000 PUSH1 0x0 DUP3 ADD MSTORE POP JUMP JUMPDEST PUSH1 0x0 PUSH3 0x270 PUSH1 0x17 DUP4 PUSH3 0x227 JUMP JUMPDEST SWAP2 POP PUSH3 0x27D DUP3 PUSH3 0x238 JUMP JUMPDEST PUSH1 0x20 DUP3 ADD SWAP1 POP SWAP2 SWAP1 POP JUMP JUMPDEST PUSH1 0x0 PUSH1 0x20 DUP3 ADD SWAP1 POP DUP2 DUP2 SUB PUSH1 0x0 DUP4 ADD MSTORE PUSH3 0x2A3 DUP2 PUSH3 0x261 JUMP JUMPDEST SWAP1 POP SWAP2 SWAP1 POP JUMP JUMPDEST PUSH2 0xD98 DUP1 PUSH3 0x2BA PUSH1 0x0 CODECOPY PUSH1 0x0 RETURN INVALID PUSH1 0x80 PUSH1 0x40 MSTORE CALLVALUE DUP1 ISZERO PUSH2 0x10 JUMPI PUSH1 0x0 DUP1 REVERT JUMPDEST POP PUSH1 0x4 CALLDATASIZE LT PUSH2 0x4C JUMPI PUSH1 0x0 CALLDATALOAD PUSH1 0xE0 SHR DUP1 PUSH4 0x902F1AC EQ PUSH2 0x51 JUMPI DUP1 PUSH4 0x25BE124E EQ PUSH2 0x70 JUMPI DUP1 PUSH4 0x2AEA6605 EQ PUSH2 0x8E JUMPI DUP1 PUSH4 0xD21220A7 EQ PUSH2 0xBE JUMPI JUMPDEST PUSH1 0x0 DUP1 REVERT JUMPDEST PUSH2 0x59 PUSH2 0xDC JUMP JUMPDEST PUSH1 0x40 MLOAD PUSH2 0x67 SWAP3 SWAP2 SWAP1 PUSH2 0x7AF JUMP JUMPDEST PUSH1 0x40 MLOAD DUP1 SWAP2 SUB SWAP1 RETURN JUMPDEST PUSH2 0x78 PUSH2 0x21F JUMP JUMPDEST PUSH1 0x40 MLOAD PUSH2 0x85 SWAP2 SWAP1 PUSH2 0x857 JUMP JUMPDEST PUSH1 0x40 MLOAD DUP1 SWAP2 SUB SWAP1 RETURN JUMPDEST PUSH2 0xA8 PUSH1 0x4 DUP1 CALLDATASIZE SUB DUP2 ADD SWAP1 PUSH2 0xA3 SWAP2 SWAP1 PUSH2 0x8DB JUMP JUMPDEST PUSH2 0x245 JUMP JUMPDEST PUSH1 0x40 MLOAD PUSH2 0xB5 SWAP2 SWAP1 PUSH2 0x91B JUMP JUMPDEST PUSH1 0x40 MLOAD DUP1 SWAP2 SUB SWAP1 RETURN JUMPDEST PUSH2 0xC6 PUSH2 0x717 JUMP JUMPDEST PUSH1 0x40 MLOAD PUSH2 0xD3 SWAP2 SWAP1 PUSH2 0x857 JUMP JUMPDEST PUSH1 0x40 MLOAD DUP1 SWAP2 SUB SWAP1 RETURN JUMPDEST PUSH1 0x0 DUP1 PUSH1 0x1 PUSH1 0x0 SWAP1 SLOAD SWAP1 PUSH2 0x100 EXP SWAP1 DIV PUSH20 0xFFFFFFFFFFFFFFFFFFFFFFFFFFFFFFFFFFFFFFFF AND PUSH20 0xFFFFFFFFFFFFFFFFFFFFFFFFFFFFFFFFFFFFFFFF AND PUSH4 0x70A08231 ADDRESS PUSH1 0x40 MLOAD DUP3 PUSH4 0xFFFFFFFF AND PUSH1 0xE0 SHL DUP2 MSTORE PUSH1 0x4 ADD PUSH2 0x13A SWAP2 SWAP1 PUSH2 0x957 JUMP JUMPDEST PUSH1 0x20 PUSH1 0x40 MLOAD DUP1 DUP4 SUB DUP2 DUP7 GAS STATICCALL ISZERO DUP1 ISZERO PUSH2 0x157 JUMPI RETURNDATASIZE PUSH1 0x0 DUP1 RETURNDATACOPY RETURNDATASIZE PUSH1 0x0 REVERT JUMPDEST POP POP POP POP PUSH1 0x40 MLOAD RETURNDATASIZE PUSH1 0x1F NOT PUSH1 0x1F DUP3 ADD AND DUP3 ADD DUP1 PUSH1 0x40 MSTORE POP DUP2 ADD SWAP1 PUSH2 0x17B SWAP2 SWAP1 PUSH2 0x987 JUMP JUMPDEST SWAP2 POP PUSH1 0x2 PUSH1 0x0 SWAP1 SLOAD SWAP1 PUSH2 0x100 EXP SWAP1 DIV PUSH20 0xFFFFFFFFFFFFFFFFFFFFFFFFFFFFFFFFFFFFFFFF AND PUSH20 0xFFFFFFFFFFFFFFFFFFFFFFFFFFFFFFFFFFFFFFFF AND PUSH4 0x70A08231 ADDRESS PUSH1 0x40 MLOAD DUP3 PUSH4 0xFFFFFFFF AND PUSH1 0xE0 SHL DUP2 MSTORE PUSH1 0x4 ADD PUSH2 0x1D8 SWAP2 SWAP1 PUSH2 0x957 JUMP JUMPDEST PUSH1 0x20 PUSH1 0x40 MLOAD DUP1 DUP4 SUB DUP2 DUP7 GAS STATICCALL ISZERO DUP1 ISZERO PUSH2 0x1F5 JUMPI RETURNDATASIZE PUSH1 0x0 DUP1 RETURNDATACOPY RETURNDATASIZE PUSH1 0x0 REVERT JUMPDEST POP POP POP POP PUSH1 0x40 MLOAD RETURNDATASIZE PUSH1 0x1F NOT PUSH1 0x1F DUP3 ADD AND DUP3 ADD DUP1 PUSH1 0x40 MSTORE POP DUP2 ADD SWAP1 PUSH2 0x219 SWAP2 SWAP1 PUSH2 0x987 JUMP JUMPDEST SWAP1 POP SWAP1 SWAP2 JUMP JUMPDEST PUSH1 0x2 PUSH1 0x0 SWAP1 SLOAD SWAP1 PUSH2 0x100 EXP SWAP1 DIV PUSH20 0xFFFFFFFFFFFFFFFFFFFFFFFFFFFFFFFFFFFFFFFF AND DUP2 JUMP JUMPDEST PUSH1 0x0 PUSH2 0x24F PUSH2 0x73D JUMP JUMPDEST PUSH1 0x0 DUP4 GT PUSH2 0x292 JUMPI PUSH1 0x40 MLOAD PUSH32 0x8C379A000000000000000000000000000000000000000000000000000000000 DUP2 MSTORE PUSH1 0x4 ADD PUSH2 0x289 SWAP1 PUSH2 0xA11 JUMP JUMPDEST PUSH1 0x40 MLOAD DUP1 SWAP2 SUB SWAP1 REVERT JUMPDEST PUSH1 0x0 DUP1 PUSH2 0x29D PUSH2 0xDC JUMP JUMPDEST SWAP2 POP SWAP2 POP DUP4 ISZERO PUSH2 0x4B0 JUMPI PUSH1 0x1 PUSH1 0x0 SWAP1 SLOAD SWAP1 PUSH2 0x100 EXP SWAP1 DIV PUSH20 0xFFFFFFFFFFFFFFFFFFFFFFFFFFFFFFFFFFFFFFFF AND PUSH20 0xFFFFFFFFFFFFFFFFFFFFFFFFFFFFFFFFFFFFFFFF AND PUSH4 0x23B872DD CALLER ADDRESS DUP9 PUSH1 0x40 MLOAD DUP5 PUSH4 0xFFFFFFFF AND PUSH1 0xE0 SHL DUP2 MSTORE PUSH1 0x4 ADD PUSH2 0x306 SWAP4 SWAP3 SWAP2 SWAP1 PUSH2 0xA31 JUMP JUMPDEST PUSH1 0x20 PUSH1 0x40 MLOAD DUP1 DUP4 SUB DUP2 PUSH1 0x0 DUP8 GAS CALL ISZERO DUP1 ISZERO PUSH2 0x325 JUMPI RETURNDATASIZE PUSH1 0x0 DUP1 RETURNDATACOPY RETURNDATASIZE PUSH1 0x0 REVERT JUMPDEST POP POP POP POP PUSH1 0x40 MLOAD RETURNDATASIZE PUSH1 0x1F NOT PUSH1 0x1F DUP3 ADD AND DUP3 ADD DUP1 PUSH1 0x40 MSTORE POP DUP2 ADD SWAP1 PUSH2 0x349 SWAP2 SWAP1 PUSH2 0xA7D JUMP JUMPDEST PUSH2 0x388 JUMPI PUSH1 0x40 MLOAD PUSH32 0x8C379A000000000000000000000000000000000000000000000000000000000 DUP2 MSTORE PUSH1 0x4 ADD PUSH2 0x37F SWAP1 PUSH2 0xAF6 JUMP JUMPDEST PUSH1 0x40 MLOAD DUP1 SWAP2 SUB SWAP1 REVERT JUMPDEST PUSH1 0x0 PUSH2 0x3E5 DUP7 PUSH2 0x398 SWAP2 SWAP1 PUSH2 0xB45 JUMP JUMPDEST SWAP1 POP DUP1 PUSH2 0x3E8 DUP5 PUSH2 0x3A9 SWAP2 SWAP1 PUSH2 0xB45 JUMP JUMPDEST PUSH2 0x3B3 SWAP2 SWAP1 PUSH2 0xB87 JUMP JUMPDEST DUP3 DUP3 PUSH2 0x3BF SWAP2 SWAP1 PUSH2 0xB45 JUMP JUMPDEST PUSH2 0x3C9 SWAP2 SWAP1 PUSH2 0xBEA JUMP JUMPDEST SWAP4 POP PUSH1 0x2 PUSH1 0x0 SWAP1 SLOAD SWAP1 PUSH2 0x100 EXP SWAP1 DIV PUSH20 0xFFFFFFFFFFFFFFFFFFFFFFFFFFFFFFFFFFFFFFFF AND PUSH20 0xFFFFFFFFFFFFFFFFFFFFFFFFFFFFFFFFFFFFFFFF AND PUSH4 0xA9059CBB CALLER DUP7 PUSH1 0x40 MLOAD DUP4 PUSH4 0xFFFFFFFF AND PUSH1 0xE0 SHL DUP2 MSTORE PUSH1 0x4 ADD PUSH2 0x428 SWAP3 SWAP2 SWAP1 PUSH2 0xC1B JUMP JUMPDEST PUSH1 0x20 PUSH1 0x40 MLOAD DUP1 DUP4 SUB DUP2 PUSH1 0x0 DUP8 GAS CALL ISZERO DUP1 ISZERO PUSH2 0x447 JUMPI RETURNDATASIZE PUSH1 0x0 DUP1 RETURNDATACOPY RETURNDATASIZE PUSH1 0x0 REVERT JUMPDEST POP POP POP POP PUSH1 0x40 MLOAD RETURNDATASIZE PUSH1 0x1F NOT PUSH1 0x1F DUP3 ADD AND DUP3 ADD DUP1 PUSH1 0x40 MSTORE POP DUP2 ADD SWAP1 PUSH2 0x46B SWAP2 SWAP1 PUSH2 0xA7D JUMP JUMPDEST PUSH2 0x4AA JUMPI PUSH1 0x40 MLOAD PUSH32 0x8C379A000000000000000000000000000000000000000000000000000000000 DUP2 MSTORE PUSH1 0x4 ADD PUSH2 0x4A1 SWAP1 PUSH2 0xC90 JUMP JUMPDEST PUSH1 0x40 MLOAD DUP1 SWAP2 SUB SWAP1 REVERT JUMPDEST POP PUSH2 0x6B5 JUMP JUMPDEST PUSH1 0x2 PUSH1 0x0 SWAP1 SLOAD SWAP1 PUSH2 0x100 EXP SWAP1 DIV PUSH20 0xFFFFFFFFFFFFFFFFFFFFFFFFFFFFFFFFFFFFFFFF AND PUSH20 0xFFFFFFFFFFFFFFFFFFFFFFFFFFFFFFFFFFFFFFFF AND PUSH4 0x23B872DD CALLER ADDRESS DUP9 PUSH1 0x40 MLOAD DUP5 PUSH4 0xFFFFFFFF AND PUSH1 0xE0 SHL DUP2 MSTORE PUSH1 0x4 ADD PUSH2 0x50F SWAP4 SWAP3 SWAP2 SWAP1 PUSH2 0xA31 JUMP JUMPDEST PUSH1 0x20 PUSH1 0x40 MLOAD DUP1 DUP4 SUB DUP2 PUSH1 0x0 DUP8 GAS CALL ISZERO DUP1 ISZERO PUSH2 0x52E JUMPI RETURNDATASIZE PUSH1 0x0 DUP1 RETURNDATACOPY RETURNDATASIZE PUSH1 0x0 REVERT JUMPDEST POP POP POP POP PUSH1 0x40 MLOAD RETURNDATASIZE PUSH1 0x1F NOT PUSH1 0x1F DUP3 ADD AND DUP3 ADD DUP1 PUSH1 0x40 MSTORE POP DUP2 ADD SWAP1 PUSH2 0x552 SWAP2 SWAP1 PUSH2 0xA7D JUMP JUMPDEST PUSH2 0x591 JUMPI PUSH1 0x40 MLOAD PUSH32 0x8C379A000000000000000000000000000000000000000000000000000000000 DUP2 MSTORE PUSH1 0x4 ADD PUSH2 0x588 SWAP1 PUSH2 0xC90 JUMP JUMPDEST PUSH1 0x40 MLOAD DUP1 SWAP2 SUB SWAP1 REVERT JUMPDEST PUSH1 0x0 PUSH2 0x3E5 DUP7 PUSH2 0x5A1 SWAP2 SWAP1 PUSH2 0xB45 JUMP JUMPDEST SWAP1 POP DUP1 PUSH2 0x3E8 DUP4 PUSH2 0x5B2 SWAP2 SWAP1 PUSH2 0xB45 JUMP JUMPDEST PUSH2 0x5BC SWAP2 SWAP1 PUSH2 0xB87 JUMP JUMPDEST DUP4 DUP3 PUSH2 0x5C8 SWAP2 SWAP1 PUSH2 0xB45 JUMP JUMPDEST PUSH2 0x5D2 SWAP2 SWAP1 PUSH2 0xBEA JUMP JUMPDEST SWAP4 POP PUSH1 0x1 PUSH1 0x0 SWAP1 SLOAD SWAP1 PUSH2 0x100 EXP SWAP1 DIV PUSH20 0xFFFFFFFFFFFFFFFFFFFFFFFFFFFFFFFFFFFFFFFF AND PUSH20 0xFFFFFFFFFFFFFFFFFFFFFFFFFFFFFFFFFFFFFFFF AND PUSH4 0xA9059CBB CALLER DUP7 PUSH1 0x40 MLOAD DUP4 PUSH4 0xFFFFFFFF AND PUSH1 0xE0 SHL DUP2 MSTORE PUSH1 0x4 ADD PUSH2 0x631 SWAP3 SWAP2 SWAP1 PUSH2 0xC1B JUMP JUMPDEST PUSH1 0x20 PUSH1 0x40 MLOAD DUP1 DUP4 SUB DUP2 PUSH1 0x0 DUP8 GAS CALL ISZERO DUP1 ISZERO PUSH2 0x650 JUMPI RETURNDATASIZE PUSH1 0x0 DUP1 RETURNDATACOPY RETURNDATASIZE PUSH1 0x0 REVERT JUMPDEST POP POP POP POP PUSH1 0x40 MLOAD RETURNDATASIZE PUSH1 0x1F NOT PUSH1 0x1F DUP3 ADD AND DUP3 ADD DUP1 PUSH1 0x40 MSTORE POP DUP2 ADD SWAP1 PUSH2 0x674 SWAP2 SWAP1 PUSH2 0xA7D JUMP JUMPDEST PUSH2 0x6B3 JUMPI PUSH1 0x40 MLOAD PUSH32 0x8C379A000000000000000000000000000000000000000000000000000000000 DUP2 MSTORE PUSH1 0x4 ADD PUSH2 0x6AA SWAP1 PUSH2 0xAF6 JUMP JUMPDEST PUSH1 0x40 MLOAD DUP1 SWAP2 SUB SWAP1 REVERT JUMPDEST POP JUMPDEST CALLER PUSH20 0xFFFFFFFFFFFFFFFFFFFFFFFFFFFFFFFFFFFFFFFF AND PUSH32 0xCC65E4D9060ECE2ECF63011AC580550B04C8DAEBA63FAC4DFE8669353CD88859 DUP7 DUP6 DUP8 PUSH1 0x40 MLOAD PUSH2 0x6FF SWAP4 SWAP3 SWAP2 SWAP1 PUSH2 0xCBF JUMP JUMPDEST PUSH1 0x40 MLOAD DUP1 SWAP2 SUB SWAP1 LOG2 POP POP PUSH2 0x711 PUSH2 0x78C JUMP JUMPDEST SWAP3 SWAP2 POP POP JUMP JUMPDEST PUSH1 0x1 PUSH1 0x0 SWAP1 SLOAD SWAP1 PUSH2 0x100 EXP SWAP1 DIV PUSH20 0xFFFFFFFFFFFFFFFFFFFFFFFFFFFFFFFFFFFFFFFF AND DUP2 JUMP JUMPDEST PUSH1 0x2 PUSH1 0x0 SLOAD SUB PUSH2 0x782 JUMPI PUSH1 0x40 MLOAD PUSH32 0x8C379A000000000000000000000000000000000000000000000000000000000 DUP2 MSTORE PUSH1 0x4 ADD PUSH2 0x779 SWAP1 PUSH2 0xD42 JUMP JUMPDEST PUSH1 0x40 MLOAD DUP1 SWAP2 SUB SWAP1 REVERT JUMPDEST PUSH1 0x2 PUSH1 0x0 DUP2 SWAP1 SSTORE POP JUMP JUMPDEST PUSH1 0x1 PUSH1 0x0 DUP2 SWAP1 SSTORE POP JUMP JUMPDEST PUSH1 0x0 DUP2 SWAP1 POP SWAP2 SWAP1 POP JUMP JUMPDEST PUSH2 0x7A9 DUP2 PUSH2 0x796 JUMP JUMPDEST DUP3 MSTORE POP POP JUMP JUMPDEST PUSH1 0x0 PUSH1 0x40 DUP3 ADD SWAP1 POP PUSH2 0x7C4 PUSH1 0x0 DUP4 ADD DUP6 PUSH2 0x7A0 JUMP JUMPDEST PUSH2 0x7D1 PUSH1 0x20 DUP4 ADD DUP5 PUSH2 0x7A0 JUMP JUMPDEST SWAP4 SWAP3 POP POP POP JUMP JUMPDEST PUSH1 0x0 PUSH20 0xFFFFFFFFFFFFFFFFFFFFFFFFFFFFFFFFFFFFFFFF DUP3 AND SWAP1 POP SWAP2 SWAP1 POP JUMP JUMPDEST PUSH1 0x0 DUP2 SWAP1 POP SWAP2 SWAP1 POP JUMP JUMPDEST PUSH1 0x0 PUSH2 0x81D PUSH2 0x818 PUSH2 0x813 DUP5 PUSH2 0x7D8 JUMP JUMPDEST PUSH2 0x7F8 JUMP JUMPDEST PUSH2 0x7D8 JUMP JUMPDEST SWAP1 POP SWAP2 SWAP1 POP JUMP JUMPDEST PUSH1 0x0 PUSH2 0x82F DUP3 PUSH2 0x802 JUMP JUMPDEST SWAP1 POP SWAP2 SWAP1 POP JUMP JUMPDEST PUSH1 0x0 PUSH2 0x841 DUP3 PUSH2 0x824 JUMP JUMPDEST SWAP1 POP SWAP2 SWAP1 POP JUMP JUMPDEST PUSH2 0x851 DUP2 PUSH2 0x836 JUMP JUMPDEST DUP3 MSTORE POP POP JUMP JUMPDEST PUSH1 0x0 PUSH1 0x20 DUP3 ADD SWAP1 POP PUSH2 0x86C PUSH1 0x0 DUP4 ADD DUP5 PUSH2 0x848 JUMP JUMPDEST SWAP3 SWAP2 POP POP JUMP JUMPDEST PUSH1 0x0 DUP1 REVERT JUMPDEST PUSH2 0x880 DUP2 PUSH2 0x796 JUMP JUMPDEST DUP2 EQ PUSH2 0x88B JUMPI PUSH1 0x0 DUP1 REVERT JUMPDEST POP JUMP JUMPDEST PUSH1 0x0 DUP2 CALLDATALOAD SWAP1 POP PUSH2 0x89D DUP2 PUSH2 0x877 JUMP JUMPDEST SWAP3 SWAP2 POP POP JUMP JUMPDEST PUSH1 0x0 DUP2 ISZERO ISZERO SWAP1 POP SWAP2 SWAP1 POP JUMP JUMPDEST PUSH2 0x8B8 DUP2 PUSH2 0x8A3 JUMP JUMPDEST DUP2 EQ PUSH2 0x8C3 JUMPI PUSH1 0x0 DUP1 REVERT JUMPDEST POP JUMP JUMPDEST PUSH1 0x0 DUP2 CALLDATALOAD SWAP1 POP PUSH2 0x8D5 DUP2 PUSH2 0x8AF JUMP JUMPDEST SWAP3 SWAP2 POP POP JUMP JUMPDEST PUSH1 0x0 DUP1 PUSH1 0x40 DUP4 DUP6 SUB SLT ISZERO PUSH2 0x8F2 JUMPI PUSH2 0x8F1 PUSH2 0x872 JUMP JUMPDEST JUMPDEST PUSH1 0x0 PUSH2 0x900 DUP6 DUP3 DUP7 ADD PUSH2 0x88E JUMP JUMPDEST SWAP3 POP POP PUSH1 0x20 PUSH2 0x911 DUP6 DUP3 DUP7 ADD PUSH2 0x8C6 JUMP JUMPDEST SWAP2 POP POP SWAP3 POP SWAP3 SWAP1 POP JUMP JUMPDEST PUSH1 0x0 PUSH1 0x20 DUP3 ADD SWAP1 POP PUSH2 0x930 PUSH1 0x0 DUP4 ADD DUP5 PUSH2 0x7A0 JUMP JUMPDEST SWAP3 SWAP2 POP POP JUMP JUMPDEST PUSH1 0x0 PUSH2 0x941 DUP3 PUSH2 0x7D8 JUMP JUMPDEST SWAP1 POP SWAP2 SWAP1 POP JUMP JUMPDEST PUSH2 0x951 DUP2 PUSH2 0x936 JUMP JUMPDEST DUP3 MSTORE POP POP JUMP JUMPDEST PUSH1 0x0 PUSH1 0x20 DUP3 ADD SWAP1 POP PUSH2 0x96C PUSH1 0x0 DUP4 ADD DUP5 PUSH2 0x948 JUMP JUMPDEST SWAP3 SWAP2 POP POP JUMP JUMPDEST PUSH1 0x0 DUP2 MLOAD SWAP1 POP PUSH2 0x981 DUP2 PUSH2 0x877 JUMP JUMPDEST SWAP3 SWAP2 POP POP JUMP JUMPDEST PUSH1 0x0 PUSH1 0x20 DUP3 DUP5 SUB SLT ISZERO PUSH2 0x99D JUMPI PUSH2 0x99C PUSH2 0x872 JUMP JUMPDEST JUMPDEST PUSH1 0x0 PUSH2 0x9AB DUP5 DUP3 DUP6 ADD PUSH2 0x972 JUMP JUMPDEST SWAP2 POP POP SWAP3 SWAP2 POP POP JUMP JUMPDEST PUSH1 0x0 DUP3 DUP3 MSTORE PUSH1 0x20 DUP3 ADD SWAP1 POP SWAP3 SWAP2 POP POP JUMP JUMPDEST PUSH32 0x416D6F756E74206D7573742062652067726561746572207468616E2030000000 PUSH1 0x0 DUP3 ADD MSTORE POP JUMP JUMPDEST PUSH1 0x0 PUSH2 0x9FB PUSH1 0x1D DUP4 PUSH2 0x9B4 JUMP JUMPDEST SWAP2 POP PUSH2 0xA06 DUP3 PUSH2 0x9C5 JUMP JUMPDEST PUSH1 0x20 DUP3 ADD SWAP1 POP SWAP2 SWAP1 POP JUMP JUMPDEST PUSH1 0x0 PUSH1 0x20 DUP3 ADD SWAP1 POP DUP2 DUP2 SUB PUSH1 0x0 DUP4 ADD MSTORE PUSH2 0xA2A DUP2 PUSH2 0x9EE JUMP JUMPDEST SWAP1 POP SWAP2 SWAP1 POP JUMP JUMPDEST PUSH1 0x0 PUSH1 0x60 DUP3 ADD SWAP1 POP PUSH2 0xA46 PUSH1 0x0 DUP4 ADD DUP7 PUSH2 0x948 JUMP JUMPDEST PUSH2 0xA53 PUSH1 0x20 DUP4 ADD DUP6 PUSH2 0x948 JUMP JUMPDEST PUSH2 0xA60 PUSH1 0x40 DUP4 ADD DUP5 PUSH2 0x7A0 JUMP JUMPDEST SWAP5 SWAP4 POP POP POP POP JUMP JUMPDEST PUSH1 0x0 DUP2 MLOAD SWAP1 POP PUSH2 0xA77 DUP2 PUSH2 0x8AF JUMP JUMPDEST SWAP3 SWAP2 POP POP JUMP JUMPDEST PUSH1 0x0 PUSH1 0x20 DUP3 DUP5 SUB SLT ISZERO PUSH2 0xA93 JUMPI PUSH2 0xA92 PUSH2 0x872 JUMP JUMPDEST JUMPDEST PUSH1 0x0 PUSH2 0xAA1 DUP5 DUP3 DUP6 ADD PUSH2 0xA68 JUMP JUMPDEST SWAP2 POP POP SWAP3 SWAP2 POP POP JUMP JUMPDEST PUSH32 0x5472616E73666572206F6620746F6B656E31206661696C656400000000000000 PUSH1 0x0 DUP3 ADD MSTORE POP JUMP JUMPDEST PUSH1 0x0 PUSH2 0xAE0 PUSH1 0x19 DUP4 PUSH2 0x9B4 JUMP JUMPDEST SWAP2 POP PUSH2 0xAEB DUP3 PUSH2 0xAAA JUMP JUMPDEST PUSH1 0x20 DUP3 ADD SWAP1 POP SWAP2 SWAP1 POP JUMP JUMPDEST PUSH1 0x0 PUSH1 0x20 DUP3 ADD SWAP1 POP DUP2 DUP2 SUB PUSH1 0x0 DUP4 ADD MSTORE PUSH2 0xB0F DUP2 PUSH2 0xAD3 JUMP JUMPDEST SWAP1 POP SWAP2 SWAP1 POP JUMP JUMPDEST PUSH32 0x4E487B7100000000000000000000000000000000000000000000000000000000 PUSH1 0x0 MSTORE PUSH1 0x11 PUSH1 0x4 MSTORE PUSH1 0x24 PUSH1 0x0 REVERT JUMPDEST PUSH1 0x0 PUSH2 0xB50 DUP3 PUSH2 0x796 JUMP JUMPDEST SWAP2 POP PUSH2 0xB5B DUP4 PUSH2 0x796 JUMP JUMPDEST SWAP3 POP DUP3 DUP3 MUL PUSH2 0xB69 DUP2 PUSH2 0x796 JUMP JUMPDEST SWAP2 POP DUP3 DUP3 DIV DUP5 EQ DUP4 ISZERO OR PUSH2 0xB80 JUMPI PUSH2 0xB7F PUSH2 0xB16 JUMP JUMPDEST JUMPDEST POP SWAP3 SWAP2 POP POP JUMP JUMPDEST PUSH1 0x0 PUSH2 0xB92 DUP3 PUSH2 0x796 JUMP JUMPDEST SWAP2 POP PUSH2 0xB9D DUP4 PUSH2 0x796 JUMP JUMPDEST SWAP3 POP DUP3 DUP3 ADD SWAP1 POP DUP1 DUP3 GT ISZERO PUSH2 0xBB5 JUMPI PUSH2 0xBB4 PUSH2 0xB16 JUMP JUMPDEST JUMPDEST SWAP3 SWAP2 POP POP JUMP JUMPDEST PUSH32 0x4E487B7100000000000000000000000000000000000000000000000000000000 PUSH1 0x0 MSTORE PUSH1 0x12 PUSH1 0x4 MSTORE PUSH1 0x24 PUSH1 0x0 REVERT JUMPDEST PUSH1 0x0 PUSH2 0xBF5 DUP3 PUSH2 0x796 JUMP JUMPDEST SWAP2 POP PUSH2 0xC00 DUP4 PUSH2 0x796 JUMP JUMPDEST SWAP3 POP DUP3 PUSH2 0xC10 JUMPI PUSH2 0xC0F PUSH2 0xBBB JUMP JUMPDEST JUMPDEST DUP3 DUP3 DIV SWAP1 POP SWAP3 SWAP2 POP POP JUMP JUMPDEST PUSH1 0x0 PUSH1 0x40 DUP3 ADD SWAP1 POP PUSH2 0xC30 PUSH1 0x0 DUP4 ADD DUP6 PUSH2 0x948 JUMP JUMPDEST PUSH2 0xC3D PUSH1 0x20 DUP4 ADD DUP5 PUSH2 0x7A0 JUMP JUMPDEST SWAP4 SWAP3 POP POP POP JUMP JUMPDEST PUSH32 0x5472616E73666572206F6620746F6B656E32206661696C656400000000000000 PUSH1 0x0 DUP3 ADD MSTORE POP JUMP JUMPDEST PUSH1 0x0 PUSH2 0xC7A PUSH1 0x19 DUP4 PUSH2 0x9B4 JUMP JUMPDEST SWAP2 POP PUSH2 0xC85 DUP3 PUSH2 0xC44 JUMP JUMPDEST PUSH1 0x20 DUP3 ADD SWAP1 POP SWAP2 SWAP1 POP JUMP JUMPDEST PUSH1 0x0 PUSH1 0x20 DUP3 ADD SWAP1 POP DUP2 DUP2 SUB PUSH1 0x0 DUP4 ADD MSTORE PUSH2 0xCA9 DUP2 PUSH2 0xC6D JUMP JUMPDEST SWAP1 POP SWAP2 SWAP1 POP JUMP JUMPDEST PUSH2 0xCB9 DUP2 PUSH2 0x8A3 JUMP JUMPDEST DUP3 MSTORE POP POP JUMP JUMPDEST PUSH1 0x0 PUSH1 0x60 DUP3 ADD SWAP1 POP PUSH2 0xCD4 PUSH1 0x0 DUP4 ADD DUP7 PUSH2 0x7A0 JUMP JUMPDEST PUSH2 0xCE1 PUSH1 0x20 DUP4 ADD DUP6 PUSH2 0x7A0 JUMP JUMPDEST PUSH2 0xCEE PUSH1 0x40 DUP4 ADD DUP5 PUSH2 0xCB0 JUMP JUMPDEST SWAP5 SWAP4 POP POP POP POP JUMP JUMPDEST PUSH32 0x5265656E7472616E637947756172643A207265656E7472616E742063616C6C00 PUSH1 0x0 DUP3 ADD MSTORE POP JUMP JUMPDEST PUSH1 0x0 PUSH2 0xD2C PUSH1 0x1F DUP4 PUSH2 0x9B4 JUMP JUMPDEST SWAP2 POP PUSH2 0xD37 DUP3 PUSH2 0xCF6 JUMP JUMPDEST PUSH1 0x20 DUP3 ADD SWAP1 POP SWAP2 SWAP1 POP JUMP JUMPDEST PUSH1 0x0 PUSH1 0x20 DUP3 ADD SWAP1 POP DUP2 DUP2 SUB PUSH1 0x0 DUP4 ADD MSTORE PUSH2 0xD5B DUP2 PUSH2 0xD1F JUMP JUMPDEST SWAP1 POP SWAP2 SWAP1 POP JUMP INVALID LOG2 PUSH5 0x6970667358 0x22 SLT KECCAK256 SWAP15 0xED PUSH23 0xD14C4DBFB654DBE772CB803BAF438502889C688A11F525 0xB2 LOG4 0x4D 0xE2 DUP13 PUSH5 0x64736F6C63 NUMBER STOP ADDMOD EQ STOP CALLER "
        },
        "methodIdentifiers": {
          "getReserves()": "0902f1ac",
          "swap(uint256,bool)": "2aea6605",
          "token1()": "d21220a7",
          "token2()": "25be124e"
        }
      }
    }
  }
}