{
  "contracts/LiquiditySwap.sol": {
    "LiquidityPool": {
      "abi": [
        {
          "inputs": [
            {
              "internalType": "address",
              "name": "_token1",
              "type": "address"
            },
            {
              "internalType": "address",
              "name": "_token2",
              "type": "address"
            }
          ],
          "stateMutability": "nonpayable",
          "type": "constructor"
        },
        {
          "anonymous": false,
          "inputs": [
            {
              "indexed": true,
              "internalType": "address",
              "name": "provider",
              "type": "address"
            },
            {
              "indexed": false,
              "internalType": "uint256",
              "name": "amount1",
              "type": "uint256"
            },
            {
              "indexed": false,
              "internalType": "uint256",
              "name": "amount2",
              "type": "uint256"
            },
            {
              "indexed": false,
              "internalType": "uint256",
              "name": "shares",
              "type": "uint256"
            }
          ],
          "name": "LiquidityAdded",
          "type": "event"
        },
        {
          "anonymous": false,
          "inputs": [
            {
              "indexed": true,
              "internalType": "address",
              "name": "provider",
              "type": "address"
            },
            {
              "indexed": false,
              "internalType": "uint256",
              "name": "amount1",
              "type": "uint256"
            },
            {
              "indexed": false,
              "internalType": "uint256",
              "name": "amount2",
              "type": "uint256"
            },
            {
              "indexed": false,
              "internalType": "uint256",
              "name": "shares",
              "type": "uint256"
            }
          ],
          "name": "LiquidityRemoved",
          "type": "event"
        },
        {
          "anonymous": false,
          "inputs": [
            {
              "indexed": true,
              "internalType": "address",
              "name": "user",
              "type": "address"
            },
            {
              "indexed": false,
              "internalType": "uint256",
              "name": "amountIn",
              "type": "uint256"
            },
            {
              "indexed": false,
              "internalType": "uint256",
              "name": "amountOut",
              "type": "uint256"
            },
            {
              "indexed": false,
              "internalType": "bool",
              "name": "token1ToToken2",
              "type": "bool"
            }
          ],
          "name": "Swap",
          "type": "event"
        },
        {
          "inputs": [
            {
              "internalType": "uint256",
              "name": "amount1",
              "type": "uint256"
            },
            {
              "internalType": "uint256",
              "name": "amount2",
              "type": "uint256"
            }
          ],
          "name": "addLiquidity",
          "outputs": [
            {
              "internalType": "uint256",
              "name": "share",
              "type": "uint256"
            }
          ],
          "stateMutability": "nonpayable",
          "type": "function"
        },
        {
          "inputs": [],
          "name": "getReserves",
          "outputs": [
            {
              "internalType": "uint256",
              "name": "reserve1",
              "type": "uint256"
            },
            {
              "internalType": "uint256",
              "name": "reserve2",
              "type": "uint256"
            }
          ],
          "stateMutability": "view",
          "type": "function"
        },
        {
          "inputs": [
            {
              "internalType": "uint256",
              "name": "share",
              "type": "uint256"
            }
          ],
          "name": "removeLiquidity",
          "outputs": [
            {
              "internalType": "uint256",
              "name": "amount1",
              "type": "uint256"
            },
            {
              "internalType": "uint256",
              "name": "amount2",
              "type": "uint256"
            }
          ],
          "stateMutability": "nonpayable",
          "type": "function"
        },
        {
          "inputs": [
            {
              "internalType": "address",
              "name": "",
              "type": "address"
            }
          ],
          "name": "shares",
          "outputs": [
            {
              "internalType": "uint256",
              "name": "",
              "type": "uint256"
            }
          ],
          "stateMutability": "view",
          "type": "function"
        },
        {
          "inputs": [
            {
              "internalType": "uint256",
              "name": "amountIn",
              "type": "uint256"
            },
            {
              "internalType": "bool",
              "name": "token1ToToken2",
              "type": "bool"
            }
          ],
          "name": "swap",
          "outputs": [
            {
              "internalType": "uint256",
              "name": "amountOut",
              "type": "uint256"
            }
          ],
          "stateMutability": "nonpayable",
          "type": "function"
        },
        {
          "inputs": [],
          "name": "token1",
          "outputs": [
            {
              "internalType": "contract IERC20",
              "name": "",
              "type": "address"
            }
          ],
          "stateMutability": "view",
          "type": "function"
        },
        {
          "inputs": [],
          "name": "token2",
          "outputs": [
            {
              "internalType": "contract IERC20",
              "name": "",
              "type": "address"
            }
          ],
          "stateMutability": "view",
          "type": "function"
        },
        {
          "inputs": [],
          "name": "totalShares",
          "outputs": [
            {
              "internalType": "uint256",
              "name": "",
              "type": "uint256"
            }
          ],
          "stateMutability": "view",
          "type": "function"
        }
      ],
      "evm": {
        "bytecode": {
          "linkReferences": {},
          "object": "60806040523480156200001157600080fd5b5060405162001a5b38038062001a5b8339818101604052810190620000379190620001e0565b6001600081905550600073ffffffffffffffffffffffffffffffffffffffff168273ffffffffffffffffffffffffffffffffffffffff1614158015620000aa5750600073ffffffffffffffffffffffffffffffffffffffff168173ffffffffffffffffffffffffffffffffffffffff1614155b620000ec576040517f08c379a0000000000000000000000000000000000000000000000000000000008152600401620000e39062000288565b60405180910390fd5b81600160006101000a81548173ffffffffffffffffffffffffffffffffffffffff021916908373ffffffffffffffffffffffffffffffffffffffff16021790555080600260006101000a81548173ffffffffffffffffffffffffffffffffffffffff021916908373ffffffffffffffffffffffffffffffffffffffff1602179055505050620002aa565b600080fd5b600073ffffffffffffffffffffffffffffffffffffffff82169050919050565b6000620001a8826200017b565b9050919050565b620001ba816200019b565b8114620001c657600080fd5b50565b600081519050620001da81620001af565b92915050565b60008060408385031215620001fa57620001f962000176565b5b60006200020a85828601620001c9565b92505060206200021d85828601620001c9565b9150509250929050565b600082825260208201905092915050565b7f496e76616c696420746f6b656e20616464726573736573000000000000000000600082015250565b60006200027060178362000227565b91506200027d8262000238565b602082019050919050565b60006020820190508181036000830152620002a38162000261565b9050919050565b6117a180620002ba6000396000f3fe608060405234801561001057600080fd5b50600436106100885760003560e01c80639c8f9f231161005b5780639c8f9f23146101185780639cd441da14610149578063ce7c2ac214610179578063d21220a7146101a957610088565b80630902f1ac1461008d57806325be124e146100ac5780632aea6605146100ca5780633a98ef39146100fa575b600080fd5b6100956101c7565b6040516100a3929190610f43565b60405180910390f35b6100b461030a565b6040516100c19190610feb565b60405180910390f35b6100e460048036038101906100df919061106f565b610330565b6040516100f191906110af565b60405180910390f35b610102610790565b60405161010f91906110af565b60405180910390f35b610132600480360381019061012d91906110ca565b610796565b604051610140929190610f43565b60405180910390f35b610163600480360381019061015e91906110f7565b610ad5565b60405161017091906110af565b60405180910390f35b610193600480360381019061018e9190611175565b610e00565b6040516101a091906110af565b60405180910390f35b6101b1610e18565b6040516101be9190610feb565b60405180910390f35b600080600160009054906101000a900473ffffffffffffffffffffffffffffffffffffffff1673ffffffffffffffffffffffffffffffffffffffff166370a08231306040518263ffffffff1660e01b815260040161022591906111b1565b602060405180830381865afa158015610242573d6000803e3d6000fd5b505050506040513d601f19601f8201168201806040525081019061026691906111e1565b9150600260009054906101000a900473ffffffffffffffffffffffffffffffffffffffff1673ffffffffffffffffffffffffffffffffffffffff166370a08231306040518263ffffffff1660e01b81526004016102c391906111b1565b602060405180830381865afa1580156102e0573d6000803e3d6000fd5b505050506040513d601f19601f8201168201806040525081019061030491906111e1565b90509091565b600260009054906101000a900473ffffffffffffffffffffffffffffffffffffffff1681565b600061033a610e3e565b6000831161037d576040517f08c379a00000000000000000000000000000000000000000000000000000000081526004016103749061126b565b60405180910390fd5b6000806103886101c7565b91509150831561056257600160009054906101000a900473ffffffffffffffffffffffffffffffffffffffff1673ffffffffffffffffffffffffffffffffffffffff166323b872dd3330886040518463ffffffff1660e01b81526004016103f19392919061128b565b6020604051808303816000875af1158015610410573d6000803e3d6000fd5b505050506040513d601f19601f8201168201806040525081019061043491906112d7565b5060006103e86103e5876104489190611333565b61045291906113a4565b9050808361046091906113d5565b828261046c9190611333565b61047691906113a4565b9350600084116104bb576040517f08c379a00000000000000000000000000000000000000000000000000000000081526004016104b290611455565b60405180910390fd5b600260009054906101000a900473ffffffffffffffffffffffffffffffffffffffff1673ffffffffffffffffffffffffffffffffffffffff1663a9059cbb33866040518363ffffffff1660e01b8152600401610518929190611475565b6020604051808303816000875af1158015610537573d6000803e3d6000fd5b505050506040513d601f19601f8201168201806040525081019061055b91906112d7565b505061072e565b600260009054906101000a900473ffffffffffffffffffffffffffffffffffffffff1673ffffffffffffffffffffffffffffffffffffffff166323b872dd3330886040518463ffffffff1660e01b81526004016105c19392919061128b565b6020604051808303816000875af11580156105e0573d6000803e3d6000fd5b505050506040513d601f19601f8201168201806040525081019061060491906112d7565b5060006103e86103e5876106189190611333565b61062291906113a4565b9050808261063091906113d5565b838261063c9190611333565b61064691906113a4565b93506000841161068b576040517f08c379a000000000000000000000000000000000000000000000000000000000815260040161068290611455565b60405180910390fd5b600160009054906101000a900473ffffffffffffffffffffffffffffffffffffffff1673ffffffffffffffffffffffffffffffffffffffff1663a9059cbb33866040518363ffffffff1660e01b81526004016106e8929190611475565b6020604051808303816000875af1158015610707573d6000803e3d6000fd5b505050506040513d601f19601f8201168201806040525081019061072b91906112d7565b50505b3373ffffffffffffffffffffffffffffffffffffffff167fcc65e4d9060ece2ecf63011ac580550b04c8daeba63fac4dfe8669353cd88859868587604051610778939291906114ad565b60405180910390a2505061078a610e8d565b92915050565b60035481565b6000806107a1610e3e565b6000831180156107f0575082600460003373ffffffffffffffffffffffffffffffffffffffff1673ffffffffffffffffffffffffffffffffffffffff1681526020019081526020016000205410155b61082f576040517f08c379a000000000000000000000000000000000000000000000000000000000815260040161082690611530565b60405180910390fd5b60008061083a6101c7565b91509150600354828661084d9190611333565b61085791906113a4565b935060035481866108689190611333565b61087291906113a4565b92506000841180156108845750600083115b6108c3576040517f08c379a00000000000000000000000000000000000000000000000000000000081526004016108ba9061159c565b60405180910390fd5b84600460003373ffffffffffffffffffffffffffffffffffffffff1673ffffffffffffffffffffffffffffffffffffffff168152602001908152602001600020600082825461091291906115bc565b92505081905550846003600082825461092b91906115bc565b92505081905550600160009054906101000a900473ffffffffffffffffffffffffffffffffffffffff1673ffffffffffffffffffffffffffffffffffffffff1663a9059cbb33866040518363ffffffff1660e01b815260040161098f929190611475565b6020604051808303816000875af11580156109ae573d6000803e3d6000fd5b505050506040513d601f19601f820116820180604052508101906109d291906112d7565b50600260009054906101000a900473ffffffffffffffffffffffffffffffffffffffff1673ffffffffffffffffffffffffffffffffffffffff1663a9059cbb33856040518363ffffffff1660e01b8152600401610a30929190611475565b6020604051808303816000875af1158015610a4f573d6000803e3d6000fd5b505050506040513d601f19601f82011682018060405250810190610a7391906112d7565b503373ffffffffffffffffffffffffffffffffffffffff167f1dc8bb69df2b8e91fbdcbfcf93d951b3f0000f085a95fe3f7946d6161439245d858588604051610abe939291906115f0565b60405180910390a25050610ad0610e8d565b915091565b6000610adf610e3e565b600083118015610aef5750600082115b610b2e576040517f08c379a0000000000000000000000000000000000000000000000000000000008152600401610b2590611673565b60405180910390fd5b600160009054906101000a900473ffffffffffffffffffffffffffffffffffffffff1673ffffffffffffffffffffffffffffffffffffffff166323b872dd3330866040518463ffffffff1660e01b8152600401610b8d9392919061128b565b6020604051808303816000875af1158015610bac573d6000803e3d6000fd5b505050506040513d601f19601f82011682018060405250810190610bd091906112d7565b50600260009054906101000a900473ffffffffffffffffffffffffffffffffffffffff1673ffffffffffffffffffffffffffffffffffffffff166323b872dd3330856040518463ffffffff1660e01b8152600401610c309392919061128b565b6020604051808303816000875af1158015610c4f573d6000803e3d6000fd5b505050506040513d601f19601f82011682018060405250810190610c7391906112d7565b50600060035403610ca057610c928284610c8d9190611333565b610e97565b905080600381905550610cee565b600080610cab6101c7565b91509150610ce98260035487610cc19190611333565b610ccb91906113a4565b8260035487610cda9190611333565b610ce491906113a4565b610f11565b925050505b60008111610d31576040517f08c379a0000000000000000000000000000000000000000000000000000000008152600401610d28906116df565b60405180910390fd5b80600460003373ffffffffffffffffffffffffffffffffffffffff1673ffffffffffffffffffffffffffffffffffffffff1681526020019081526020016000206000828254610d8091906113d5565b925050819055508060036000828254610d9991906113d5565b925050819055503373ffffffffffffffffffffffffffffffffffffffff167f64b83944e79c3ce8d4c297411de637c3e102d064677aac0c163976ebdcd6f50e848484604051610dea939291906115f0565b60405180910390a2610dfa610e8d565b92915050565b60046020528060005260406000206000915090505481565b600160009054906101000a900473ffffffffffffffffffffffffffffffffffffffff1681565b600260005403610e83576040517f08c379a0000000000000000000000000000000000000000000000000000000008152600401610e7a9061174b565b60405180910390fd5b6002600081905550565b6001600081905550565b60006003821115610efe5781905060006001600284610eb691906113a4565b610ec091906113d5565b90505b81811015610ef8578091506002818285610edd91906113a4565b610ee791906113d5565b610ef191906113a4565b9050610ec3565b50610f0c565b60008214610f0b57600190505b5b919050565b6000818310610f205781610f22565b825b905092915050565b6000819050919050565b610f3d81610f2a565b82525050565b6000604082019050610f586000830185610f34565b610f656020830184610f34565b9392505050565b600073ffffffffffffffffffffffffffffffffffffffff82169050919050565b6000819050919050565b6000610fb1610fac610fa784610f6c565b610f8c565b610f6c565b9050919050565b6000610fc382610f96565b9050919050565b6000610fd582610fb8565b9050919050565b610fe581610fca565b82525050565b60006020820190506110006000830184610fdc565b92915050565b600080fd5b61101481610f2a565b811461101f57600080fd5b50565b6000813590506110318161100b565b92915050565b60008115159050919050565b61104c81611037565b811461105757600080fd5b50565b60008135905061106981611043565b92915050565b6000806040838503121561108657611085611006565b5b600061109485828601611022565b92505060206110a58582860161105a565b9150509250929050565b60006020820190506110c46000830184610f34565b92915050565b6000602082840312156110e0576110df611006565b5b60006110ee84828501611022565b91505092915050565b6000806040838503121561110e5761110d611006565b5b600061111c85828601611022565b925050602061112d85828601611022565b9150509250929050565b600061114282610f6c565b9050919050565b61115281611137565b811461115d57600080fd5b50565b60008135905061116f81611149565b92915050565b60006020828403121561118b5761118a611006565b5b600061119984828501611160565b91505092915050565b6111ab81611137565b82525050565b60006020820190506111c660008301846111a2565b92915050565b6000815190506111db8161100b565b92915050565b6000602082840312156111f7576111f6611006565b5b6000611205848285016111cc565b91505092915050565b600082825260208201905092915050565b7f496e76616c696420696e70757420616d6f756e74000000000000000000000000600082015250565b600061125560148361120e565b91506112608261121f565b602082019050919050565b6000602082019050818103600083015261128481611248565b9050919050565b60006060820190506112a060008301866111a2565b6112ad60208301856111a2565b6112ba6040830184610f34565b949350505050565b6000815190506112d181611043565b92915050565b6000602082840312156112ed576112ec611006565b5b60006112fb848285016112c2565b91505092915050565b7f4e487b7100000000000000000000000000000000000000000000000000000000600052601160045260246000fd5b600061133e82610f2a565b915061134983610f2a565b925082820261135781610f2a565b9150828204841483151761136e5761136d611304565b5b5092915050565b7f4e487b7100000000000000000000000000000000000000000000000000000000600052601260045260246000fd5b60006113af82610f2a565b91506113ba83610f2a565b9250826113ca576113c9611375565b5b828204905092915050565b60006113e082610f2a565b91506113eb83610f2a565b925082820190508082111561140357611402611304565b5b92915050565b7f496e73756666696369656e74206f757470757420616d6f756e74000000000000600082015250565b600061143f601a8361120e565b915061144a82611409565b602082019050919050565b6000602082019050818103600083015261146e81611432565b9050919050565b600060408201905061148a60008301856111a2565b6114976020830184610f34565b9392505050565b6114a781611037565b82525050565b60006060820190506114c26000830186610f34565b6114cf6020830185610f34565b6114dc604083018461149e565b949350505050565b7f496e76616c696420736861726520616d6f756e74000000000000000000000000600082015250565b600061151a60148361120e565b9150611525826114e4565b602082019050919050565b600060208201905081810360008301526115498161150d565b9050919050565b7f496e73756666696369656e74206c69717569646974792072656d6f7665640000600082015250565b6000611586601e8361120e565b915061159182611550565b602082019050919050565b600060208201905081810360008301526115b581611579565b9050919050565b60006115c782610f2a565b91506115d283610f2a565b92508282039050818111156115ea576115e9611304565b5b92915050565b60006060820190506116056000830186610f34565b6116126020830185610f34565b61161f6040830184610f34565b949350505050565b7f416d6f756e7473206d7573742062652067726561746572207468616e20300000600082015250565b600061165d601e8361120e565b915061166882611627565b602082019050919050565b6000602082019050818103600083015261168c81611650565b9050919050565b7f496e73756666696369656e74206c697175696469747920616464656400000000600082015250565b60006116c9601c8361120e565b91506116d482611693565b602082019050919050565b600060208201905081810360008301526116f8816116bc565b9050919050565b7f5265656e7472616e637947756172643a207265656e7472616e742063616c6c00600082015250565b6000611735601f8361120e565b9150611740826116ff565b602082019050919050565b6000602082019050818103600083015261176481611728565b905091905056fea26469706673582212204399785f1cb800725a6c0fcb8ab1dba538d5c26d680249bf2fe43fcb156afc8664736f6c63430008140033",
          "opcodes": "PUSH1 0x80 PUSH1 0x40 MSTORE CALLVALUE DUP1 ISZERO PUSH3 0x11 JUMPI PUSH1 0x0 DUP1 REVERT JUMPDEST POP PUSH1 0x40 MLOAD PUSH3 0x1A5B CODESIZE SUB DUP1 PUSH3 0x1A5B DUP4 CODECOPY DUP2 DUP2 ADD PUSH1 0x40 MSTORE DUP2 ADD SWAP1 PUSH3 0x37 SWAP2 SWAP1 PUSH3 0x1E0 JUMP JUMPDEST PUSH1 0x1 PUSH1 0x0 DUP2 SWAP1 SSTORE POP PUSH1 0x0 PUSH20 0xFFFFFFFFFFFFFFFFFFFFFFFFFFFFFFFFFFFFFFFF AND DUP3 PUSH20 0xFFFFFFFFFFFFFFFFFFFFFFFFFFFFFFFFFFFFFFFF AND EQ ISZERO DUP1 ISZERO PUSH3 0xAA JUMPI POP PUSH1 0x0 PUSH20 0xFFFFFFFFFFFFFFFFFFFFFFFFFFFFFFFFFFFFFFFF AND DUP2 PUSH20 0xFFFFFFFFFFFFFFFFFFFFFFFFFFFFFFFFFFFFFFFF AND EQ ISZERO JUMPDEST PUSH3 0xEC JUMPI PUSH1 0x40 MLOAD PUSH32 0x8C379A000000000000000000000000000000000000000000000000000000000 DUP2 MSTORE PUSH1 0x4 ADD PUSH3 0xE3 SWAP1 PUSH3 0x288 JUMP JUMPDEST PUSH1 0x40 MLOAD DUP1 SWAP2 SUB SWAP1 REVERT JUMPDEST DUP2 PUSH1 0x1 PUSH1 0x0 PUSH2 0x100 EXP DUP2 SLOAD DUP2 PUSH20 0xFFFFFFFFFFFFFFFFFFFFFFFFFFFFFFFFFFFFFFFF MUL NOT AND SWAP1 DUP4 PUSH20 0xFFFFFFFFFFFFFFFFFFFFFFFFFFFFFFFFFFFFFFFF AND MUL OR SWAP1 SSTORE POP DUP1 PUSH1 0x2 PUSH1 0x0 PUSH2 0x100 EXP DUP2 SLOAD DUP2 PUSH20 0xFFFFFFFFFFFFFFFFFFFFFFFFFFFFFFFFFFFFFFFF MUL NOT AND SWAP1 DUP4 PUSH20 0xFFFFFFFFFFFFFFFFFFFFFFFFFFFFFFFFFFFFFFFF AND MUL OR SWAP1 SSTORE POP POP POP PUSH3 0x2AA JUMP JUMPDEST PUSH1 0x0 DUP1 REVERT JUMPDEST PUSH1 0x0 PUSH20 0xFFFFFFFFFFFFFFFFFFFFFFFFFFFFFFFFFFFFFFFF DUP3 AND SWAP1 POP SWAP2 SWAP1 POP JUMP JUMPDEST PUSH1 0x0 PUSH3 0x1A8 DUP3 PUSH3 0x17B JUMP JUMPDEST SWAP1 POP SWAP2 SWAP1 POP JUMP JUMPDEST PUSH3 0x1BA DUP2 PUSH3 0x19B JUMP JUMPDEST DUP2 EQ PUSH3 0x1C6 JUMPI PUSH1 0x0 DUP1 REVERT JUMPDEST POP JUMP JUMPDEST PUSH1 0x0 DUP2 MLOAD SWAP1 POP PUSH3 0x1DA DUP2 PUSH3 0x1AF JUMP JUMPDEST SWAP3 SWAP2 POP POP JUMP JUMPDEST PUSH1 0x0 DUP1 PUSH1 0x40 DUP4 DUP6 SUB SLT ISZERO PUSH3 0x1FA JUMPI PUSH3 0x1F9 PUSH3 0x176 JUMP JUMPDEST JUMPDEST PUSH1 0x0 PUSH3 0x20A DUP6 DUP3 DUP7 ADD PUSH3 0x1C9 JUMP JUMPDEST SWAP3 POP POP PUSH1 0x20 PUSH3 0x21D DUP6 DUP3 DUP7 ADD PUSH3 0x1C9 JUMP JUMPDEST SWAP2 POP POP SWAP3 POP SWAP3 SWAP1 POP JUMP JUMPDEST PUSH1 0x0 DUP3 DUP3 MSTORE PUSH1 0x20 DUP3 ADD SWAP1 POP SWAP3 SWAP2 POP POP JUMP JUMPDEST PUSH32 0x496E76616C696420746F6B656E20616464726573736573000000000000000000 PUSH1 0x0 DUP3 ADD MSTORE POP JUMP JUMPDEST PUSH1 0x0 PUSH3 0x270 PUSH1 0x17 DUP4 PUSH3 0x227 JUMP JUMPDEST SWAP2 POP PUSH3 0x27D DUP3 PUSH3 0x238 JUMP JUMPDEST PUSH1 0x20 DUP3 ADD SWAP1 POP SWAP2 SWAP1 POP JUMP JUMPDEST PUSH1 0x0 PUSH1 0x20 DUP3 ADD SWAP1 POP DUP2 DUP2 SUB PUSH1 0x0 DUP4 ADD MSTORE PUSH3 0x2A3 DUP2 PUSH3 0x261 JUMP JUMPDEST SWAP1 POP SWAP2 SWAP1 POP JUMP JUMPDEST PUSH2 0x17A1 DUP1 PUSH3 0x2BA PUSH1 0x0 CODECOPY PUSH1 0x0 RETURN INVALID PUSH1 0x80 PUSH1 0x40 MSTORE CALLVALUE DUP1 ISZERO PUSH2 0x10 JUMPI PUSH1 0x0 DUP1 REVERT JUMPDEST POP PUSH1 0x4 CALLDATASIZE LT PUSH2 0x88 JUMPI PUSH1 0x0 CALLDATALOAD PUSH1 0xE0 SHR DUP1 PUSH4 0x9C8F9F23 GT PUSH2 0x5B JUMPI DUP1 PUSH4 0x9C8F9F23 EQ PUSH2 0x118 JUMPI DUP1 PUSH4 0x9CD441DA EQ PUSH2 0x149 JUMPI DUP1 PUSH4 0xCE7C2AC2 EQ PUSH2 0x179 JUMPI DUP1 PUSH4 0xD21220A7 EQ PUSH2 0x1A9 JUMPI PUSH2 0x88 JUMP JUMPDEST DUP1 PUSH4 0x902F1AC EQ PUSH2 0x8D JUMPI DUP1 PUSH4 0x25BE124E EQ PUSH2 0xAC JUMPI DUP1 PUSH4 0x2AEA6605 EQ PUSH2 0xCA JUMPI DUP1 PUSH4 0x3A98EF39 EQ PUSH2 0xFA JUMPI JUMPDEST PUSH1 0x0 DUP1 REVERT JUMPDEST PUSH2 0x95 PUSH2 0x1C7 JUMP JUMPDEST PUSH1 0x40 MLOAD PUSH2 0xA3 SWAP3 SWAP2 SWAP1 PUSH2 0xF43 JUMP JUMPDEST PUSH1 0x40 MLOAD DUP1 SWAP2 SUB SWAP1 RETURN JUMPDEST PUSH2 0xB4 PUSH2 0x30A JUMP JUMPDEST PUSH1 0x40 MLOAD PUSH2 0xC1 SWAP2 SWAP1 PUSH2 0xFEB JUMP JUMPDEST PUSH1 0x40 MLOAD DUP1 SWAP2 SUB SWAP1 RETURN JUMPDEST PUSH2 0xE4 PUSH1 0x4 DUP1 CALLDATASIZE SUB DUP2 ADD SWAP1 PUSH2 0xDF SWAP2 SWAP1 PUSH2 0x106F JUMP JUMPDEST PUSH2 0x330 JUMP JUMPDEST PUSH1 0x40 MLOAD PUSH2 0xF1 SWAP2 SWAP1 PUSH2 0x10AF JUMP JUMPDEST PUSH1 0x40 MLOAD DUP1 SWAP2 SUB SWAP1 RETURN JUMPDEST PUSH2 0x102 PUSH2 0x790 JUMP JUMPDEST PUSH1 0x40 MLOAD PUSH2 0x10F SWAP2 SWAP1 PUSH2 0x10AF JUMP JUMPDEST PUSH1 0x40 MLOAD DUP1 SWAP2 SUB SWAP1 RETURN JUMPDEST PUSH2 0x132 PUSH1 0x4 DUP1 CALLDATASIZE SUB DUP2 ADD SWAP1 PUSH2 0x12D SWAP2 SWAP1 PUSH2 0x10CA JUMP JUMPDEST PUSH2 0x796 JUMP JUMPDEST PUSH1 0x40 MLOAD PUSH2 0x140 SWAP3 SWAP2 SWAP1 PUSH2 0xF43 JUMP JUMPDEST PUSH1 0x40 MLOAD DUP1 SWAP2 SUB SWAP1 RETURN JUMPDEST PUSH2 0x163 PUSH1 0x4 DUP1 CALLDATASIZE SUB DUP2 ADD SWAP1 PUSH2 0x15E SWAP2 SWAP1 PUSH2 0x10F7 JUMP JUMPDEST PUSH2 0xAD5 JUMP JUMPDEST PUSH1 0x40 MLOAD PUSH2 0x170 SWAP2 SWAP1 PUSH2 0x10AF JUMP JUMPDEST PUSH1 0x40 MLOAD DUP1 SWAP2 SUB SWAP1 RETURN JUMPDEST PUSH2 0x193 PUSH1 0x4 DUP1 CALLDATASIZE SUB DUP2 ADD SWAP1 PUSH2 0x18E SWAP2 SWAP1 PUSH2 0x1175 JUMP JUMPDEST PUSH2 0xE00 JUMP JUMPDEST PUSH1 0x40 MLOAD PUSH2 0x1A0 SWAP2 SWAP1 PUSH2 0x10AF JUMP JUMPDEST PUSH1 0x40 MLOAD DUP1 SWAP2 SUB SWAP1 RETURN JUMPDEST PUSH2 0x1B1 PUSH2 0xE18 JUMP JUMPDEST PUSH1 0x40 MLOAD PUSH2 0x1BE SWAP2 SWAP1 PUSH2 0xFEB JUMP JUMPDEST PUSH1 0x40 MLOAD DUP1 SWAP2 SUB SWAP1 RETURN JUMPDEST PUSH1 0x0 DUP1 PUSH1 0x1 PUSH1 0x0 SWAP1 SLOAD SWAP1 PUSH2 0x100 EXP SWAP1 DIV PUSH20 0xFFFFFFFFFFFFFFFFFFFFFFFFFFFFFFFFFFFFFFFF AND PUSH20 0xFFFFFFFFFFFFFFFFFFFFFFFFFFFFFFFFFFFFFFFF AND PUSH4 0x70A08231 ADDRESS PUSH1 0x40 MLOAD DUP3 PUSH4 0xFFFFFFFF AND PUSH1 0xE0 SHL DUP2 MSTORE PUSH1 0x4 ADD PUSH2 0x225 SWAP2 SWAP1 PUSH2 0x11B1 JUMP JUMPDEST PUSH1 0x20 PUSH1 0x40 MLOAD DUP1 DUP4 SUB DUP2 DUP7 GAS STATICCALL ISZERO DUP1 ISZERO PUSH2 0x242 JUMPI RETURNDATASIZE PUSH1 0x0 DUP1 RETURNDATACOPY RETURNDATASIZE PUSH1 0x0 REVERT JUMPDEST POP POP POP POP PUSH1 0x40 MLOAD RETURNDATASIZE PUSH1 0x1F NOT PUSH1 0x1F DUP3 ADD AND DUP3 ADD DUP1 PUSH1 0x40 MSTORE POP DUP2 ADD SWAP1 PUSH2 0x266 SWAP2 SWAP1 PUSH2 0x11E1 JUMP JUMPDEST SWAP2 POP PUSH1 0x2 PUSH1 0x0 SWAP1 SLOAD SWAP1 PUSH2 0x100 EXP SWAP1 DIV PUSH20 0xFFFFFFFFFFFFFFFFFFFFFFFFFFFFFFFFFFFFFFFF AND PUSH20 0xFFFFFFFFFFFFFFFFFFFFFFFFFFFFFFFFFFFFFFFF AND PUSH4 0x70A08231 ADDRESS PUSH1 0x40 MLOAD DUP3 PUSH4 0xFFFFFFFF AND PUSH1 0xE0 SHL DUP2 MSTORE PUSH1 0x4 ADD PUSH2 0x2C3 SWAP2 SWAP1 PUSH2 0x11B1 JUMP JUMPDEST PUSH1 0x20 PUSH1 0x40 MLOAD DUP1 DUP4 SUB DUP2 DUP7 GAS STATICCALL ISZERO DUP1 ISZERO PUSH2 0x2E0 JUMPI RETURNDATASIZE PUSH1 0x0 DUP1 RETURNDATACOPY RETURNDATASIZE PUSH1 0x0 REVERT JUMPDEST POP POP POP POP PUSH1 0x40 MLOAD RETURNDATASIZE PUSH1 0x1F NOT PUSH1 0x1F DUP3 ADD AND DUP3 ADD DUP1 PUSH1 0x40 MSTORE POP DUP2 ADD SWAP1 PUSH2 0x304 SWAP2 SWAP1 PUSH2 0x11E1 JUMP JUMPDEST SWAP1 POP SWAP1 SWAP2 JUMP JUMPDEST PUSH1 0x2 PUSH1 0x0 SWAP1 SLOAD SWAP1 PUSH2 0x100 EXP SWAP1 DIV PUSH20 0xFFFFFFFFFFFFFFFFFFFFFFFFFFFFFFFFFFFFFFFF AND DUP2 JUMP JUMPDEST PUSH1 0x0 PUSH2 0x33A PUSH2 0xE3E JUMP JUMPDEST PUSH1 0x0 DUP4 GT PUSH2 0x37D JUMPI PUSH1 0x40 MLOAD PUSH32 0x8C379A000000000000000000000000000000000000000000000000000000000 DUP2 MSTORE PUSH1 0x4 ADD PUSH2 0x374 SWAP1 PUSH2 0x126B JUMP JUMPDEST PUSH1 0x40 MLOAD DUP1 SWAP2 SUB SWAP1 REVERT JUMPDEST PUSH1 0x0 DUP1 PUSH2 0x388 PUSH2 0x1C7 JUMP JUMPDEST SWAP2 POP SWAP2 POP DUP4 ISZERO PUSH2 0x562 JUMPI PUSH1 0x1 PUSH1 0x0 SWAP1 SLOAD SWAP1 PUSH2 0x100 EXP SWAP1 DIV PUSH20 0xFFFFFFFFFFFFFFFFFFFFFFFFFFFFFFFFFFFFFFFF AND PUSH20 0xFFFFFFFFFFFFFFFFFFFFFFFFFFFFFFFFFFFFFFFF AND PUSH4 0x23B872DD CALLER ADDRESS DUP9 PUSH1 0x40 MLOAD DUP5 PUSH4 0xFFFFFFFF AND PUSH1 0xE0 SHL DUP2 MSTORE PUSH1 0x4 ADD PUSH2 0x3F1 SWAP4 SWAP3 SWAP2 SWAP1 PUSH2 0x128B JUMP JUMPDEST PUSH1 0x20 PUSH1 0x40 MLOAD DUP1 DUP4 SUB DUP2 PUSH1 0x0 DUP8 GAS CALL ISZERO DUP1 ISZERO PUSH2 0x410 JUMPI RETURNDATASIZE PUSH1 0x0 DUP1 RETURNDATACOPY RETURNDATASIZE PUSH1 0x0 REVERT JUMPDEST POP POP POP POP PUSH1 0x40 MLOAD RETURNDATASIZE PUSH1 0x1F NOT PUSH1 0x1F DUP3 ADD AND DUP3 ADD DUP1 PUSH1 0x40 MSTORE POP DUP2 ADD SWAP1 PUSH2 0x434 SWAP2 SWAP1 PUSH2 0x12D7 JUMP JUMPDEST POP PUSH1 0x0 PUSH2 0x3E8 PUSH2 0x3E5 DUP8 PUSH2 0x448 SWAP2 SWAP1 PUSH2 0x1333 JUMP JUMPDEST PUSH2 0x452 SWAP2 SWAP1 PUSH2 0x13A4 JUMP JUMPDEST SWAP1 POP DUP1 DUP4 PUSH2 0x460 SWAP2 SWAP1 PUSH2 0x13D5 JUMP JUMPDEST DUP3 DUP3 PUSH2 0x46C SWAP2 SWAP1 PUSH2 0x1333 JUMP JUMPDEST PUSH2 0x476 SWAP2 SWAP1 PUSH2 0x13A4 JUMP JUMPDEST SWAP4 POP PUSH1 0x0 DUP5 GT PUSH2 0x4BB JUMPI PUSH1 0x40 MLOAD PUSH32 0x8C379A000000000000000000000000000000000000000000000000000000000 DUP2 MSTORE PUSH1 0x4 ADD PUSH2 0x4B2 SWAP1 PUSH2 0x1455 JUMP JUMPDEST PUSH1 0x40 MLOAD DUP1 SWAP2 SUB SWAP1 REVERT JUMPDEST PUSH1 0x2 PUSH1 0x0 SWAP1 SLOAD SWAP1 PUSH2 0x100 EXP SWAP1 DIV PUSH20 0xFFFFFFFFFFFFFFFFFFFFFFFFFFFFFFFFFFFFFFFF AND PUSH20 0xFFFFFFFFFFFFFFFFFFFFFFFFFFFFFFFFFFFFFFFF AND PUSH4 0xA9059CBB CALLER DUP7 PUSH1 0x40 MLOAD DUP4 PUSH4 0xFFFFFFFF AND PUSH1 0xE0 SHL DUP2 MSTORE PUSH1 0x4 ADD PUSH2 0x518 SWAP3 SWAP2 SWAP1 PUSH2 0x1475 JUMP JUMPDEST PUSH1 0x20 PUSH1 0x40 MLOAD DUP1 DUP4 SUB DUP2 PUSH1 0x0 DUP8 GAS CALL ISZERO DUP1 ISZERO PUSH2 0x537 JUMPI RETURNDATASIZE PUSH1 0x0 DUP1 RETURNDATACOPY RETURNDATASIZE PUSH1 0x0 REVERT JUMPDEST POP POP POP POP PUSH1 0x40 MLOAD RETURNDATASIZE PUSH1 0x1F NOT PUSH1 0x1F DUP3 ADD AND DUP3 ADD DUP1 PUSH1 0x40 MSTORE POP DUP2 ADD SWAP1 PUSH2 0x55B SWAP2 SWAP1 PUSH2 0x12D7 JUMP JUMPDEST POP POP PUSH2 0x72E JUMP JUMPDEST PUSH1 0x2 PUSH1 0x0 SWAP1 SLOAD SWAP1 PUSH2 0x100 EXP SWAP1 DIV PUSH20 0xFFFFFFFFFFFFFFFFFFFFFFFFFFFFFFFFFFFFFFFF AND PUSH20 0xFFFFFFFFFFFFFFFFFFFFFFFFFFFFFFFFFFFFFFFF AND PUSH4 0x23B872DD CALLER ADDRESS DUP9 PUSH1 0x40 MLOAD DUP5 PUSH4 0xFFFFFFFF AND PUSH1 0xE0 SHL DUP2 MSTORE PUSH1 0x4 ADD PUSH2 0x5C1 SWAP4 SWAP3 SWAP2 SWAP1 PUSH2 0x128B JUMP JUMPDEST PUSH1 0x20 PUSH1 0x40 MLOAD DUP1 DUP4 SUB DUP2 PUSH1 0x0 DUP8 GAS CALL ISZERO DUP1 ISZERO PUSH2 0x5E0 JUMPI RETURNDATASIZE PUSH1 0x0 DUP1 RETURNDATACOPY RETURNDATASIZE PUSH1 0x0 REVERT JUMPDEST POP POP POP POP PUSH1 0x40 MLOAD RETURNDATASIZE PUSH1 0x1F NOT PUSH1 0x1F DUP3 ADD AND DUP3 ADD DUP1 PUSH1 0x40 MSTORE POP DUP2 ADD SWAP1 PUSH2 0x604 SWAP2 SWAP1 PUSH2 0x12D7 JUMP JUMPDEST POP PUSH1 0x0 PUSH2 0x3E8 PUSH2 0x3E5 DUP8 PUSH2 0x618 SWAP2 SWAP1 PUSH2 0x1333 JUMP JUMPDEST PUSH2 0x622 SWAP2 SWAP1 PUSH2 0x13A4 JUMP JUMPDEST SWAP1 POP DUP1 DUP3 PUSH2 0x630 SWAP2 SWAP1 PUSH2 0x13D5 JUMP JUMPDEST DUP4 DUP3 PUSH2 0x63C SWAP2 SWAP1 PUSH2 0x1333 JUMP JUMPDEST PUSH2 0x646 SWAP2 SWAP1 PUSH2 0x13A4 JUMP JUMPDEST SWAP4 POP PUSH1 0x0 DUP5 GT PUSH2 0x68B JUMPI PUSH1 0x40 MLOAD PUSH32 0x8C379A000000000000000000000000000000000000000000000000000000000 DUP2 MSTORE PUSH1 0x4 ADD PUSH2 0x682 SWAP1 PUSH2 0x1455 JUMP JUMPDEST PUSH1 0x40 MLOAD DUP1 SWAP2 SUB SWAP1 REVERT JUMPDEST PUSH1 0x1 PUSH1 0x0 SWAP1 SLOAD SWAP1 PUSH2 0x100 EXP SWAP1 DIV PUSH20 0xFFFFFFFFFFFFFFFFFFFFFFFFFFFFFFFFFFFFFFFF AND PUSH20 0xFFFFFFFFFFFFFFFFFFFFFFFFFFFFFFFFFFFFFFFF AND PUSH4 0xA9059CBB CALLER DUP7 PUSH1 0x40 MLOAD DUP4 PUSH4 0xFFFFFFFF AND PUSH1 0xE0 SHL DUP2 MSTORE PUSH1 0x4 ADD PUSH2 0x6E8 SWAP3 SWAP2 SWAP1 PUSH2 0x1475 JUMP JUMPDEST PUSH1 0x20 PUSH1 0x40 MLOAD DUP1 DUP4 SUB DUP2 PUSH1 0x0 DUP8 GAS CALL ISZERO DUP1 ISZERO PUSH2 0x707 JUMPI RETURNDATASIZE PUSH1 0x0 DUP1 RETURNDATACOPY RETURNDATASIZE PUSH1 0x0 REVERT JUMPDEST POP POP POP POP PUSH1 0x40 MLOAD RETURNDATASIZE PUSH1 0x1F NOT PUSH1 0x1F DUP3 ADD AND DUP3 ADD DUP1 PUSH1 0x40 MSTORE POP DUP2 ADD SWAP1 PUSH2 0x72B SWAP2 SWAP1 PUSH2 0x12D7 JUMP JUMPDEST POP POP JUMPDEST CALLER PUSH20 0xFFFFFFFFFFFFFFFFFFFFFFFFFFFFFFFFFFFFFFFF AND PUSH32 0xCC65E4D9060ECE2ECF63011AC580550B04C8DAEBA63FAC4DFE8669353CD88859 DUP7 DUP6 DUP8 PUSH1 0x40 MLOAD PUSH2 0x778 SWAP4 SWAP3 SWAP2 SWAP1 PUSH2 0x14AD JUMP JUMPDEST PUSH1 0x40 MLOAD DUP1 SWAP2 SUB SWAP1 LOG2 POP POP PUSH2 0x78A PUSH2 0xE8D JUMP JUMPDEST SWAP3 SWAP2 POP POP JUMP JUMPDEST PUSH1 0x3 SLOAD DUP2 JUMP JUMPDEST PUSH1 0x0 DUP1 PUSH2 0x7A1 PUSH2 0xE3E JUMP JUMPDEST PUSH1 0x0 DUP4 GT DUP1 ISZERO PUSH2 0x7F0 JUMPI POP DUP3 PUSH1 0x4 PUSH1 0x0 CALLER PUSH20 0xFFFFFFFFFFFFFFFFFFFFFFFFFFFFFFFFFFFFFFFF AND PUSH20 0xFFFFFFFFFFFFFFFFFFFFFFFFFFFFFFFFFFFFFFFF AND DUP2 MSTORE PUSH1 0x20 ADD SWAP1 DUP2 MSTORE PUSH1 0x20 ADD PUSH1 0x0 KECCAK256 SLOAD LT ISZERO JUMPDEST PUSH2 0x82F JUMPI PUSH1 0x40 MLOAD PUSH32 0x8C379A000000000000000000000000000000000000000000000000000000000 DUP2 MSTORE PUSH1 0x4 ADD PUSH2 0x826 SWAP1 PUSH2 0x1530 JUMP JUMPDEST PUSH1 0x40 MLOAD DUP1 SWAP2 SUB SWAP1 REVERT JUMPDEST PUSH1 0x0 DUP1 PUSH2 0x83A PUSH2 0x1C7 JUMP JUMPDEST SWAP2 POP SWAP2 POP PUSH1 0x3 SLOAD DUP3 DUP7 PUSH2 0x84D SWAP2 SWAP1 PUSH2 0x1333 JUMP JUMPDEST PUSH2 0x857 SWAP2 SWAP1 PUSH2 0x13A4 JUMP JUMPDEST SWAP4 POP PUSH1 0x3 SLOAD DUP2 DUP7 PUSH2 0x868 SWAP2 SWAP1 PUSH2 0x1333 JUMP JUMPDEST PUSH2 0x872 SWAP2 SWAP1 PUSH2 0x13A4 JUMP JUMPDEST SWAP3 POP PUSH1 0x0 DUP5 GT DUP1 ISZERO PUSH2 0x884 JUMPI POP PUSH1 0x0 DUP4 GT JUMPDEST PUSH2 0x8C3 JUMPI PUSH1 0x40 MLOAD PUSH32 0x8C379A000000000000000000000000000000000000000000000000000000000 DUP2 MSTORE PUSH1 0x4 ADD PUSH2 0x8BA SWAP1 PUSH2 0x159C JUMP JUMPDEST PUSH1 0x40 MLOAD DUP1 SWAP2 SUB SWAP1 REVERT JUMPDEST DUP5 PUSH1 0x4 PUSH1 0x0 CALLER PUSH20 0xFFFFFFFFFFFFFFFFFFFFFFFFFFFFFFFFFFFFFFFF AND PUSH20 0xFFFFFFFFFFFFFFFFFFFFFFFFFFFFFFFFFFFFFFFF AND DUP2 MSTORE PUSH1 0x20 ADD SWAP1 DUP2 MSTORE PUSH1 0x20 ADD PUSH1 0x0 KECCAK256 PUSH1 0x0 DUP3 DUP3 SLOAD PUSH2 0x912 SWAP2 SWAP1 PUSH2 0x15BC JUMP JUMPDEST SWAP3 POP POP DUP2 SWAP1 SSTORE POP DUP5 PUSH1 0x3 PUSH1 0x0 DUP3 DUP3 SLOAD PUSH2 0x92B SWAP2 SWAP1 PUSH2 0x15BC JUMP JUMPDEST SWAP3 POP POP DUP2 SWAP1 SSTORE POP PUSH1 0x1 PUSH1 0x0 SWAP1 SLOAD SWAP1 PUSH2 0x100 EXP SWAP1 DIV PUSH20 0xFFFFFFFFFFFFFFFFFFFFFFFFFFFFFFFFFFFFFFFF AND PUSH20 0xFFFFFFFFFFFFFFFFFFFFFFFFFFFFFFFFFFFFFFFF AND PUSH4 0xA9059CBB CALLER DUP7 PUSH1 0x40 MLOAD DUP4 PUSH4 0xFFFFFFFF AND PUSH1 0xE0 SHL DUP2 MSTORE PUSH1 0x4 ADD PUSH2 0x98F SWAP3 SWAP2 SWAP1 PUSH2 0x1475 JUMP JUMPDEST PUSH1 0x20 PUSH1 0x40 MLOAD DUP1 DUP4 SUB DUP2 PUSH1 0x0 DUP8 GAS CALL ISZERO DUP1 ISZERO PUSH2 0x9AE JUMPI RETURNDATASIZE PUSH1 0x0 DUP1 RETURNDATACOPY RETURNDATASIZE PUSH1 0x0 REVERT JUMPDEST POP POP POP POP PUSH1 0x40 MLOAD RETURNDATASIZE PUSH1 0x1F NOT PUSH1 0x1F DUP3 ADD AND DUP3 ADD DUP1 PUSH1 0x40 MSTORE POP DUP2 ADD SWAP1 PUSH2 0x9D2 SWAP2 SWAP1 PUSH2 0x12D7 JUMP JUMPDEST POP PUSH1 0x2 PUSH1 0x0 SWAP1 SLOAD SWAP1 PUSH2 0x100 EXP SWAP1 DIV PUSH20 0xFFFFFFFFFFFFFFFFFFFFFFFFFFFFFFFFFFFFFFFF AND PUSH20 0xFFFFFFFFFFFFFFFFFFFFFFFFFFFFFFFFFFFFFFFF AND PUSH4 0xA9059CBB CALLER DUP6 PUSH1 0x40 MLOAD DUP4 PUSH4 0xFFFFFFFF AND PUSH1 0xE0 SHL DUP2 MSTORE PUSH1 0x4 ADD PUSH2 0xA30 SWAP3 SWAP2 SWAP1 PUSH2 0x1475 JUMP JUMPDEST PUSH1 0x20 PUSH1 0x40 MLOAD DUP1 DUP4 SUB DUP2 PUSH1 0x0 DUP8 GAS CALL ISZERO DUP1 ISZERO PUSH2 0xA4F JUMPI RETURNDATASIZE PUSH1 0x0 DUP1 RETURNDATACOPY RETURNDATASIZE PUSH1 0x0 REVERT JUMPDEST POP POP POP POP PUSH1 0x40 MLOAD RETURNDATASIZE PUSH1 0x1F NOT PUSH1 0x1F DUP3 ADD AND DUP3 ADD DUP1 PUSH1 0x40 MSTORE POP DUP2 ADD SWAP1 PUSH2 0xA73 SWAP2 SWAP1 PUSH2 0x12D7 JUMP JUMPDEST POP CALLER PUSH20 0xFFFFFFFFFFFFFFFFFFFFFFFFFFFFFFFFFFFFFFFF AND PUSH32 0x1DC8BB69DF2B8E91FBDCBFCF93D951B3F0000F085A95FE3F7946D6161439245D DUP6 DUP6 DUP9 PUSH1 0x40 MLOAD PUSH2 0xABE SWAP4 SWAP3 SWAP2 SWAP1 PUSH2 0x15F0 JUMP JUMPDEST PUSH1 0x40 MLOAD DUP1 SWAP2 SUB SWAP1 LOG2 POP POP PUSH2 0xAD0 PUSH2 0xE8D JUMP JUMPDEST SWAP2 POP SWAP2 JUMP JUMPDEST PUSH1 0x0 PUSH2 0xADF PUSH2 0xE3E JUMP JUMPDEST PUSH1 0x0 DUP4 GT DUP1 ISZERO PUSH2 0xAEF JUMPI POP PUSH1 0x0 DUP3 GT JUMPDEST PUSH2 0xB2E JUMPI PUSH1 0x40 MLOAD PUSH32 0x8C379A000000000000000000000000000000000000000000000000000000000 DUP2 MSTORE PUSH1 0x4 ADD PUSH2 0xB25 SWAP1 PUSH2 0x1673 JUMP JUMPDEST PUSH1 0x40 MLOAD DUP1 SWAP2 SUB SWAP1 REVERT JUMPDEST PUSH1 0x1 PUSH1 0x0 SWAP1 SLOAD SWAP1 PUSH2 0x100 EXP SWAP1 DIV PUSH20 0xFFFFFFFFFFFFFFFFFFFFFFFFFFFFFFFFFFFFFFFF AND PUSH20 0xFFFFFFFFFFFFFFFFFFFFFFFFFFFFFFFFFFFFFFFF AND PUSH4 0x23B872DD CALLER ADDRESS DUP7 PUSH1 0x40 MLOAD DUP5 PUSH4 0xFFFFFFFF AND PUSH1 0xE0 SHL DUP2 MSTORE PUSH1 0x4 ADD PUSH2 0xB8D SWAP4 SWAP3 SWAP2 SWAP1 PUSH2 0x128B JUMP JUMPDEST PUSH1 0x20 PUSH1 0x40 MLOAD DUP1 DUP4 SUB DUP2 PUSH1 0x0 DUP8 GAS CALL ISZERO DUP1 ISZERO PUSH2 0xBAC JUMPI RETURNDATASIZE PUSH1 0x0 DUP1 RETURNDATACOPY RETURNDATASIZE PUSH1 0x0 REVERT JUMPDEST POP POP POP POP PUSH1 0x40 MLOAD RETURNDATASIZE PUSH1 0x1F NOT PUSH1 0x1F DUP3 ADD AND DUP3 ADD DUP1 PUSH1 0x40 MSTORE POP DUP2 ADD SWAP1 PUSH2 0xBD0 SWAP2 SWAP1 PUSH2 0x12D7 JUMP JUMPDEST POP PUSH1 0x2 PUSH1 0x0 SWAP1 SLOAD SWAP1 PUSH2 0x100 EXP SWAP1 DIV PUSH20 0xFFFFFFFFFFFFFFFFFFFFFFFFFFFFFFFFFFFFFFFF AND PUSH20 0xFFFFFFFFFFFFFFFFFFFFFFFFFFFFFFFFFFFFFFFF AND PUSH4 0x23B872DD CALLER ADDRESS DUP6 PUSH1 0x40 MLOAD DUP5 PUSH4 0xFFFFFFFF AND PUSH1 0xE0 SHL DUP2 MSTORE PUSH1 0x4 ADD PUSH2 0xC30 SWAP4 SWAP3 SWAP2 SWAP1 PUSH2 0x128B JUMP JUMPDEST PUSH1 0x20 PUSH1 0x40 MLOAD DUP1 DUP4 SUB DUP2 PUSH1 0x0 DUP8 GAS CALL ISZERO DUP1 ISZERO PUSH2 0xC4F JUMPI RETURNDATASIZE PUSH1 0x0 DUP1 RETURNDATACOPY RETURNDATASIZE PUSH1 0x0 REVERT JUMPDEST POP POP POP POP PUSH1 0x40 MLOAD RETURNDATASIZE PUSH1 0x1F NOT PUSH1 0x1F DUP3 ADD AND DUP3 ADD DUP1 PUSH1 0x40 MSTORE POP DUP2 ADD SWAP1 PUSH2 0xC73 SWAP2 SWAP1 PUSH2 0x12D7 JUMP JUMPDEST POP PUSH1 0x0 PUSH1 0x3 SLOAD SUB PUSH2 0xCA0 JUMPI PUSH2 0xC92 DUP3 DUP5 PUSH2 0xC8D SWAP2 SWAP1 PUSH2 0x1333 JUMP JUMPDEST PUSH2 0xE97 JUMP JUMPDEST SWAP1 POP DUP1 PUSH1 0x3 DUP2 SWAP1 SSTORE POP PUSH2 0xCEE JUMP JUMPDEST PUSH1 0x0 DUP1 PUSH2 0xCAB PUSH2 0x1C7 JUMP JUMPDEST SWAP2 POP SWAP2 POP PUSH2 0xCE9 DUP3 PUSH1 0x3 SLOAD DUP8 PUSH2 0xCC1 SWAP2 SWAP1 PUSH2 0x1333 JUMP JUMPDEST PUSH2 0xCCB SWAP2 SWAP1 PUSH2 0x13A4 JUMP JUMPDEST DUP3 PUSH1 0x3 SLOAD DUP8 PUSH2 0xCDA SWAP2 SWAP1 PUSH2 0x1333 JUMP JUMPDEST PUSH2 0xCE4 SWAP2 SWAP1 PUSH2 0x13A4 JUMP JUMPDEST PUSH2 0xF11 JUMP JUMPDEST SWAP3 POP POP POP JUMPDEST PUSH1 0x0 DUP2 GT PUSH2 0xD31 JUMPI PUSH1 0x40 MLOAD PUSH32 0x8C379A000000000000000000000000000000000000000000000000000000000 DUP2 MSTORE PUSH1 0x4 ADD PUSH2 0xD28 SWAP1 PUSH2 0x16DF JUMP JUMPDEST PUSH1 0x40 MLOAD DUP1 SWAP2 SUB SWAP1 REVERT JUMPDEST DUP1 PUSH1 0x4 PUSH1 0x0 CALLER PUSH20 0xFFFFFFFFFFFFFFFFFFFFFFFFFFFFFFFFFFFFFFFF AND PUSH20 0xFFFFFFFFFFFFFFFFFFFFFFFFFFFFFFFFFFFFFFFF AND DUP2 MSTORE PUSH1 0x20 ADD SWAP1 DUP2 MSTORE PUSH1 0x20 ADD PUSH1 0x0 KECCAK256 PUSH1 0x0 DUP3 DUP3 SLOAD PUSH2 0xD80 SWAP2 SWAP1 PUSH2 0x13D5 JUMP JUMPDEST SWAP3 POP POP DUP2 SWAP1 SSTORE POP DUP1 PUSH1 0x3 PUSH1 0x0 DUP3 DUP3 SLOAD PUSH2 0xD99 SWAP2 SWAP1 PUSH2 0x13D5 JUMP JUMPDEST SWAP3 POP POP DUP2 SWAP1 SSTORE POP CALLER PUSH20 0xFFFFFFFFFFFFFFFFFFFFFFFFFFFFFFFFFFFFFFFF AND PUSH32 0x64B83944E79C3CE8D4C297411DE637C3E102D064677AAC0C163976EBDCD6F50E DUP5 DUP5 DUP5 PUSH1 0x40 MLOAD PUSH2 0xDEA SWAP4 SWAP3 SWAP2 SWAP1 PUSH2 0x15F0 JUMP JUMPDEST PUSH1 0x40 MLOAD DUP1 SWAP2 SUB SWAP1 LOG2 PUSH2 0xDFA PUSH2 0xE8D JUMP JUMPDEST SWAP3 SWAP2 POP POP JUMP JUMPDEST PUSH1 0x4 PUSH1 0x20 MSTORE DUP1 PUSH1 0x0 MSTORE PUSH1 0x40 PUSH1 0x0 KECCAK256 PUSH1 0x0 SWAP2 POP SWAP1 POP SLOAD DUP2 JUMP JUMPDEST PUSH1 0x1 PUSH1 0x0 SWAP1 SLOAD SWAP1 PUSH2 0x100 EXP SWAP1 DIV PUSH20 0xFFFFFFFFFFFFFFFFFFFFFFFFFFFFFFFFFFFFFFFF AND DUP2 JUMP JUMPDEST PUSH1 0x2 PUSH1 0x0 SLOAD SUB PUSH2 0xE83 JUMPI PUSH1 0x40 MLOAD PUSH32 0x8C379A000000000000000000000000000000000000000000000000000000000 DUP2 MSTORE PUSH1 0x4 ADD PUSH2 0xE7A SWAP1 PUSH2 0x174B JUMP JUMPDEST PUSH1 0x40 MLOAD DUP1 SWAP2 SUB SWAP1 REVERT JUMPDEST PUSH1 0x2 PUSH1 0x0 DUP2 SWAP1 SSTORE POP JUMP JUMPDEST PUSH1 0x1 PUSH1 0x0 DUP2 SWAP1 SSTORE POP JUMP JUMPDEST PUSH1 0x0 PUSH1 0x3 DUP3 GT ISZERO PUSH2 0xEFE JUMPI DUP2 SWAP1 POP PUSH1 0x0 PUSH1 0x1 PUSH1 0x2 DUP5 PUSH2 0xEB6 SWAP2 SWAP1 PUSH2 0x13A4 JUMP JUMPDEST PUSH2 0xEC0 SWAP2 SWAP1 PUSH2 0x13D5 JUMP JUMPDEST SWAP1 POP JUMPDEST DUP2 DUP2 LT ISZERO PUSH2 0xEF8 JUMPI DUP1 SWAP2 POP PUSH1 0x2 DUP2 DUP3 DUP6 PUSH2 0xEDD SWAP2 SWAP1 PUSH2 0x13A4 JUMP JUMPDEST PUSH2 0xEE7 SWAP2 SWAP1 PUSH2 0x13D5 JUMP JUMPDEST PUSH2 0xEF1 SWAP2 SWAP1 PUSH2 0x13A4 JUMP JUMPDEST SWAP1 POP PUSH2 0xEC3 JUMP JUMPDEST POP PUSH2 0xF0C JUMP JUMPDEST PUSH1 0x0 DUP3 EQ PUSH2 0xF0B JUMPI PUSH1 0x1 SWAP1 POP JUMPDEST JUMPDEST SWAP2 SWAP1 POP JUMP JUMPDEST PUSH1 0x0 DUP2 DUP4 LT PUSH2 0xF20 JUMPI DUP2 PUSH2 0xF22 JUMP JUMPDEST DUP3 JUMPDEST SWAP1 POP SWAP3 SWAP2 POP POP JUMP JUMPDEST PUSH1 0x0 DUP2 SWAP1 POP SWAP2 SWAP1 POP JUMP JUMPDEST PUSH2 0xF3D DUP2 PUSH2 0xF2A JUMP JUMPDEST DUP3 MSTORE POP POP JUMP JUMPDEST PUSH1 0x0 PUSH1 0x40 DUP3 ADD SWAP1 POP PUSH2 0xF58 PUSH1 0x0 DUP4 ADD DUP6 PUSH2 0xF34 JUMP JUMPDEST PUSH2 0xF65 PUSH1 0x20 DUP4 ADD DUP5 PUSH2 0xF34 JUMP JUMPDEST SWAP4 SWAP3 POP POP POP JUMP JUMPDEST PUSH1 0x0 PUSH20 0xFFFFFFFFFFFFFFFFFFFFFFFFFFFFFFFFFFFFFFFF DUP3 AND SWAP1 POP SWAP2 SWAP1 POP JUMP JUMPDEST PUSH1 0x0 DUP2 SWAP1 POP SWAP2 SWAP1 POP JUMP JUMPDEST PUSH1 0x0 PUSH2 0xFB1 PUSH2 0xFAC PUSH2 0xFA7 DUP5 PUSH2 0xF6C JUMP JUMPDEST PUSH2 0xF8C JUMP JUMPDEST PUSH2 0xF6C JUMP JUMPDEST SWAP1 POP SWAP2 SWAP1 POP JUMP JUMPDEST PUSH1 0x0 PUSH2 0xFC3 DUP3 PUSH2 0xF96 JUMP JUMPDEST SWAP1 POP SWAP2 SWAP1 POP JUMP JUMPDEST PUSH1 0x0 PUSH2 0xFD5 DUP3 PUSH2 0xFB8 JUMP JUMPDEST SWAP1 POP SWAP2 SWAP1 POP JUMP JUMPDEST PUSH2 0xFE5 DUP2 PUSH2 0xFCA JUMP JUMPDEST DUP3 MSTORE POP POP JUMP JUMPDEST PUSH1 0x0 PUSH1 0x20 DUP3 ADD SWAP1 POP PUSH2 0x1000 PUSH1 0x0 DUP4 ADD DUP5 PUSH2 0xFDC JUMP JUMPDEST SWAP3 SWAP2 POP POP JUMP JUMPDEST PUSH1 0x0 DUP1 REVERT JUMPDEST PUSH2 0x1014 DUP2 PUSH2 0xF2A JUMP JUMPDEST DUP2 EQ PUSH2 0x101F JUMPI PUSH1 0x0 DUP1 REVERT JUMPDEST POP JUMP JUMPDEST PUSH1 0x0 DUP2 CALLDATALOAD SWAP1 POP PUSH2 0x1031 DUP2 PUSH2 0x100B JUMP JUMPDEST SWAP3 SWAP2 POP POP JUMP JUMPDEST PUSH1 0x0 DUP2 ISZERO ISZERO SWAP1 POP SWAP2 SWAP1 POP JUMP JUMPDEST PUSH2 0x104C DUP2 PUSH2 0x1037 JUMP JUMPDEST DUP2 EQ PUSH2 0x1057 JUMPI PUSH1 0x0 DUP1 REVERT JUMPDEST POP JUMP JUMPDEST PUSH1 0x0 DUP2 CALLDATALOAD SWAP1 POP PUSH2 0x1069 DUP2 PUSH2 0x1043 JUMP JUMPDEST SWAP3 SWAP2 POP POP JUMP JUMPDEST PUSH1 0x0 DUP1 PUSH1 0x40 DUP4 DUP6 SUB SLT ISZERO PUSH2 0x1086 JUMPI PUSH2 0x1085 PUSH2 0x1006 JUMP JUMPDEST JUMPDEST PUSH1 0x0 PUSH2 0x1094 DUP6 DUP3 DUP7 ADD PUSH2 0x1022 JUMP JUMPDEST SWAP3 POP POP PUSH1 0x20 PUSH2 0x10A5 DUP6 DUP3 DUP7 ADD PUSH2 0x105A JUMP JUMPDEST SWAP2 POP POP SWAP3 POP SWAP3 SWAP1 POP JUMP JUMPDEST PUSH1 0x0 PUSH1 0x20 DUP3 ADD SWAP1 POP PUSH2 0x10C4 PUSH1 0x0 DUP4 ADD DUP5 PUSH2 0xF34 JUMP JUMPDEST SWAP3 SWAP2 POP POP JUMP JUMPDEST PUSH1 0x0 PUSH1 0x20 DUP3 DUP5 SUB SLT ISZERO PUSH2 0x10E0 JUMPI PUSH2 0x10DF PUSH2 0x1006 JUMP JUMPDEST JUMPDEST PUSH1 0x0 PUSH2 0x10EE DUP5 DUP3 DUP6 ADD PUSH2 0x1022 JUMP JUMPDEST SWAP2 POP POP SWAP3 SWAP2 POP POP JUMP JUMPDEST PUSH1 0x0 DUP1 PUSH1 0x40 DUP4 DUP6 SUB SLT ISZERO PUSH2 0x110E JUMPI PUSH2 0x110D PUSH2 0x1006 JUMP JUMPDEST JUMPDEST PUSH1 0x0 PUSH2 0x111C DUP6 DUP3 DUP7 ADD PUSH2 0x1022 JUMP JUMPDEST SWAP3 POP POP PUSH1 0x20 PUSH2 0x112D DUP6 DUP3 DUP7 ADD PUSH2 0x1022 JUMP JUMPDEST SWAP2 POP POP SWAP3 POP SWAP3 SWAP1 POP JUMP JUMPDEST PUSH1 0x0 PUSH2 0x1142 DUP3 PUSH2 0xF6C JUMP JUMPDEST SWAP1 POP SWAP2 SWAP1 POP JUMP JUMPDEST PUSH2 0x1152 DUP2 PUSH2 0x1137 JUMP JUMPDEST DUP2 EQ PUSH2 0x115D JUMPI PUSH1 0x0 DUP1 REVERT JUMPDEST POP JUMP JUMPDEST PUSH1 0x0 DUP2 CALLDATALOAD SWAP1 POP PUSH2 0x116F DUP2 PUSH2 0x1149 JUMP JUMPDEST SWAP3 SWAP2 POP POP JUMP JUMPDEST PUSH1 0x0 PUSH1 0x20 DUP3 DUP5 SUB SLT ISZERO PUSH2 0x118B JUMPI PUSH2 0x118A PUSH2 0x1006 JUMP JUMPDEST JUMPDEST PUSH1 0x0 PUSH2 0x1199 DUP5 DUP3 DUP6 ADD PUSH2 0x1160 JUMP JUMPDEST SWAP2 POP POP SWAP3 SWAP2 POP POP JUMP JUMPDEST PUSH2 0x11AB DUP2 PUSH2 0x1137 JUMP JUMPDEST DUP3 MSTORE POP POP JUMP JUMPDEST PUSH1 0x0 PUSH1 0x20 DUP3 ADD SWAP1 POP PUSH2 0x11C6 PUSH1 0x0 DUP4 ADD DUP5 PUSH2 0x11A2 JUMP JUMPDEST SWAP3 SWAP2 POP POP JUMP JUMPDEST PUSH1 0x0 DUP2 MLOAD SWAP1 POP PUSH2 0x11DB DUP2 PUSH2 0x100B JUMP JUMPDEST SWAP3 SWAP2 POP POP JUMP JUMPDEST PUSH1 0x0 PUSH1 0x20 DUP3 DUP5 SUB SLT ISZERO PUSH2 0x11F7 JUMPI PUSH2 0x11F6 PUSH2 0x1006 JUMP JUMPDEST JUMPDEST PUSH1 0x0 PUSH2 0x1205 DUP5 DUP3 DUP6 ADD PUSH2 0x11CC JUMP JUMPDEST SWAP2 POP POP SWAP3 SWAP2 POP POP JUMP JUMPDEST PUSH1 0x0 DUP3 DUP3 MSTORE PUSH1 0x20 DUP3 ADD SWAP1 POP SWAP3 SWAP2 POP POP JUMP JUMPDEST PUSH32 0x496E76616C696420696E70757420616D6F756E74000000000000000000000000 PUSH1 0x0 DUP3 ADD MSTORE POP JUMP JUMPDEST PUSH1 0x0 PUSH2 0x1255 PUSH1 0x14 DUP4 PUSH2 0x120E JUMP JUMPDEST SWAP2 POP PUSH2 0x1260 DUP3 PUSH2 0x121F JUMP JUMPDEST PUSH1 0x20 DUP3 ADD SWAP1 POP SWAP2 SWAP1 POP JUMP JUMPDEST PUSH1 0x0 PUSH1 0x20 DUP3 ADD SWAP1 POP DUP2 DUP2 SUB PUSH1 0x0 DUP4 ADD MSTORE PUSH2 0x1284 DUP2 PUSH2 0x1248 JUMP JUMPDEST SWAP1 POP SWAP2 SWAP1 POP JUMP JUMPDEST PUSH1 0x0 PUSH1 0x60 DUP3 ADD SWAP1 POP PUSH2 0x12A0 PUSH1 0x0 DUP4 ADD DUP7 PUSH2 0x11A2 JUMP JUMPDEST PUSH2 0x12AD PUSH1 0x20 DUP4 ADD DUP6 PUSH2 0x11A2 JUMP JUMPDEST PUSH2 0x12BA PUSH1 0x40 DUP4 ADD DUP5 PUSH2 0xF34 JUMP JUMPDEST SWAP5 SWAP4 POP POP POP POP JUMP JUMPDEST PUSH1 0x0 DUP2 MLOAD SWAP1 POP PUSH2 0x12D1 DUP2 PUSH2 0x1043 JUMP JUMPDEST SWAP3 SWAP2 POP POP JUMP JUMPDEST PUSH1 0x0 PUSH1 0x20 DUP3 DUP5 SUB SLT ISZERO PUSH2 0x12ED JUMPI PUSH2 0x12EC PUSH2 0x1006 JUMP JUMPDEST JUMPDEST PUSH1 0x0 PUSH2 0x12FB DUP5 DUP3 DUP6 ADD PUSH2 0x12C2 JUMP JUMPDEST SWAP2 POP POP SWAP3 SWAP2 POP POP JUMP JUMPDEST PUSH32 0x4E487B7100000000000000000000000000000000000000000000000000000000 PUSH1 0x0 MSTORE PUSH1 0x11 PUSH1 0x4 MSTORE PUSH1 0x24 PUSH1 0x0 REVERT JUMPDEST PUSH1 0x0 PUSH2 0x133E DUP3 PUSH2 0xF2A JUMP JUMPDEST SWAP2 POP PUSH2 0x1349 DUP4 PUSH2 0xF2A JUMP JUMPDEST SWAP3 POP DUP3 DUP3 MUL PUSH2 0x1357 DUP2 PUSH2 0xF2A JUMP JUMPDEST SWAP2 POP DUP3 DUP3 DIV DUP5 EQ DUP4 ISZERO OR PUSH2 0x136E JUMPI PUSH2 0x136D PUSH2 0x1304 JUMP JUMPDEST JUMPDEST POP SWAP3 SWAP2 POP POP JUMP JUMPDEST PUSH32 0x4E487B7100000000000000000000000000000000000000000000000000000000 PUSH1 0x0 MSTORE PUSH1 0x12 PUSH1 0x4 MSTORE PUSH1 0x24 PUSH1 0x0 REVERT JUMPDEST PUSH1 0x0 PUSH2 0x13AF DUP3 PUSH2 0xF2A JUMP JUMPDEST SWAP2 POP PUSH2 0x13BA DUP4 PUSH2 0xF2A JUMP JUMPDEST SWAP3 POP DUP3 PUSH2 0x13CA JUMPI PUSH2 0x13C9 PUSH2 0x1375 JUMP JUMPDEST JUMPDEST DUP3 DUP3 DIV SWAP1 POP SWAP3 SWAP2 POP POP JUMP JUMPDEST PUSH1 0x0 PUSH2 0x13E0 DUP3 PUSH2 0xF2A JUMP JUMPDEST SWAP2 POP PUSH2 0x13EB DUP4 PUSH2 0xF2A JUMP JUMPDEST SWAP3 POP DUP3 DUP3 ADD SWAP1 POP DUP1 DUP3 GT ISZERO PUSH2 0x1403 JUMPI PUSH2 0x1402 PUSH2 0x1304 JUMP JUMPDEST JUMPDEST SWAP3 SWAP2 POP POP JUMP JUMPDEST PUSH32 0x496E73756666696369656E74206F757470757420616D6F756E74000000000000 PUSH1 0x0 DUP3 ADD MSTORE POP JUMP JUMPDEST PUSH1 0x0 PUSH2 0x143F PUSH1 0x1A DUP4 PUSH2 0x120E JUMP JUMPDEST SWAP2 POP PUSH2 0x144A DUP3 PUSH2 0x1409 JUMP JUMPDEST PUSH1 0x20 DUP3 ADD SWAP1 POP SWAP2 SWAP1 POP JUMP JUMPDEST PUSH1 0x0 PUSH1 0x20 DUP3 ADD SWAP1 POP DUP2 DUP2 SUB PUSH1 0x0 DUP4 ADD MSTORE PUSH2 0x146E DUP2 PUSH2 0x1432 JUMP JUMPDEST SWAP1 POP SWAP2 SWAP1 POP JUMP JUMPDEST PUSH1 0x0 PUSH1 0x40 DUP3 ADD SWAP1 POP PUSH2 0x148A PUSH1 0x0 DUP4 ADD DUP6 PUSH2 0x11A2 JUMP JUMPDEST PUSH2 0x1497 PUSH1 0x20 DUP4 ADD DUP5 PUSH2 0xF34 JUMP JUMPDEST SWAP4 SWAP3 POP POP POP JUMP JUMPDEST PUSH2 0x14A7 DUP2 PUSH2 0x1037 JUMP JUMPDEST DUP3 MSTORE POP POP JUMP JUMPDEST PUSH1 0x0 PUSH1 0x60 DUP3 ADD SWAP1 POP PUSH2 0x14C2 PUSH1 0x0 DUP4 ADD DUP7 PUSH2 0xF34 JUMP JUMPDEST PUSH2 0x14CF PUSH1 0x20 DUP4 ADD DUP6 PUSH2 0xF34 JUMP JUMPDEST PUSH2 0x14DC PUSH1 0x40 DUP4 ADD DUP5 PUSH2 0x149E JUMP JUMPDEST SWAP5 SWAP4 POP POP POP POP JUMP JUMPDEST PUSH32 0x496E76616C696420736861726520616D6F756E74000000000000000000000000 PUSH1 0x0 DUP3 ADD MSTORE POP JUMP JUMPDEST PUSH1 0x0 PUSH2 0x151A PUSH1 0x14 DUP4 PUSH2 0x120E JUMP JUMPDEST SWAP2 POP PUSH2 0x1525 DUP3 PUSH2 0x14E4 JUMP JUMPDEST PUSH1 0x20 DUP3 ADD SWAP1 POP SWAP2 SWAP1 POP JUMP JUMPDEST PUSH1 0x0 PUSH1 0x20 DUP3 ADD SWAP1 POP DUP2 DUP2 SUB PUSH1 0x0 DUP4 ADD MSTORE PUSH2 0x1549 DUP2 PUSH2 0x150D JUMP JUMPDEST SWAP1 POP SWAP2 SWAP1 POP JUMP JUMPDEST PUSH32 0x496E73756666696369656E74206C69717569646974792072656D6F7665640000 PUSH1 0x0 DUP3 ADD MSTORE POP JUMP JUMPDEST PUSH1 0x0 PUSH2 0x1586 PUSH1 0x1E DUP4 PUSH2 0x120E JUMP JUMPDEST SWAP2 POP PUSH2 0x1591 DUP3 PUSH2 0x1550 JUMP JUMPDEST PUSH1 0x20 DUP3 ADD SWAP1 POP SWAP2 SWAP1 POP JUMP JUMPDEST PUSH1 0x0 PUSH1 0x20 DUP3 ADD SWAP1 POP DUP2 DUP2 SUB PUSH1 0x0 DUP4 ADD MSTORE PUSH2 0x15B5 DUP2 PUSH2 0x1579 JUMP JUMPDEST SWAP1 POP SWAP2 SWAP1 POP JUMP JUMPDEST PUSH1 0x0 PUSH2 0x15C7 DUP3 PUSH2 0xF2A JUMP JUMPDEST SWAP2 POP PUSH2 0x15D2 DUP4 PUSH2 0xF2A JUMP JUMPDEST SWAP3 POP DUP3 DUP3 SUB SWAP1 POP DUP2 DUP2 GT ISZERO PUSH2 0x15EA JUMPI PUSH2 0x15E9 PUSH2 0x1304 JUMP JUMPDEST JUMPDEST SWAP3 SWAP2 POP POP JUMP JUMPDEST PUSH1 0x0 PUSH1 0x60 DUP3 ADD SWAP1 POP PUSH2 0x1605 PUSH1 0x0 DUP4 ADD DUP7 PUSH2 0xF34 JUMP JUMPDEST PUSH2 0x1612 PUSH1 0x20 DUP4 ADD DUP6 PUSH2 0xF34 JUMP JUMPDEST PUSH2 0x161F PUSH1 0x40 DUP4 ADD DUP5 PUSH2 0xF34 JUMP JUMPDEST SWAP5 SWAP4 POP POP POP POP JUMP JUMPDEST PUSH32 0x416D6F756E7473206D7573742062652067726561746572207468616E20300000 PUSH1 0x0 DUP3 ADD MSTORE POP JUMP JUMPDEST PUSH1 0x0 PUSH2 0x165D PUSH1 0x1E DUP4 PUSH2 0x120E JUMP JUMPDEST SWAP2 POP PUSH2 0x1668 DUP3 PUSH2 0x1627 JUMP JUMPDEST PUSH1 0x20 DUP3 ADD SWAP1 POP SWAP2 SWAP1 POP JUMP JUMPDEST PUSH1 0x0 PUSH1 0x20 DUP3 ADD SWAP1 POP DUP2 DUP2 SUB PUSH1 0x0 DUP4 ADD MSTORE PUSH2 0x168C DUP2 PUSH2 0x1650 JUMP JUMPDEST SWAP1 POP SWAP2 SWAP1 POP JUMP JUMPDEST PUSH32 0x496E73756666696369656E74206C697175696469747920616464656400000000 PUSH1 0x0 DUP3 ADD MSTORE POP JUMP JUMPDEST PUSH1 0x0 PUSH2 0x16C9 PUSH1 0x1C DUP4 PUSH2 0x120E JUMP JUMPDEST SWAP2 POP PUSH2 0x16D4 DUP3 PUSH2 0x1693 JUMP JUMPDEST PUSH1 0x20 DUP3 ADD SWAP1 POP SWAP2 SWAP1 POP JUMP JUMPDEST PUSH1 0x0 PUSH1 0x20 DUP3 ADD SWAP1 POP DUP2 DUP2 SUB PUSH1 0x0 DUP4 ADD MSTORE PUSH2 0x16F8 DUP2 PUSH2 0x16BC JUMP JUMPDEST SWAP1 POP SWAP2 SWAP1 POP JUMP JUMPDEST PUSH32 0x5265656E7472616E637947756172643A207265656E7472616E742063616C6C00 PUSH1 0x0 DUP3 ADD MSTORE POP JUMP JUMPDEST PUSH1 0x0 PUSH2 0x1735 PUSH1 0x1F DUP4 PUSH2 0x120E JUMP JUMPDEST SWAP2 POP PUSH2 0x1740 DUP3 PUSH2 0x16FF JUMP JUMPDEST PUSH1 0x20 DUP3 ADD SWAP1 POP SWAP2 SWAP1 POP JUMP JUMPDEST PUSH1 0x0 PUSH1 0x20 DUP3 ADD SWAP1 POP DUP2 DUP2 SUB PUSH1 0x0 DUP4 ADD MSTORE PUSH2 0x1764 DUP2 PUSH2 0x1728 JUMP JUMPDEST SWAP1 POP SWAP2 SWAP1 POP JUMP INVALID LOG2 PUSH5 0x6970667358 0x22 SLT KECCAK256 NUMBER SWAP10 PUSH25 0x5F1CB800725A6C0FCB8AB1DBA538D5C26D680249BF2FE43FCB ISZERO PUSH11 0xFC8664736F6C6343000814 STOP CALLER "
        },
        "methodIdentifiers": {
          "addLiquidity(uint256,uint256)": "9cd441da",
          "getReserves()": "0902f1ac",
          "removeLiquidity(uint256)": "9c8f9f23",
          "shares(address)": "ce7c2ac2",
          "swap(uint256,bool)": "2aea6605",
          "token1()": "d21220a7",
          "token2()": "25be124e",
          "totalShares()": "3a98ef39"
        }
      }
    }
  }
}